:020000040800F2
:10000000D02D0020E10100088D2900087F24000880
:1000100089290008F106000861340008000000008A
:10002000000000000000000000000000490100087E
:10003000E5070008000000008D0100088D2E000873
:10004000FB010008FB010008FB010008FB010008A0
:10005000FB010008FB010008FB010008FB01000890
:10006000FB0100086F0B0008790B0008FB0100087A
:10007000FB010008FB010008FB010008FB01000870
:10008000FB010008FB010008FB010008FB01000860
:10009000FB010008FB010008FB010008FB01000850
:1000A000FB010008FB010008FB010008FB01000840
:1000B000FB010008FB010008FB010008FB01000830
:1000C000FB010008FB010008FB010008FB01000820
:1000D000FB010008FB010008FB010008D133000808
:1000E000FB010008FB010008FB010008FB01000800
:1000F000452F0008FB010008FB010008FB01000878
:10010000FB010008FB010008FB010008FB010008DF
:10011000FB010008FB010008292F0008FB01000873
:10012000FB010008FB010008FB010008FB010008BF
:10013000DFF810D000F0ECF800480047C1380008A4
:10014000AFF30080D02D0020224B19680868B0E87A
:10015000F00F80F30988BFF36F8F4FF0000080F33A
:1001600011884EF00D0E7047000000000648006830
:10017000006880F3088862B661B6BFF34F8FBFF3A3
:100180006F8F00DF00BF00BF08ED00E0EFF30980D4
:10019000BFF36F8F0F4B1A6820E9F00F106008B59E
:1001A0004FF0500080F31188BFF34F8FBFF36F8F74
:1001B00004F092FD4FF0000080F31188BDE8084084
:1001C00019680868B0E8F00F80F30988BFF36F8FF3
:1001D000704700BF18010020EFF305807047000052
:1001E0000648804706480047FEE7FEE7FEE7FEE7D1
:1001F000FEE7FEE7FEE7FEE7FEE7FEE7272F000843
:100200003101000840EA01039B0703D009E008C957
:10021000121F08C0042AFAD203E011F8013B00F8CB
:10022000013B521EF9D27047D2B201E000F8012B17
:10023000491EFBD270470022F6E710B513460A4666
:1002400004461946FFF7F0FF204610BD30B50546BD
:100250002A460B4612F8010B13F8014B08B1A042D5
:10026000F8D01CB1002802D06D1CF1E7284630BD43
:1002700010B5044604E00B7800F8013B03B1491CBB
:10028000521EF8D2204610BD421C10F8011B002956
:10029000FBD1801A704710B5002200E0521C835C2D
:1002A0008C5CA34201D1002BF8D1D8B2E1B2401A44
:1002B00010BD034611F8012B00F8012B002AF9D1DB
:1002C0001846704730B505460020034600E05B1C29
:1002D000934205D2EC5CC85C201A01D1002CF6D107
:1002E00030BD30B50B46014600202022012409E034
:1002F00021FA02F59D4205D303FA02F5491B04FADF
:1003000002F52844151EA2F10102F1DC30BD000007
:10031000064C074D06E0E06840F0010394E8070052
:1003200098471034AC42F6D3FFF706FF7C760008FE
:100330009C76000870B58C1810F8015B15F0070367
:1003400001D110F8013B2A1106D110F8012B03E06E
:1003500010F8016B01F8016B5B1EF9D12B0705D476
:100360000023521E0DD401F8013BFAE710F8013BBF
:10037000CB1A921C03E013F8015B01F8015B521EDB
:10038000F9D5A142D8D3002070BD00002DE9F0437B
:100390008DB007460E4600242B48006881682A4825
:1003A000006888473846FFF76FFF81462648006897
:1003B0004A463946C368244800689847224800687E
:1003C000022222A1C368204800689847394620A02D
:1003D00003F0C0F802F020F9804631E00DEB040193
:1003E00019480068026918480068904708BB1DF862
:1003F00004101CA003F0AEF8D4B1601E1DF800007C
:100400000D2815D11DF804000A2811D1611C684679
:1004100003F03AFA18B100200DB0BDE8F083611C7A
:10042000684603F015FA10B14FF0FF30F4E70024EE
:10043000641C02F0F1F80546454501DD761EA8462C
:10044000002ECBD1B01EE7E7140100200D0A0000FA
:1004500053656E6420636F6D6D616E643A25730D34
:100460000A000000256300002DE9F05F8046894600
:1004700017464D4600242A480068816828480068CD
:1004800088474046FFF700FF8346254800685A46E4
:100490004146C36822480068984721480068022204
:1004A00020A1C3681E480068984741461EA003F07B
:1004B00051F802F0B1F882462EE029191848006878
:1004C0000269174800689047F8B9295D1BA003F03E
:1004D00041F8CCB1601E285C0D2815D1285D0A2892
:1004E00012D1611C284603F0CFF928B10021601C0D
:1004F00029540020BDE8F09F611C284603F0A8F9AC
:1005000010B14FF0FF30F5E7641C02F085F80646A5
:10051000564501DD7F1EB246002FCED1B81EE9E759
:10052000140100200D0A000053656E6420636F6D96
:100530006D616E643A25730D0A00000025630000AA
:100540002DE9F04F8FB082460E4617464FF0000B54
:100550000024A046A14602F05FF8019054E002A8F2
:1005600001192B4800680269294800689047002853
:1005700042D1BBF1000F06D0BBF1010F12D0BBF18D
:10058000020F38D128E0002102AA601C115421A1D9
:1005900002A8FFF75BFE18B14FF0010B002400E04A
:1005A000641C28E002A8005D3A2813D14FF000092E
:1005B0000AE002A810F8090008EB880100EB4100EE
:1005C000A0F1300809F10109A145F2DB4FF0020B5F
:1005D000002400E0641C0EE002A8005D0AF804009C
:1005E000641C444506D10EB1C6F8008000200FB04F
:1005F000BDE8F08F00BF00BF02F00EF8054601997C
:100600008D4201DD7F1E0195002FA8D1B81EEEE7B7
:10061000140100202B4950442C00000010B506A006
:1006200000F0CCFA064908600846006841680448B2
:100630000068884710BD00007561727433000000C7
:100640001401002010B5024800F0CEF810BD0000E3
:100650009800002010B5FFF7F5FF10BD10B500F0B1
:1006600003F800F009F810BD10B5024801F0BCFF16
:1006700010BD00003400002010B5024801F0B4FFA6
:1006800010BD00005800002010B5024802F080F9AB
:1006900010BD0000D400002010B5FFF7F5FF10BD1D
:1006A000A8B015E04FF0FF33002201A90948006807
:1006B00003F07EF904465CB907A0059902F04AFFF1
:1006C0000FA901A800F044F810B90FA802F06CFBC4
:1006D000E8E700000C000020D2D1B6C1B5BDB6D30A
:1006E000C1D02C6B6579203D2025640D0A000000E7
:1006F00000BFFEE710B50446204600F085FB10BDA4
:1007000010B501F0AFFF10BD10B500F0A9FD10BD90
:1007100070B504460D462946204600F017FE70BD10
:1007200001460020704710B5044602F041FA10BDA2
:1007300010B5044602F0C8F9002010BD70B504469B
:100740000D462946204602F075FE002070BD0000CF
:1007500070B504460D462079022806D104F118012F
:100760002846FFF7A6FD002070BD2079B8B9606962
:1007700010B14FF0FF30F7E72069012804D109A13B
:100780002846FFF796FD0AE02069022804D10DA152
:100790002846FFF78EFD02E04FF0FF30E4E700202F
:1007A000E2E700007B22646576223A226C616D707C
:1007B00031222C22737461747573223A2232227DA5
:1007C000000000007B22646576223A226C616D7025
:1007D00032222C22737461747573223A2232227D84
:1007E00000000000704700000249096801620149E9
:1007F000086070479400002030B58DB040F2D245BB
:1008000016A000F0F7F9044608A92046E26A9047CE
:1008100028B92A4608A913A002F09CFE04E018A0FB
:1008200002F098FE0DB030BD08AA19A1684602F08A
:10083000A1FE0C236A461946022002F05DFA2A4600
:1008400015A1684602F096FE0C236A461821022084
:1008500002F052FA02F0ACF900BFE3E7455350381A
:1008600032363600426F617264204950203D2025A7
:10087000732C20706F7274203D2025640D0A0000D7
:10088000476574496E666F206572726F720D0A005B
:1008900049503A2573000000506F72743A25640085
:1008A00070B508A5FFF7D6FE284600F08DF904467E
:1008B0002046A169884761696068FFF7BCFC02F0C7
:1008C00077F970BD4F4C45440000000010B5044658
:1008D000024903A0FFF75AFD10BD0000A0860100E9
:1008E00041542B434950434C4F53450070B59AB087
:1008F00006460C4615462B46224605A101A802F0E5
:1009000039FE084901A8FFF741FD1AB070BD00008B
:1009100041542B43574A41503D222573222C222516
:1009200073220000A086010070B59AB005460E46FD
:100930001446224604A101A802F01CFE0D4901A89C
:10094000FFF724FD1AB070BD41542B434950535456
:100950004152543D22554450222C223139322E31FD
:1009600036382E312E323434222C383038312C2582
:10097000642C3200A0860100F0B58FB00746334CDE
:100980003348056867550068401C314908603148A4
:10099000007820B1012817D0022854D12DE020780A
:1009A0002B2802D000202A490860042D0BD10522F3
:1009B00029A12046FFF786FC10B9012025490870BF
:1009C0000020234908603EE0605D3A2814D10026EB
:1009D0000AE0A05D2249096801EB810100EB4100BA
:1009E00030381F490860761CAE42F2DB02201949FC
:1009F000087000201649086025E01548006818496D
:100A0000096888421ED101F007FE019002208DF88E
:100A1000080013482146026807A8FFF729FC0021B7
:100A200007A80F4A1268815400231A4601A90D48ED
:100A3000006803F065F80020064908700449086062
:100A40000749086000BF00BF0FB0F0BD3C070020A1
:100A5000500000204C0000202B4950442C00000086
:100A6000540000200C0000202DE9F041B2B00646F1
:100A70000F46154A694615A0FFF7F6FC8046B8F107
:100A8000000F1ED114A16846FFF7E0FB0446217851
:100A900015A002F05FFDA4B10E34002503E0615DF6
:100AA000301D41556D1C605D2228F8D10021301D9C
:100AB0004155311D3846FFF7FCFB002032B0BDE840
:100AC000F0814FF0FF30F9E7A086010041542B433D
:100AD00049465352000000002B43494653523A53B3
:100AE000544149502C2200006765742074686520C9
:100AF00049502073746172743A25630D0A00000036
:100B000010B50446FFF78AFD044905A0FFF73EFC37
:100B1000024906A0FFF73AFC002010BDA0860100A4
:100B200041542B43574D4F44453D330041542B43D3
:100B300049504D55583D300010B5024802F02EF98D
:100B4000002010BD790900082DE9F04107460C4648
:100B500015461E46324629462046FFF7F1FCBDE801
:100B6000F08170B50646DDE90445002070BD10B582
:100B7000082000F0B9F910BD10B5102000F0B4F94C
:100B800010BD000010B500220621272000F054FC03
:100B9000272000F041FC04480068C06840F02000B5
:100BA00001490968C86010BD2C02002072B600BF60
:100BB000FEE710B501F02CFD002010BD01460148F4
:100BC00070470000BC00002010B50446204602F02B
:100BD000E5FC10BD0146012908DB022906DC481EA0
:100BE00000EB8000024A02EB800070470020FCE727
:100BF0006C00002010B50446204602F0E3FC10BD56
:100C0000004870475C0B00200146002291F821004B
:100C1000022808D00420886300BF002081F820004B
:100C200000BF012070470868006820F00E000B68C4
:100C300018600868006820F001000B68186091F8DF
:100C4000403001209840CB6B5860012081F8210092
:100C500000BF002081F8200000BF1046E2E700003E
:100C600070B50446002594F82100022803D0042022
:100C7000A0630125C1E02068006820F00E00216813
:100C800008602068006820F00100216808605C4965
:100C90002068884252D95A4978392068884201D15F
:100CA000012047E0564964392068884201D110206C
:100CB00040E0534950392068884201D1801539E01D
:100CC0004F493C392068884201D1801432E04C49B8
:100CD00028392068884202D14FF480302AE0484900
:100CE00014392068884202D14FF4801022E0444930
:100CF0002068884201D140041CE0424920688842B3
:100D000001D1012016E03F4914312068884201D109
:100D100010200FE03B4928312068884201D180151E
:100D200008E038493C312068884201D1801401E054
:100D30004FF480303349091F086051E03049783959
:100D40002068884201D1012047E02D49643920689C
:100D5000884201D1102040E029495039206888425A
:100D600001D1801539E026493C392068884201D1FB
:100D7000801432E0224928392068884202D14FF499
:100D800080302AE01E4914392068884202D14FF48D
:100D9000801022E01A492068884201D140041CE0FA
:100DA00018492068884201D1012016E01549143104
:100DB0002068884201D110200FE0124928312068B4
:100DC000884201D1801508E00E493C3120688842F4
:100DD00001D1801401E04FF4803009498039486026
:100DE000012084F8210000BF002084F8200000BF0B
:100DF000606B10B12046616B8847284670BD0000CB
:100E0000800002400804024070B5044600F028FA51
:100E100006462546681C10B104480078054400BF0A
:100E200000F01EFA801BA842FAD370BD1C000020FF
:100E300030B58FB00446082C23D101F0EDFB0190B2
:100E400000208DF808000120059008211E4800F0C0
:100E5000F9F908B9012000E00020069000231A46A5
:100E600001A91A48006802F04BFE054615B918A002
:100E700002F070FB0821144800F0E4F918490870EA
:100E80001FE0102C1DD101F0C7FB019000208DF850
:100E900008000220059010210B4800F0D3F908B992
:100EA000012000E00020069000231A4601A907480F
:100EB000006802F025FE1021034800F0C3F909493B
:100EC00008700FB030BD0000001801400C00002079
:100ED000D2D1BDABB6D3C1D0D0B4C8EB0D0A00009F
:100EE000300000203100002010B50446044800689E
:100EF000204020B1024804602046FFF799FF10BD52
:100F0000140401402DE9F847024600239C467BE18A
:100F10004FF0010808FA03F4D1F8008008EA040051
:100F2000A0427DD1DFF8F4A2D1F80480A8EB0A0931
:100F3000D0453AD014DCB8F1030F50D009DCB8F139
:100F4000000F31D0B8F1010F1CD0B8F1020F49D118
:100F500020E0B8F1110F18D0B8F1120F42D11EE005
:100F6000B9F5881F25D006DCB9F5803F20D0B9F54A
:100F7000801F37D11AE0B9F5001F18D0B9F5041F4A
:100F800030D117E0D1F80CC02DE0D1F80C8008F179
:100F9000040C28E0D1F80C8008F1080C23E0D1F80B
:100FA0000C8008F10C0C1EE000BF00BF00BF00BFAA
:100FB00000BF00BFD1F80880B8F1000F02D14FF098
:100FC000040C0BE0D1F80880B8F1010F03D14FF009
:100FD000080C146102E04FF0080C546103E04FF07C
:100FE000000C00E000BF00BFFF2801D8904601E0E0
:100FF00002F104084646FF2802D84FEA830803E0BE
:10100000A3F108084FEA88084746D6F800804FF059
:101010000F0909FA07F928EA09080CFA07F900E0AC
:101020007AE048EA0908C6F80080D1F8048008F0A0
:101030008058B8F1805F6FD100BFDFF8E481D8F845
:10104000188048F00108DFF8D891C9F81880C84620
:10105000D8F8188008F00108CDF8008000BF00BF64
:101060004FEAB9384FEA930958F829504FEA837884
:101070004FEA18794FF00F0808FA09F825EA080531
:10108000DFF8A081424502D14FF0000824E0DFF8EC
:101090009881424502D14FF001081DE0DFF88C81B4
:1010A000424502D14FF0020816E0DFF88481424544
:1010B00002D14FF003080FE0DFF87881424502D1FA
:1010C0004FF0040808E0DFF87081424502D14FF08C
:1010D000050801E04FF006084FEA83794FEA1979D5
:1010E00008FA09F848EA0505DFF850814FEA930944
:1010F00048F82950D1F8048008F48018B8F5801F0A
:101100000BD1DFF83C81D8F8008048EA0008DFF80E
:101110003091C9F800800AE075E0DFF82481D8F842
:10112000008028EA0008DFF81891C9F80080D1F89B
:10113000048008F40018B8F5001F0ED1DFF8008114
:1011400008F10408D8F8008048EA0008DFF8F090B9
:1011500009F10409C9F800800DE0DFF8E48008F126
:101160000408D8F8008028EA0008DFF8D49009F1D4
:101170000409C9F80080D1F8048008F40038B8F5F3
:10118000003F0ED1DFF8B880A8F10408D8F800803D
:1011900048EA0008DFF8A890A9F10409C9F800801E
:1011A0000DE0DFF89C80A8F10408D8F8008028EA58
:1011B0000008DFF88C90A9F10409C9F80080D1F883
:1011C000048008F48038B8F5803F0ED1DFF87080D5
:1011D000A8F10808D8F8008048EA0008DFF8609015
:1011E000A9F10809C9F800800DE0DFF85480A8F1E2
:1011F0000808D8F8008028EA0008DFF84490A9F130
:101200000809C9F800805B1CD1F8008028FA03F8AF
:10121000B8F1000F7FF47CAEBDE8F8870000111034
:101220000010024000080140000C01400010014085
:101230000014014000180140001C0140080001405A
:1012400008040140024693680B400BB1012000E006
:10125000002070470AB1016101E00B04036170478F
:10126000014800687047000014000020034800682F
:1012700003490978084401490860704714000020B8
:101280001C00002010B50848006840F01000064916
:101290000860032000F00EF90F2000F007F800F0BE
:1012A0008BF8002010BD000000200240F0B587B090
:1012B000044600260027002500BF1F48806940F42F
:1012C00000501D4988610846806900F40050009074
:1012D00000BF00BF01A902A800F0C6F900F0FCF9A8
:1012E00006461648B6FBF0F0471E1548154908603B
:1012F00040F2E7311348C16047600021016181601D
:10130000816100F0B3FC054695B90E4800F004FD7C
:1013100005466DB92C2000F07FF8102C07D2002272
:1013200021462C2000F088F80748046000E00125E1
:10133000284607B0F0BD00000010024040420F00F8
:1013400000340140740200201800002070B50546EA
:101350000C4615B94FF0FF3070BD022C08D114486F
:10136000007808B9012000E000201149087005E06C
:101370000CB9012000E000200D4908702868012800
:1013800002D002280ED106E009480278402109481F
:10139000FFF760FF09E00648027880210548FFF763
:1013A00059FF02E04FF0FF30D6E700BF0020D3E73F
:1013B000320000200020014008B500BF14488069B9
:1013C00040F00100124988610846806900F0010080
:1013D000009000BF00BF00BF0846C06940F08050C9
:1013E000C8610846C06900F08050009000BF00BF8F
:1013F00000220F21901E00F01FF800BF0549486829
:1014000020F0E06040F00070486000BF08BD0000C0
:10141000001002400000014001460846002809DB98
:1014200000F01F0301229A4043099B0003F1E023CF
:10143000C3F8002100BF70472DE9F05F80460D46DC
:101440001646002702F0D2F8074639462A463346A8
:1014500001F00700C0F1070ABAF1040F02D94FF0FA
:10146000040A01E0C0F1070AD14600F1040ABAF10A
:10147000070F02D24FF0000A01E0A0F1030AD446A0
:101480004FF0010A0AFA09FAAAF1010A0AEA020A65
:101490000AFA0CFA4FF0010B0BFA0CFBABF1010B43
:1014A0000BEA030B4AEA0B042146404602F0A6F879
:1014B000BDE8F09F00BF00F00702064B19684FF629
:1014C000FF031940044B0B4343EA0221014B19600F
:1014D00000BF70470CED00E00000FA0570B504464F
:1014E0000D460CB9012070BD5A48006800F0070095
:1014F000A8420ED25748006820F0070028435549FB
:1015000008600846006800F00700A84201D00120EA
:10151000E9E7207800F0020002281DD1207800F0D1
:101520000400042805D14C48406840F4E0604A4972
:101530004860207800F00800082805D14648406837
:1015400040F46050444948604348406820F0F0004F
:10155000A168084340494860207800F0010078B352
:101560006068012806D13C48006800F4003090B95A
:101570000120B8E76068022806D13748006800F00B
:10158000007040B90120AEE73348006800F0020067
:1015900008B90120A7E73048406820F003006168DF
:1015A00008432D494860FFF75BFE064609E0FFF758
:1015B00057FE801B41F28831884202D9032092E70E
:1015C00007E02548406800F00C006168B0EB810F2F
:1015D000EDD12048006800F00700A8420ED91D4850
:1015E000006820F0070028431A4908600846006890
:1015F00000F00700A84201D0012074E7207800F035
:101600000400042807D11448406820F4E060E16831
:10161000084311494860207800F00800082808D1E4
:101620000D48406820F46050216940EAC1000A4931
:10163000486000F061F808494968C1F30311074A9E
:10164000515CC8400649086006480068FFF72EFE56
:10165000002048E700200240001002402E5C0008F5
:1016600020000020180000200F2202600D4A52685E
:1016700002F0030242600B4A526802F0F0028260FC
:10168000084A526802F4E062C260064A526802F4F4
:101690006052D2080261044A126802F007020A602E
:1016A000704700000010024000200240014800681E
:1016B000704700002000002000B5FFF7F7FF044945
:1016C0004968C1F30221034A515CC84000BD0000D3
:1016D000001002403E5C000800B5FFF7E7FF044938
:1016E0004968C1F3C221034A515CC84000BD0000F3
:1016F000001002403E5C000870B50021002200246A
:1017000000230020134D696801F00C05F5B1042D8C
:1017100002D0082D19D101E00F4819E00F4DC1F397
:101720008346AB5D01F4803555B10A4D6D68C5F354
:1017300040450B4E725D084D5D43B5FBF2F402E08F
:10174000084D03FB05F4204602E000BF024800BF3D
:1017500000BF70BD0010024000127A001C5C00083F
:101760002C5C000800093D00F8B504460CB90120C6
:10177000F8BD207800F00100002878D0F8484068D3
:1017800000F00C0004280CD0F548406800F00C0074
:10179000082811D1F248406800F48030B0F5803F4D
:1017A0000AD1EF48006800F4003000285FD060687C
:1017B00000285CD10120DBE700BF6068B0F5803F06
:1017C00006D1E748006840F48030E549086028E029
:1017D000606858B9E248006820F48030E049086049
:1017E0000846006820F4802008601AE06068B0F5C0
:1017F000A02F0BD1DA48006840F48020D849086057
:101800000846006840F4803008600AE0D448006868
:1018100020F48030D24908600846006820F4802017
:10182000086000BF606888B1FFF71AFD054606E052
:10183000FFF716FD401B642801D9032098E7C8482C
:10184000006800F400300028F2D010E0FFF708FD37
:10185000054606E0FFF704FD401B642801D903207C
:1018600086E7BF48006800F400300028F2D12078F5
:1018700000F00200022857D1B948406800F00C007F
:1018800050B1B748406800F00C00082818D1B4489F
:10189000406800F4803098B9B148006800F0020058
:1018A00020B12069012801D0012061E7AC4800681F
:1018B00020F0F800616940EAC100A949086033E0FE
:1018C0002069E8B10120A7490860FFF7C9FC054677
:1018D00006E0FFF7C5FC401B022801D9032047E7BB
:1018E0009F48006800F002000028F2D09C48006881
:1018F00020F0F800616940EAC1009949086013E0EE
:10190000002098490860FFF7ABFC054606E0FFF7AA
:10191000A7FC401B022801D9032029E79048006852
:1019200000F002000028F2D1207800F0080008281A
:101930002DD1A069B8B101208B490860FFF790FC58
:10194000054606E0FFF78CFC401B022801D9032066
:101950000EE78348406A00F002000028F2D0012020
:1019600001F008FA13E000207F490860FFF778FCD7
:10197000054606E0FFF774FC401B022801D903204E
:10198000F6E67748406A00F002000028F2D120789D
:1019900000F00400042873D100277148C06900F0EA
:1019A000805070B900BF6E48C06940F080506C49EB
:1019B000C8610846C06900F08050009000BF00BFB9
:1019C00001276A48006800F48070B0B96748006871
:1019D00040F4807065490860FFF742FC054606E068
:1019E000FFF73EFC401B642801D90320C0E65F4896
:1019F000006800F480700028F2D000BFE068012881
:101A000006D15748006A40F001005549086227E0B6
:101A1000E06858B95248006A20F001005049086255
:101A20000846006A20F00400086219E0E068052812
:101A30000BD14B48006A40F004004949086208464F
:101A4000006A40F0010008620AE04548006A20F0A0
:101A50000100434908620846006A20F00400086259
:101A600000BFE068A0B1FFF7FBFB054609E0FFF708
:101A7000F7FB401B41F28831884202D9032077E608
:101A800022E03748006A00F002000028EFD012E0A0
:101A9000FFF7E6FB054608E0FFF7E2FB401B41F2DB
:101AA0008831884201D9032062E62D48006A00F09F
:101AB00002000028F0D1012F05D12948C06920F08B
:101AC00080502749C86100BFE069C8B32448406816
:101AD00000F00C00082860D0E069022848D10020FE
:101AE00020490866FFF7BCFB054606E0FFF7B8FB98
:101AF000401B022801D903203AE61948006800F08B
:101B000000700028F2D1206AB0F5803F07D1144858
:101B1000406820F40030A168084311494860D4E9C6
:101B2000080108430E49496821F4741108430C491F
:101B3000486001200B490866FFF792FB054607E065
:101B40003DE0FFF78DFB401B022801D903200FE683
:101B50000348006800F000700028F2D02FE0000079
:101B600000100240000042428004424200700040E7
:101B7000002014490866FFF773FB054606E0FFF7EF
:101B80006FFB401B022801D90320F1E50E480068D5
:101B900000F000700028F2D111E0E069012800D1C6
:101BA000E6E50948466806F48031206A814204D19E
:101BB00006F47011606A814201D00120D8E500204E
:101BC000D6E5000000004242001002407047704716
:101BD00030B502460B4600BF92F83C00012801D107
:101BE000022030BD012082F83C0000BF022082F8B4
:101BF0003D00106844681068816824F0700418681B
:101C0000044310684460144D1068A84213D0134D6B
:101C10001068A8420FD01068B0F1804F0BD0104D63
:101C20001068A84207D00F4D1068A84203D00E4D8F
:101C30001068A84205D121F080015868014310685E
:101C40008160012082F83D0000BF002082F83C0046
:101C500000BF00BFC5E70000002C01400034014078
:101C60000004004000080040000C004010B504468D
:101C70000CB9012010BD94F83D0028B9002084F86B
:101C80003C00204600F026F8022084F83D00211D8B
:101C9000206801F05FF9012084F8460000BF84F855
:101CA0003E0001213F2001554020015541200155B2
:101CB00000BF00BF012084F84200432001554420AA
:101CC00001554520015500BF012084F83D0000204A
:101CD000D0E7000038B504460D492068884215D188
:101CE00000BF0C48C06940F010000A49C8610846AE
:101CF000C06900F01000009000BF00BF0022012169
:101D00003620FFF799FB3620FFF786FB38BD000031
:101D10000010004000100240014691F83D000128EB
:101D200001D001207047022081F83D000868C0689A
:101D300040F001000B68D860164B0868984213D039
:101D4000154B086898420FD00868B0F1804F0BD04F
:101D5000124B0868984207D0114B0868984203D08C
:101D6000104B086898420CD10868806800F00702A0
:101D7000062A0CD00868006840F001000B68186063
:101D800005E00868006840F001000B68186000205A
:101D9000C8E70000002C014000340140000400406E
:101DA00000080040000C0040704710B50446206851
:101DB0000069C0F34000D8B12068C068C0F340009B
:101DC000B0B16FF00200216808610120207720681F
:101DD000806900F0030018B12046FFF7E5FF05E039
:101DE000204600F0ADF8204600F0ABF80020207748
:101DF00020680069C0F38000D8B12068C068C0F3D3
:101E00008000B0B16FF004002168086102202077E3
:101E10002068806900F4407018B12046FFF7C4FFC5
:101E200005E0204600F08CF8204600F08AF80020FB
:101E3000207720680069C0F3C000D8B12068C0686E
:101E4000C0F3C000B0B16FF0080021680861042041
:101E500020772068C06900F0030018B12046FFF722
:101E6000A3FF05E0204600F06BF8204600F069F87B
:101E70000020207720680069C0F30010D8B12068E6
:101E8000C068C0F30010B0B16FF0100021680861A5
:101E9000082020772068C06900F4407018B12046FF
:101EA000FFF782FF05E0204600F04AF8204600F0E8
:101EB00048F8002020772068006900F0010058B140
:101EC0002068C06800F0010030B16FF001002168A7
:101ED0000861204600F036F820680069C0F3C010A1
:101EE00058B12068C068C0F3C01030B16FF08000F6
:101EF000216808612046FFF769FE20680069C0F389
:101F0000801058B12068C068C0F3801030B16FF005
:101F1000400021680861204600F020F82068006930
:101F2000C0F3401058B12068C068C0F3401030B111
:101F30006FF02000216808612046FFF748FE10BDC1
:101F40007047704710B5044603492068884201D1A4
:101F5000FFF78CF910BD0000003401407047704756
:101F6000704700002DE9F84F044620680568206896
:101F7000C668206847694FF00009CA4605F00F0996
:101F8000B9F1000F0AD105F0200038B106F02000A9
:101F900020B1204601F0A5F8BDE8F88FB9F1000F97
:101FA0007BD007F0010018B906F49070002874D0B7
:101FB00005F0010030B106F4807018B1606C40F09B
:101FC0000100606405F0040030B107F0010018B1B1
:101FD000606C40F00200606405F0020030B107F070
:101FE000010018B1606C40F00400606405F0080066
:101FF00048B106F0200010B907F0010018B1606C7C
:1020000040F008006064606C002845D005F02000B6
:1020100028B106F0200010B1204601F062F82068D7
:102020004069C0F3801A606C00F0080010B9BAF182
:10203000000F2CD0204601F00EF82068406900F017
:10204000400000B300BF00BF2168143151E8001FF9
:1020500021F040002168143141E80002002AF3D148
:1020600000BFE06B50B17748E16B4863E06BFEF76F
:10207000F7FD88B1E06B416B88470DE02046FFF724
:102080006FFF09E009E02046FFF76AFF04E0204601
:10209000FFF766FF002060647EE7206B012877D1A0
:1020A00005F01000002873D006F010000028FAD0C8
:1020B00000BF002000902068006800902068406801
:1020C000009000BF00BF2068406900F04000002879
:1020D0005FD0E06B006840681FFA80F8B8F1000F2D
:1020E00055D0A08D404552DDA4F82E80E06B80696C
:1020F000202843D000BF00BF21680C3151E8001FE9
:1021000021F4807021680C3141E80002002AF3D1EB
:1021100000BF00BF00BF2168143151E8001F21F04B
:1021200001002168143141E80002002AF3D100BF08
:1021300000BF00BF2168143151E8001F21F04000AA
:102140002168143141E80002002AF3D100BF2020A9
:1021500084F842000020206300BF00BF21680C31DA
:1021600051E8001F21F0100021680C3141E8000205
:10217000002AF3D100BFE06BFEF746FD022060634A
:10218000A08DE28D801A81B22046FFF7E8FE03E7BA
:1021900042E0A08DE18D401A1FFA80F8E08DD0B3A7
:1021A000B8F1000F37D000BF00BF21680C3151E8F3
:1021B000001F21F4907021680C3141E80002002AD0
:1021C000F3D100BF00BF00BF2168143151E8001FE8
:1021D00021F001002168143141E80002002AF3D106
:1021E00000BF202084F842000020206300BF00BF11
:1021F00021680C3151E8001F21F0100021680C31DA
:1022000041E80002002AF3D100BF0220606341468A
:102210002046FFF7A4FEBFE605F0800030B106F0CF
:10222000800018B1204601F059F8B5E605F04000ED
:1022300030B106F0400018B1204600F042FFABE696
:1022400000BFA9E64330000810B504460CB90120D0
:1022500010BDA06900B100E000BF94F8410028B9AA
:10226000002084F84000204600F02AF8242084F85A
:1022700041002068C06820F400502168C8602046F2
:1022800000F0AEFF2068006920F4904021680861EA
:102290002068406920F02A00216848612068C068F1
:1022A00040F400502168C86000206064202084F859
:1022B000410084F842000020606300BFC8E70000CE
:1022C00010B586B00446002002900390049005905B
:1022D00038492068884230D100BF3748806940F4CF
:1022E0008040354988610846806900F4804001904B
:1022F00000BF00BF00BF0846806940F0040088614D
:102300000846806900F00400019000BF00BF481536
:102310000290022003900320059002A92748FEF7AF
:10232000F1FD4FF4806002900020039001200490A2
:1023300002A92248FEF7E6FD3AE0214920688842DA
:1023400036D100BF1C48C06940F480201A49C861DA
:102350000846C06900F48020019000BF00BF00BFA4
:102360000846806940F0080088610846806900F0EE
:102370000800019000BF00BF0815029002200390E2
:102380000320059002A90F48FEF7BCFD4FF4006042
:10239000029000200390049002A90A48FEF7B2FDC3
:1023A000002205212720FFF747F82720FFF734F800
:1023B00006B010BD00380140001002400008014086
:1023C00000480040000C014070472DE9F84F0446DA
:1023D0000E46174699464FF0000A94F8410020280F
:1023E0004AD106B117B90120BDE8F88F002060641A
:1023F000212084F84100FEF733FF8246A784E7845A
:10240000A068B0F5805F04D1206910B90025B046FE
:1024100002E035464FF000081BE0534600228021C1
:102420002046CDF8009000F089FF08B10320DBE7DB
:1024300045B9B8F80000C0F308002168486008F109
:10244000020803E02878216848606D1CE08C401E7B
:10245000E084E08C0028E0D1534600224021204651
:10246000CDF8009000F06AFF08B10320BCE72020FF
:1024700084F841000020B7E70220B5E7704700BFAD
:10248000FEE710B500F046F9FEF70AFA00F0B4F8DE
:1024900000F086FA10BD000010B500240122402192
:1024A0001448FEF7D7FE002220211248FEF7D2FE84
:1024B000C82000F079F8012220210E48FEF7CAFE5C
:1024C0000BE0641CB4F57A7F07D100222021094873
:1024D000FEF7C0FE4FF0FF3010BD40210548FEF76B
:1024E000B1FE0028EDD1002220210248FEF7B2FE05
:1024F0000020F1E7000C014010B5012240210948FD
:10250000FEF7A8FE012220210648FEF7A3FE0022C6
:1025100040210448FEF79EFE002220210148FEF7DC
:1025200099FE10BD000C014010B501222021074882
:10253000FEF790FE002240210448FEF78BFE0122A8
:1025400040210248FEF786FE10BD0000000C01404D
:1025500070B50446002500BF20E00022202111486C
:10256000FEF778FE04F0800028B1012240210D48DA
:10257000FEF770FE04E0002240210A48FEF76AFEE2
:102580006006040E012220210648FEF763FE0022A9
:1025900020210448FEF75EFE681CC5B2082DDCDB76
:1025A00070BD0000000C014008B5009000BF9DF810
:1025B00000104A1ED2B200920029F8D108BD0000D6
:1025C00010B50448046802E0A06880472469002C24
:1025D000FAD110BD4800002010B5FFF752FF00F0FF
:1025E00041FFFEF709F910BD02490968016101497F
:1025F000086070474800002010B5FEF72FF8FFF77D
:10260000DFFF10BD10B504462046FEF773F810BD7D
:1026100010B5FEF775F810BD10B5FEF775F810BDD2
:1026200070B504460D4629462046FEF771F870BD88
:1026300010B504462046FEF773F810BD10B50446E9
:102640002046FEF770F810BD10B504462046FEF790
:102650006FF810BD70B504460D4629462046FEF7BA
:102660006DF870BD00B585B0002001900290039018
:10267000049000BF1D48806940F040001B498861FC
:102680000846806900F04000009000BF00BF00BF16
:102690000846806940F0400088610846806900F083
:1026A0004000009000BF00BF11480290012003903D
:1026B0000820019001A90F48FEF724FC102001908A
:1026C00001A90C48FEF71EFC002206210920FEF796
:1026D000B3FE002206210A20FEF7AEFE0920FEF717
:1026E0009BFE0A20FEF798FE05B000BD00100240D8
:1026F000000031100018014070B504460D4629460F
:102700002046FFF78DFF70BD10B504462046FFF749
:102710008FFF10BD70B50120FEF75CFA0446022061
:10272000FEF758FA054620466168884728466968DA
:10273000884770BD10B5114A38210A2001F084F98C
:102740000F4908600846006810B10EA000F002FFB3
:10275000164A0021164801F021FA16490860164A67
:102760000021164801F01AFA15490860154A00219F
:10277000154801F013FA1549086010BD045C000803
:102780000C000020B4B4BDA820496E707574457665
:10279000656E74517565756520CFFBCFA2B6D3C148
:1027A000D0B3C9B9A6210D0A00000000985B00084B
:1027B000812E000800000020BC5B0008F12F0008FB
:1027C00004000020E05B0008A106000808000020CB
:1027D00000B585B00020019002900390049000BFE6
:1027E0003648806940F04000344988610846806975
:1027F00000F04000009000BF00BF00BF08468069A5
:1028000040F0100088610846806900F010000090D8
:1028100000BF00BF00BF0846806940F00800886123
:102820000846806900F00800009000BF00BF00BFAC
:102830000846806940F4807088610846806900F429
:102840008070009000BF00BF00BF0846806940F064
:10285000040088610846806900F00400009000BF11
:1028600000BF0122C0211648FEF7F4FC01226021BE
:102870001448FEF7EFFC1820019000200290012080
:10288000039001A91048FEF73DFBC02001900120F4
:10289000029003900320049001A90948FEF732FB3F
:1028A00060200190112002900020039003200490EA
:1028B00001A90448FEF726FB05B000BD0010024048
:1028C00000200140000C0140001801401CB5002010
:1028D000009001900E480F490860002048600021D8
:1028E0000C48816040F60F61C16080218161FFF773
:1028F000BDF908B1FEF75AF9002000900190694631
:102900000448FFF765F908B1FEF750F91CBD000057
:10291000001000409C01002010B50B480B490860D6
:102920004FF4E1304860002108488160C1600161D6
:102930000C21416100218161C161FFF785FC08B173
:10294000FEF734F910BD000000380140E40100201A
:1029500010B50B480B4908604FF4E1304860002186
:1029600008488160C16001610C21416100218161E1
:10297000C161FFF769FC08B1FEF718F910BD00004E
:10298000004800402C02002000BFFEE700BFFEE729
:10299000024909680162014908607047D0000020BF
:1029A00010B54FF4FA60FFF72DFEFDF775FE06A097
:1029B000FEF720F904462046616A884710B904A052
:1029C00000F0C8FD10BD00004553503832363600C7
:1029D000696E6974207375636365737366756C0DD6
:1029E0000A00000010B504462046FFF727FE10BD80
:1029F00010B504462046FFF727FE10BD70B5002431
:102A00000CE0002506E00020074901EBC501085550
:102A1000681CC5B2802DF6DB601CC4B2082CF0DB4C
:102A200000F0C6F870BD0000BC02002070B50B4677
:102A3000CE1701EB5676C6F3C702CE1701EB5676DA
:102A4000F610A1EBC606F4B20123A340DDB20E4B93
:102A500003EBC0039B5CDB430B4E06EBC006B35499
:102A6000094B03EBC0039B5C2B43074E06EBC006F0
:102A7000B354054B03EBC0039B5CDB43024E06EBF8
:102A8000C006B35470BD0000BC02002070B50A46F9
:102A9000CE1701EB5676C6F3C703CE1701EB567679
:102AA000F610A1EBC606F4B20122A240D5B2054A47
:102AB00002EBC002D25C2A43024E06EBC006F2547F
:102AC00070BD0000BC02002010B50021AE2000F057
:102AD00034F90021084600F030F90021102000F000
:102AE0002CF90021402000F028F90021812000F07D
:102AF00024F90021CF2000F020F90021A12000F0CE
:102B00001CF90021C82000F018F90021A62000F0CF
:102B100014F90021A82000F010F900213F2000F056
:102B20000CF90021D32000F008F90021084600F03C
:102B300004F90021D52000F000F90021802000F0E8
:102B4000FCF80021D92000F0F8F80021F12000F075
:102B5000F4F80021DA2000F0F0F80021122000F053
:102B6000ECF80021DB2000F0E8F80021402000F024
:102B7000E4F80021202000F0E0F80021022000F01D
:102B8000DCF800218D2000F0D8F80021142000F09E
:102B9000D4F80021A42000F0D0F80021A62000F0F5
:102BA000CCF80021AF2000F0C8F8FFF727FF10BDD8
:102BB00070B500241CE004F1B001C8B2002100F09F
:102BC000BCF80021084600F0B8F80021102000F001
:102BD000B4F8002508E0084901EBC501085D0121B2
:102BE00000F0ABF8681CC5B2802DF4DB601CC4B2E9
:102BF000082CE0DB70BD0000BC0200202DE9FF4F77
:102C000081B080460E461C4600962046E31704EB32
:102C10005373DB1021464FEAE47C04EB5C7C4FEA03
:102C2000EC0CA4EBCC0CBCF1000F02D04FF0010C6B
:102C300001E04FF0000C6344224604EBD27C4FEAE3
:102C40006C0C03FB0CF303F0FF0B03982038C7B2A6
:102C5000002547E00C2C07D107EB4700234901EB87
:102C6000800010F805A014E0102C05D1204800EBDE
:102C7000071010F805A00CE0182C07D107EBC700CF
:102C80001C4901EB800010F805A002E005B0BDE88A
:102C9000F08F4FF000091FE00AF0800020B13146AC
:102CA0004046FFF7F3FE03E031464046FFF7BEFE25
:102CB0004FEA4A604FEA106A701CC6B20098301A98
:102CC000A04205D1009E08F1010000F0FF0806E0D7
:102CD00009F1010000F0FF09B9F1080FDCDB00BFCA
:102CE000681CC5B25D45B5DB00BFCFE7465C000898
:102CF000BA600008AA660008F0B506460F461446FA
:102D00001D4613E022782B4639463046FFF776FF02
:102D1000284605EBD07106EB6101CEB2C5F180000B
:102D2000B04202DA0026B81CC7B2641C2078202802
:102D300002DB20787E28E5DDF0BD70B505460C4647
:102D4000FFF7DAFB7820FFF703FCFFF7A5FB1CB1C8
:102D50004020FFF7FDFB02E00020FFF7F9FBFFF743
:102D60009BFB2846FFF7F4FBFFF796FBFFF7DCFB26
:102D700070BD000008B508490968C9084FF47A72A7
:102D8000B1FBF2F14143009100BF00BF00994A1E20
:102D900000920029F9D108BD2000002001490860F7
:102DA00070470000240000202DE9FE4380460025E6
:102DB00022A14046FDF74AFA04460CB9BDE8FE835D
:102DC000E41D002503E0605D0DF805006D1C605DED
:102DD0002228F8D100200DF80500694619A000F05E
:102DE000B9FB1BA14046FDF731FA044604B9E5E7FB
:102DF0000A3420782D2803D160783038404201E031
:102E0000207830388146494614A000F0A3FB042204
:102E100015A16846FDF756FA70B915A000F09AFBA7
:102E20009DF80400A0F130073846FDF7D3FE0646B2
:102E300049463046B268904700BFBFE722646576D6
:102E4000223A22006465763A25730D0A00000000DC
:102E500022737461747573223A2200007374617472
:102E600075733A25640D0A006C616D7000000000F6
:102E7000676F7420746865206C616D700D0A0000C6
:102E800000BF012000F036FDFBE7000010B500BFD9
:102E9000502080F31188BFF34F8FBFF36F8F00BFB7
:102EA00002F03AFC18B14FF080500449086000BFAE
:102EB000002080F3118800BF10BD000004ED00E089
:102EC00000B58FB0282105A8FDF7B5F91421684693
:102ED000FDF7B1F90120059000040690002007904D
:102EE0000120099002200C90C1030D914FF4E011D4
:102EF0000E9105A8FEF738FC08B1FDF757FE0F202C
:102F0000009002200190002002904FF48060039016
:102F10000020049002216846FEF7E0FA08B1FDF7B0
:102F200045FE0FB000BD704710B504480068401C56
:102F3000024908600248FEF738FF10BD100000206B
:102F40009C01002010B50248FEF72FFF10BD0000C5
:102F50007402002010B50268204B98420ED0204B1E
:102F600098420BD0B0F1804F08D01E4B984205D04C
:102F70001D4B984202D01D4B984203D122F07002A3
:102F80004B681A43154B98420ED0154B98420BD004
:102F9000B0F1804F08D0134B984205D0124B9842A5
:102FA00002D0124B984203D122F44072CB681A43EC
:102FB00022F080034C6943EA040202608B68C3621A
:102FC0000B688362054B984202D0054B984201D1B1
:102FD0000B6903630123436110BD0000002C014015
:102FE000003401400004004000080040000C004094
:102FF00000BFFEE710B50446024801F0D3FB0020F5
:1030000010BD00005C0B00200021034AC2F89011A3
:10301000C2F89411704700005C0B002070B50546A3
:103020000C460249204601F0C3FB70BD5C0B00203A
:1030300070B506460C46154629462046FFF70AFBA2
:1030400070BD70B505466C6A0020E085E0842046BE
:10305000FEF786FF70BD00BF00BF02680C3252E869
:10306000002F22F4907102680C3242E80013002B0A
:10307000F3D100BF00BF00BF0268143252E8002F36
:1030800022F001010268143242E80013002BF3D150
:1030900000BF016B01290ED100BF00BF02680C32D6
:1030A00052E8002F22F0100102680C3242E80013AF
:1030B000002BF3D100BF202180F8421000210163D2
:1030C000704710B504462068C06820F040002168B1
:1030D000C860202084F841002046FFF7CFF9002087
:1030E00010BDF8B5044694F84200222875D1A068B6
:1030F000B0F5805F0CD1206950B90025A66A206820
:103100004068C0F308003080A06A801CA06215E00F
:10311000A56A0026A068B0F5805F03D0A06828B932
:10312000206918B920684068287004E02068406869
:1031300000F07F002870A06A401CA062E08D401E55
:1031400080B2E085002846D12068C06820F02000C9
:103150002168C8602068C06820F480702168C86059
:103160002068406920F0010021684861202084F82F
:10317000420000206063206B012826D100202063DC
:1031800000BF00BF21680C3151E8001F21F0100082
:1031900021680C3141E80002002AF3D100BF206809
:1031A000006800F0100010280AD100BF0020009035
:1031B00020680068009020684068009000BF00BF51
:1031C000A18D2046FEF7CBFE02E02046FFF7FCF87B
:1031D0000020F8BD01E00020FBE70220F9E7000035
:1031E00070B504462168096921F44051E268114331
:1031F000226811612269A1681143626941EA0205EE
:103200002168C96841F20C62914329432268D16068
:103210002168496921F44071A26911432268516112
:103220002D4A2168914202D1FEF756FA01E0FEF7DD
:1032300043FA00EBC00101EB001162689200B1FBA0
:10324000F2F100EBC00202EB001263689B00B2FBDC
:10325000F3F26423B2FBF3F202EBC20303EB0212BC
:10326000A1EB8201322202EB01116422B1FBF2F1E7
:1032700001F0F00100EBC00202EB001263689B005A
:10328000B2FBF3F26423B2FBF3F201EB021200EBA8
:10329000C00101EB001163689B00B1FBF3F100EB8F
:1032A000C00303EB00136668B600B3FBF6F36426B5
:1032B000B3FBF6F303EBC30606EB0313A1EB8301A9
:1032C000322303EB01116423B1FBF3F101F00F0191
:1032D00011442268916070BD00380140014691F8A8
:1032E0004100212828D18868B0F5805F0BD108699A
:1032F00048B90A6A1088C0F308000B685860086A69
:10330000801C086205E00B6A581C086218780B687C
:103310005860C88C401E80B2C88458B90868C0681C
:1033200020F080000B68D8600868C06840F040005A
:103330000B68D860002070470220FCE72DE9F041BF
:1033400004460D4617469846069E34E0701C88B326
:103350002EB1FDF785FFA0EB0800B0422BD900BFCE
:1033600000BF21680C3151E8001F21F4D0702168A2
:103370000C3141E80002002AF3D100BF00BF00BFBA
:103380002168143151E8001F21F001002168143137
:1033900041E80002002AF3D100BF202084F8410058
:1033A00084F8420000BF002084F8400000BF0320E2
:1033B000BDE8F081FFE7206800682840A84201D1FD
:1033C000012000E00020B842C0D00020F0E700005B
:1033D00010B51348006840B9FDF712FC11490860A8
:1033E0000F480068401C0E49086000240E48006821
:1033F00000F0200078B10C48001D0068C4B20948F4
:103400000168204601F0F0F90848006818B120462C
:103410000649096888470648FEF7A4FD10BD00006C
:103420002C0000202800002000480040240000203C
:103430002C02002010B5024600200BE000BF074B15
:103440001B6803F08003002BF9D0135C034C241D90
:103450002360401C8842F1DB10BD000000480040A2
:1034600000BFFEE770B540F2D24517A0FDF7C2FBE2
:10347000044617A000F06EF810E019A21BA1204628
:10348000A36A984718B91BA000F064F807E01FA0D2
:1034900000F060F84FF47A70FFF7B4F8EDE700BF82
:1034A0002046616B88472A461EA12046236B984719
:1034B00020B91DA000F04EF8002070BD1FA000F044
:1034C00049F84FF0FF30F8E74553503832363600B0
:1034D000436F6E6E656374696E670D0A00000000CD
:1034E0003135383736383634393231006875616AEB
:1034F00000000000436F6E6E6563742057494649B3
:1035000020737563636573730D0A0000436F6E6EFD
:103510006563742057494649206572726F720D0ABF
:10352000000000005544500043726561745472619C
:103530006E73666572204F4B0D0A00004372656121
:10354000745472616E73666572206572726F720D6B
:103550000A0000000FB4054B10B503A9044A0298F5
:1035600000F078F810BC5DF814FB00002538000866
:10357000980100200FB4084B10B504A902AA0398C3
:1035800000F068F8044602A9002000F03FF9204648
:1035900010BC5DF814FB00000D38000870B505463E
:1035A0000748046807E029462068FCF774FE08B95C
:1035B000204670BD246A002CF5D10020F9E70000F8
:1035C0009400002070B5054607480068044606E0F0
:1035D00029462068FCF75FFE08B9204670BD002C24
:1035E000F6D100BFFAE70000D000002002480068D2
:1035F000C0F30220704700000CED00E010B5002879
:1036000004DB0A07130E054A135406E00A07140EDA
:10361000034A00F00F031B1FD45410BD00E400E068
:1036200018ED00E0EFF311807047EFF3058070476D
:10363000EFF31080704702E008C8121F08C1002A8B
:10364000FAD170477047002001E001C1121F002A23
:10365000FBD170472DE9FF4F8BB09A460F460546C8
:10366000002606E025280BD052460D9990476D1C88
:10367000761C28780028F5D10FB03046BDE8F08FD1
:103680000024A0460122604900E0044315F8013FF0
:10369000203B02FA03F00842F7D128782E2817D1F0
:1036A00015F8010F44F004042A280ED06FF02F0201
:1036B0002878A0F1300109290AD808EB880102EB2B
:1036C000410100EB01086D1CF2E757F8048B6D1CFB
:1036D000287869283ED006DC0028CDD063280BD09E
:1036E000642804D136E0732810D075284BD0524698
:1036F0000D999047761C85E017F8040B8DF80000B3
:1037000000208DF80100E946012003E057F8049BF2
:103710004FF0FF3061074FF0000401D40AE0641C51
:1037200044450DDA8442FADB19F804100029F6D179
:1037300006E0641C8442FCDB19F804100029F8D16F
:10374000264404E019F8010B52460D999047641E77
:10375000F8D257E001CF4FF00A0B002802DA4042BE
:103760002D2102E0210504D52B218DF82410012103
:1037700003E0E10705D02021F7E70DF120090891CA
:103780000CE00021F9E701CF4FF00A0BF9E75946A9
:10379000FCF7A7FD01F1300209F8012D0028F6D150
:1037A000ADEB090000F1200B600701D44FF00108D8
:1037B000D84502DDA8EB0B0000E000208046002485
:1037C00006E009A85246005D0D999047641C761CDE
:1037D00008988442F5DB04E0302052460D9990476A
:1037E000761CB8F10001A8F10108F5DC05E019F834
:1037F000010B52460D999047761CBBF10001ABF1CD
:10380000010BF4DC6D1C34E7092801000A68531C25
:103810000B6010707047000000200149086070477D
:103820001000002013B50C4600BF40F6B83301224B
:1038300069460348FEF7C9FD0028F6D11CBD00000B
:10384000E4010020014800687047000010000020DB
:1038500070B504460D460CB1002D01DC002070BD92
:103860000020605506A12046FCF7F0FC06462EB16C
:10387000301BC01DA84201DC0120F0E70020EEE76C
:103880004552524F520D0A0070B504460D460CB118
:10389000002D01DC002070BD0020605506A12046EF
:1038A000FCF7D4FC06462EB1301B001DA84201DCFB
:1038B0000120F0E70020EEE74F4B0D0A000000006A
:1038C00010B5FDF7DFFCFFF7FBFAFEF781FFFFF70E
:1038D00023F8FFF73DF8FEF7F9FFFDF753F9FEF780
:1038E0007BFE00F023F8FEF725FF00F03FF80020F4
:1038F00010BD000070B50546FFF797FE48B9FFF709
:1039000097FE30B908480068022805D1FFF78AFE03
:1039100010B16FF0050404E0002415B1284601F051
:10392000F9F8204670BD00007001002010B5FFF7C7
:103930007CFE48B9FFF77CFE30B90B4800680228CE
:1039400005D1FFF76FFE10B16FF0050409E00648DE
:10395000006820B9012004490860002401E04FF00C
:10396000FF34204610BD00007001002010B5FFF7A5
:103970005CFE48B9FFF75CFE30B90C4800680228CD
:1039800005D1FFF74FFE10B16FF005040CE00748BA
:103990000068012806D102200449086001F036F9C8
:1039A000002401E04FF0FF34204610BD70010020DC
:1039B0002DE9F84307460D4691461C463E464FF01A
:1039C0000008FFF732FE48B9FFF732FE30B91C4855
:1039D000006802281FD1FFF725FEE0B10EB105B146
:1039E00014B16FF0030828E0002000906A462946D1
:1039F000304601F041FD012802D06FF002081CE0C2
:103A00000098D0B14FF080500E490860BFF34F8F3F
:103A1000BFF36F8F11E006B115B96FF003080CE02A
:103A200022462946304601F073FC012805D014B126
:103A30006FF0010801E06FF002084046BDE8F8832E
:103A40007001002004ED00E02DE9F84305460E4624
:103A500014464FF00009FFF7E8FD00284BD1FFF7AF
:103A6000E7FD002847D125480068022803D1FFF769
:103A7000D9FD00283FD1002D3DD0002E3BD04FF086
:103A8000FF37BCB1A06858B1E068502808D320695E
:103A900030B105FB06F06169814201D301270AE0DC
:103AA000A06840B9E06830B9206920B9606910B9F0
:103AB000002700E00027012F09D1002000903146A7
:103AC0002846A368226901F018FA814606E02FB95A
:103AD00000223146284601F0E1F98146B9F1000F94
:103AE00009D014B1D4F8008001E04FF0000841463D
:103AF000484600F0D3FF4846BDE8F8837001002037
:103B00002DE9F84307460D4691461C463E464FF0C8
:103B10000008FFF78AFD48B9FFF78AFD30B91D4854
:103B20000068022820D1FFF77DFDE8B10EB105B194
:103B300014B16FF003082AE00020009000236A46C9
:103B40002946304601F068FB012802D06FF00208D8
:103B50001DE00098D8B14FF080500F490860BFF3C6
:103B60004F8FBFF36F8F12E006B115B96FF00308E6
:103B70000DE0002322462946304601F079FA01285B
:103B800005D014B16FF0010801E06FF00208404663
:103B9000BDE8F8837001002004ED00E02DE9F04756
:103BA00086B080468946144600200490FFF73DFD0C
:103BB00000285DD1FFF73CFD002859D12D48006851
:103BC000022803D1FFF72EFD002851D1B8F1000FD4
:103BD0004ED080261825002005900DF1140A471EAE
:103BE00044B3206808B1D4F800A0A06900B1A56969
:103BF0002DB1382D03D8207900F0010018B1002034
:103C000006B0BDE8F087606908B160698608A06801
:103C100040B1E068602805D3206918B1606908B137
:103C2000012708E0A06830B9E06820B9206910B920
:103C3000002700E00027012F0CD12169A0684B4626
:103C40003246CDE9005102905146404601F0F2FC67
:103C500004900DE067B904A8B2B24B465146CDE9D5
:103C60000050404601F0B4FC012801D0002004902F
:103C70000498C5E7700100202DE9F04105460E4685
:103C80001648076816480068001D00F0C2FD681C51
:103C900038B936B112480168091D124800F010FE0B
:103CA0001AE07C190E4800684460BC4207D20C48F8
:103CB0000168091D0C48006800F0E8FD0CE00848A8
:103CC0000168091D0948006800F0E0FD0848006827
:103CD000844201D206480460BDE8F0812C01002036
:103CE00018010020E4110020200100201C01002008
:103CF0004801002010B5044600F0EEFD244800689D
:103D0000401C234908602348006840B921480460EA
:103D10000846006801280DD100F0F8F90AE01E48B5
:103D2000006838B91B480068C06AE16A884201D857
:103D30001848046019480068401C18490860084683
:103D4000006860641649E06A0968884202D914492B
:103D5000E06A0860E16A01EB8101124A02EB81002E
:103D6000211D00F0ADFD00F0E1FD0B48006868B1D9
:103D700008480068C06AE16A884207D24FF0805064
:103D800009490860BFF34F8FBFF36F8F10BD00006C
:103D900028010020180100203401002044010020E7
:103DA00030010020340D002004ED00E008B500F0E3
:103DB00093FD12480068E8B9114800F057FD11481A
:103DC00000F054FD0E48104908600E480F49086085
:103DD00000200F4B0F4A102100900A2001F08DF8AF
:103DE000064908600846006820B10BA10348006836
:103DF00000F054FE00F09AFD08BD000064010020B0
:103E0000F81100200C1200205C010020600100204D
:103E10002012002070120020546D7251000000002A
:103E200010B516E000F058FD0C48C068C468201DAD
:103E300000F0EFFC0A480068401E09490860094884
:103E40000068401E0749086000F070FD204600F041
:103E50005EF8044800680028E4D110BDD0110020AD
:103E6000280100202401002070B504460D46206C76
:103E700070B1216CE0680844E0606168E0688842E5
:103E800001D32068E0602846226CE168FCF7BAF9AB
:103E900070BD2DE9F04104460F4615464FF000086D
:103EA000A66B206C40B9206860BB606801F0D6FC4E
:103EB00080460020606025E07DB93946226CA0680C
:103EC000FCF7A0F9216CA0680844A060D4E90110B7
:103ED000884217D32068A06014E03946226CE0685D
:103EE000FCF790F9216CE068401AE0602168E06816
:103EF000884203D2216C6068401AE060022D01D133
:103F000006B1761E701CA0634046BDE8F08110B576
:103F1000044694F85D0030B9206B00F025FD204682
:103F200000F022FD1AE094F85D00012803D120463C
:103F300000F01AFD12E094F85D00022801D1012082
:103F400000E0002050B900BF502080F31188BFF37B
:103F50004F8FBFF36F8F00BF00BFFEE710BD0000A3
:103F60000146084A126812680AB9012200E00022DC
:103F70000A600A6822B9034A1268D268106800E031
:103F8000002070475C01002030B54FF48053174883
:103F900000F007042CB1C01D20F00700134C041BD7
:103FA0001B1B0246124C22600024114D6C60D0187D
:103FB000083820F007000F4C206000240D4D2D68BC
:103FC0006C600C4D2D682C601146441A4C60094CF5
:103FD00024680C60084D4C682C60084D4C682C60BF
:103FE0004FF00044064D2C6030BD0000D019002079
:103FF000740100207C010020840100208001002049
:104000008801002000BFFFF70BFF06480068012869
:10401000F9D94FF0805004490860BFF34F8FBFF3C8
:104020006F8FF0E7340D002004ED00E02DE9F04142
:1040300006460D4617469846069C0DB9246000E0DA
:104040002760E66325640121204600F0C5FF84F85F
:104050004C80BDE8F0812DE9F05F82460F46904626
:104060009B460A9E0C9C4FEA8801A522206BFCF718
:10407000DBF8A8F10100216B01EB800929F00709A9
:1040800009F0070008B9012000E0002050B900BF86
:10409000502080F31188BFF34F8FBFF36F8F00BFA5
:1040A00000BFFEE7002507E0795D04F134004155CB
:1040B000785D00B902E06D1C102DF5D300BF002122
:1040C00043200155382E00D33726E662E6640020EF
:1040D0002065201D00F0D7FB04F1180000F0D3FB91
:1040E0002461C6F13800A061646200206065A065AB
:1040F00084F85C005A465146484600F041FB206077
:104100000B9808B10B980460BDE8F09F10B500242F
:1041100007E004EB84010F4A02EB810000F0A6FBEC
:10412000641C382CF5D30C4800F0A0FB0B4800F0C1
:104130009DFB0B4800F09AFB0A4800F097FB0A48E9
:1041400000F094FB044809490860044808490860E5
:1041500010BD0000340D002094110020A811002093
:10416000BC110020D0110020E41100201C0100200F
:104170002001002010B50146164800E000680368E1
:104180008B42FBD30246436813448B4204D14368FD
:104190004C682344436001460A464B681344046854
:1041A000A34211D10C4C03682468A34208D04B6889
:1041B0000468646823444B6003681B680B6005E077
:1041C000054B1B680B6001E003680B60884200D060
:1041D000016010BD740100207C0100202DE9F04138
:1041E00004460D4616461F464FF0000865602461E0
:1041F000B5420CD8F01BA169884202D34FF00108E8
:1042000011E0211D0948006800F040FB0BE0BE42B0
:1042100004D2BD4202D34FF0010804E0211D04483E
:10422000006800F033FB4046BDE8F08160010020EB
:104230005C01002070B5054600F04EFBA86B08B984
:10424000012400E0002400F071FB204670BD70B531
:10425000054600F041FBA86BE96B884201D10124BF
:1042600000E0002400F062FB204670BDF8B5054672
:104270000F4616480068C068C468201D00F0C9FADF
:10428000E06901281DD1A06941192B463A46204614
:10429000FFF7A4FFA8B1002003462A46014600907C
:1042A000204601F037FC064656B900BF502080F387
:1042B0001188BFF34F8FBFF36F8F00BF00BFFEE7C2
:1042C00000BF2046616A8847F8BD00005C010020FD
:1042D000F0B587B082E00398002811DA04AE56B931
:1042E00000BF502080F31188BFF34F8FBFF36F8F53
:1042F00000BF00BFFEE7D6E90020B168904700BFCD
:10430000039800286ADB059C606908B9012000E079
:10431000002010B9201D00F07CFA02A800F0C0F8BF
:10432000054603980A2857D2DFE800F0090507314F
:10433000334F0608323400BF00BF00BF00BF0498EF
:10434000A269811803462A462046FFF747FFE8B1D5
:104350002046616A8847E069012817D10020009053
:104360000498A169421800231946204601F0D2FBA7
:10437000074657B900BF502080F31188BFF34F8F15
:10438000BFF36F8F00BF00BFFEE700BF25E000BF97
:1043900023E000BF0498A061A06908B1012000E0FB
:1043A000002050B900BF502080F31188BFF34F8F19
:1043B000BFF36F8F00BF00BFFEE7A06941192B4616
:1043C0002A462046FFF70AFF07E094F82C0010B9B0
:1043D000204600F0C9FA00E000BF00BF002203A998
:1043E0000448006800F094FF00287FF474AF07B021
:1043F000F0BD000064010020F8B505460C4600F051
:1044000063FC684600F04CF80646009820BB44B9AF
:10441000B54206D801F0C0FA31462846FFF726FF1C
:104420001CE03CB10E480068006808B9012000E0BB
:1044300000200446A91B22460A48006800F044FBFD
:1044400001F0AAFA50B94FF0805007490860BFF355
:104450004F8FBFF36F8F01E001F09EFAF8BD0000AF
:10446000600100206401002004ED00E00A490968B1
:10447000096809B9012100E0002121B14FF0FF31A5
:10448000064A116006E004490968C968C868034A19
:1044900041681160704700001C01002048010020A5
:1044A00070B5044601F032F90546074800688542B8
:1044B00004D200F00BF80120206001E00020206011
:1044C00001480560284670BD6C0100202DE9F843C5
:1044D00032E024480068C068056822480068C06867
:1044E000C468201D00F095F92046616A8847E0699C
:1044F000012821D1A0694619AE4207D9666024611E
:10450000211D1848006800F0C1F915E0002003469D
:104510002A4601460090204601F0FCFA074657B9AA
:1045200000BF502080F31188BFF34F8FBFF36F8F10
:1045300000BF00BFFEE700BF0A480068006808B976
:10454000012000E000200028C3D00648D0F80080F9
:1045500005480068034908600348C0F80080BDE8CA
:10456000F88300005C010020600100200E48006814
:10457000401C08B9012000E0002050B900BF5020C5
:1045800080F31188BFF34F8FBFF36F8F00BF00BF61
:10459000FEE700BF502080F31188BFF34F8FBFF3B9
:1045A0006F8F00BF00BFFEE78C01002008B500BF81
:1045B0006846FFF7D5FC044620460099FFF71CFF2C
:1045C000FFF786FEF4E770B5044600F085F994F92C
:1045D000455010E0606A08B9012000E0002038B9B9
:1045E00004F1240001F08CF918B100F0CDFA00E0DC
:1045F00003E0681E45B2002DECDC00BFFF2084F80C
:10460000450000F093F900F067F994F9445010E088
:10461000206908B9012000E0002048B904F1100029
:1046200001F06EF908B100F0AFFA681E45B200E083
:1046300001E0002DECDC00BFFF2084F8440000F016
:1046400075F970BD2DE9F04104464FF0000800F007
:104650003BFB4648006808B9FFF796FC44480068F1
:10466000204000286BD1D4B1083404F00700B0B169
:1046700004F00700C0F10800044404F0070008B982
:10468000012000E0002050B900BF502080F31188C5
:10469000BFF34F8FBFF36F8F00BF00BFFEE7002C4B
:1046A0004DD034480068844249D8334E30460568BE
:1046B00001E02E462D686868A04202D228680028D2
:1046C000F7D12A480068854239D0306800F10808DF
:1046D000286830606868001B102819D92F1907F066
:1046E000070008B9012000E0002050B900BF5020A9
:1046F00080F31188BFF34F8FBFF36F8F00BF00BFF0
:10470000FEE76868001B78606C603846FFF732FD92
:10471000184968680968081A164908600846006858
:1047200016490968884203D2124800681349086094
:104730000F4968680968084368600020286001F034
:104740002BF908F0070008B9012000E0002050B95B
:1047500000BF502080F31188BFF34F8FBFF36F8FDE
:1047600000BF00BFFEE74046BDE8F0817C010020AD
:1047700088010020800100207401002084010020B5
:10478000001F4FF080730360001F21F001030360DE
:10479000001F034B0360143802602038704700008C
:1047A0006D4500080021C0F89011C0F894117047C1
:1047B00010B50246D1F89401D1F89031984202D157
:1047C0004FF0FF3010BDD1F8940111F820001070A7
:1047D000D1F89401401C6423B0FBF3F403FB1400F4
:1047E000C1F894010020EDE730B50246D1F8900100
:1047F000401C6424B0FBF4F504FB1503D1F89401CC
:10480000984205D0D1F8900141F82020C1F89031AC
:1048100030BD01460A69D1E901309860D1E9010350
:1048200058605068884201D1886850600020086153
:104830001068401E1060106870470000034B036052
:10484000034B0B608023136070470000101300209F
:1048500070130020034B0360034B0B604FF4807315
:104860001360704770150020D015002000F108017A
:1048700041604FF0FF31816000F10801C1600161CA
:1048800000210160704700210161704710B50246A8
:104890000B685C1C0CB9106907E002F1080000E02D
:1048A0004068446824689C42FAD944684C604C686B
:1048B000A160886041600A611468641C146010BDC6
:1048C00042684A6093688B609368596091600861A0
:1048D00003685B1C0360704700BF502080F31188A1
:1048E000BFF34F8FBFF36F8F00BF0E480068401CAF
:1048F0000C49086008460068012812D10A4800687F
:10490000C0B208B9012000E0002050B900BF50201B
:1049100080F31188BFF34F8FBFF36F8F00BF00BFCD
:10492000FEE770478C01002004ED00E00D480068B0
:1049300050B900BF502080F31188BFF34F8FBFF3F1
:104940006F8F00BF00BFFEE706480068401E0549A4
:1049500008600846006820B9002080F3118800BF75
:1049600000BF70478C01002070B506463546002E0A
:104970003FD0083D2C461F4960680968084008B1CF
:10498000012000E0002050B900BF502080F31188C2
:10499000BFF34F8FBFF36F8F00BF00BFFEE72068EC
:1049A00008B9012000E0002050B900BF502080F37A
:1049B0001188BFF34F8FBFF36F8F00BF00BFFEE7BB
:1049C0000C4960680968084098B1206888B90949AD
:1049D000606809688843606000F076F9064960689D
:1049E00009680844044908602046FFF7C3FB00F04B
:1049F000D3FF70BD880100208001002000204FF00F
:104A0000E02108618861064800684FF47A71B0FBC4
:104A1000F1F0401E4FF0E021486107200861704727
:104A20002000002070B5FBF7D7FB0446102C16D3EE
:104A300004F1E02090F8F05315480078854201DB3E
:104A4000012000E0002050B900BF502080F3118801
:104A5000BFF34F8FBFF36F8F00BF00BFFEE70D485E
:104A6000006800F4E0600C490968884201D8012020
:104A700000E0002050B900BF502080F31188BFF340
:104A80004F8FBFF36F8F00BF00BFFEE770BD000008
:104A9000900100200CED00E094010020024600206F
:104AA0000BE0084B53F8303033B9064B43F8301065
:104AB00003EBC0035A6002E0401C0828F1D300BF9A
:104AC00070470000F40C00202DE9F04105460E4629
:104AD00017462C46FFF700FF94F94400401C10B91C
:104AE000002084F8440094F94500401C10B90020CF
:104AF00084F84500FFF71AFFA06B28B93A46314603
:104B000004F1240000F062F82046FFF75CFDBDE8E8
:104B1000F081000070B504460025D4B11248006849
:104B200008B9012000E0002050B900BF502080F3F8
:104B30001188BFF34F8FBFF36F8F00BF00BFFEE739
:104B400000F0C2F800212046FFF796F800F024FF9D
:104B500005463DB94FF0805004490860BFF34F8FC0
:104B6000BFF36F8F70BD00005001002004ED00E026
:104B70000349096801600349096841607047000002
:104B8000400100202C0100200120014908607047ED
:104B90003C01002070B504460D4654B900BF5020BA
:104BA00080F31188BFF34F8FBFF36F8F00BF00BF3B
:104BB000FEE70548016818312046FFF767FE01212E
:104BC0002846FFF759F870BD1801002070B505465A
:104BD0000E46144655B900BF502080F31188BFF32C
:104BE0004F8FBFF36F8F00BF00BFFEE7064801681D
:104BF00018312846FFF764FE0CB14FF0FF3621460E
:104C00003046FFF739F870BD1801002010B586B0A6
:104C100000200590049003AA04A905A8FFF70EFE42
:104C20000022DDE904101346CDE9002102901FA106
:104C30002048039A00F0FEFC1F49086008460068FF
:104C400008B1012400E00024012C02D100F026FF6D
:104C50000446012C17D100BF502080F31188BFF308
:104C60004F8FBFF36F8F00BF4FF0FF3013490860C5
:104C7000012013490860002012490860FEF7CCFDAE
:104C800000F090F810E0601C08B1012000E0002066
:104C900050B900BF502080F31188BFF34F8FBFF38E
:104CA0006F8F00BF00BFFEE706B010BD49444C4502
:104CB00000000000054000084C01002048010020D1
:104CC000340100202C01002002480068401C0149EA
:104CD000086070475001002010B52B48006818B1DB
:104CE00001202A4908604EE0002028490860FEF7AC
:104CF000A9FD2749086008460068264909688842D6
:104D00000BD92549096801F15400496D204A126800
:104D1000204B1B68D21A114401601D4800681D49D0
:104D200008601E4801680CE051B900BF502080F3B4
:104D30001188BFF34F8FBFF36F8F00BF00BFFEE737
:104D4000491E01EB8100164A52F8200008B90120E3
:104D500000E000200028E7D101EB8102104B03EBBB
:104D6000820042685268426000F108024368934240
:104D700002D14268526842604268D268064B1A60AB
:104D80000648016000BF10BD500100203C0100201A
:104D9000580100205401002018010020300100209B
:104DA000340D00201CB53849084600780190FF20DA
:104DB0000A4610700846007800909DF8000000F048
:104DC000F0009DF80020904201D1012000E0002079
:104DD00050B900BF502080F31188BFF34F8FBFF34D
:104DE0006F8F00BF00BFFEE79DF8000000F050008D
:104DF000264A10700720264A106009E024480068FF
:104E0000401E234A10609DF800004006000E0090EE
:104E10009DF8000000F080008028EFD01C4800685A
:104E2000C0F10700042801D1012000E0002050B9A2
:104E300000BF502080F31188BFF34F8FBFF36F8FF7
:104E400000BF00BFFEE7124800680002104A106071
:104E50001046008800F4E06010600B4A0198107062
:104E60000C48006840F470000A4908600846006871
:104E700040F070400860FFF7C1FD0020064908605F
:104E8000FBF774F900201CBD00E400E09001002055
:104E90009401002020ED00E08C0100202DE9F84372
:104EA00005460E4690460DB1012000E0002050B9A5
:104EB00000BF502080F31188BFF34F8FBFF36F8F77
:104EC00000BF00BFFEE70EB9002701E005FB06F7B3
:104ED00007F15000FFF7B6FB04465CB104F150093E
:104EE000002084F8460043464A463146284600944E
:104EF000FFF79CF82046BDE8F8832DE9F84380468B
:104F00000E4617461D46DDF82090B8F1000F01D07F
:104F1000012000E0002050B900BF502080F311882C
:104F2000BFF34F8FBFF36F8F00BF00BFFEE70DB120
:104F3000012000E0002050B900BF502080F311880C
:104F4000BFF34F8FBFF36F8F00BF00BFFEE707B106
:104F50000EB1012000E0002050B900BF502080F3C6
:104F60001188BFF34F8FBFF36F8F00BF00BFFEE705
:104F700007B90EB9012000E0002050B900BF502051
:104F800080F31188BFF34F8FBFF36F8F00BF00BF57
:104F9000FEE7502000900098502801D1012000E049
:104FA000002050B900BF502080F31188BFF34F8F0D
:104FB000BFF36F8F00BF00BFFEE72C464CB101204E
:104FC00084F846004B463A46314640460094FFF787
:104FD0002DF82046BDE8F88370B505460E462C46F0
:104FE00054B900BF502080F31188BFF34F8FBFF337
:104FF0006F8F00BF00BFFEE7FFF76EFCD4E90F1212
:10500000206801FB020060600020A0632068A060AF
:10501000E06B401E226C216800FB0210E060FF2064
:1050200084F8440084F845009EB9206908B901203D
:1050300000E00020A8B904F1100000F061FC80B18C
:105040004FF0805009490860BFF34F8FBFF36F8F57
:1050500007E004F11000FFF709FC04F12400FFF75A
:1050600005FCFFF763FC012070BD000004ED00E0CB
:105070002DE9FF4383B0064688461D464FF00009E0
:10508000344654B900BF502080F31188BFF34F8FCE
:10509000BFF36F8F00BF00BFFEE7B8F1000F01D173
:1050A000206C08B9012000E0002050B900BF50205A
:1050B00080F31188BFF34F8FBFF36F8F00BF00BF26
:1050C000FEE7022D02D1E06B012801D1012000E0B2
:1050D000002050B900BF502080F31188BFF34F8FDC
:1050E000BFF36F8F00BF00BFFEE700F0FFFA08B903
:1050F000059808B9012000E0002050B900BF5020F9
:1051000080F31188BFF34F8FBFF36F8F00BF00BFD5
:10511000FEE700BFFFF7E0FBA06BE16B884201D325
:10512000022D28D12A4641462046FEF7B2FE074608
:10513000606A08B9012000E0002068B904F1240089
:1051400000F0DEFB88B14FF0805032490860BFF3B9
:105150004F8FBFF36F8F08E03FB14FF080502D4964
:105160000860BFF34F8FBFF36F8FFFF7DFFB0120A6
:1051700007B0BDE8F083059818B9FFF7D7FB00200A
:10518000F6E7B9F1000F04D101A8FFF7F1FC4FF0E9
:105190000109FFF7CBFBFFF797FDFFF79DFB94F9A4
:1051A0004400401C10B9002084F8440094F94500E4
:1051B000401C10B9002084F84500FFF7B7FB05A993
:1051C00001A800F0BFF9F0B92046FFF740F8A0B100
:1051D00004F110000599FFF7DDFC2046FFF7F3F915
:1051E00000F0DAFB002895D14FF0805009490860A3
:1051F000BFF34F8FBFF36F8F8CE72046FFF7E3F9C4
:1052000000F0CAFB86E72046FFF7DDF900F0C4FB9B
:105210000020ADE704ED00E02DE9F05F07468A4687
:1052200090461E463C4654B900BF502080F311887A
:10523000BFF34F8FBFF36F8F00BF00BFFEE7BAF120
:10524000000F01D1206C08B9012000E0002050B906
:1052500000BF502080F31188BFF34F8FBFF36F8FD3
:1052600000BF00BFFEE7022E02D1E06B012801D192
:10527000012000E0002050B900BF502080F31188C9
:10528000BFF34F8FBFF36F8F00BF00BFFEE7FFF785
:10529000C9FB00BF5021EFF3118081F31188BFF3E8
:1052A0004F8FBFF36F8F00BF0546A06BE16B884245
:1052B00001D3022E23D194F945B0324651462046FF
:1052C000FEF7E7FD0BF1010088B9606A08B901201B
:1052D00000E0002080B904F1240000F011FB58B177
:1052E000B8F1000F08D00120C8F8000004E00BF16D
:1052F000010040B284F845004FF0010901E04FF091
:10530000000900BF85F3118800BF4846BDE8F09F43
:105310002DE9F74183B005460E464FF000082C46B4
:1053200054B900BF502080F31188BFF34F8FBFF3F3
:105330006F8F00BF00BFFEE70EB9206C08B90120D7
:1053400000E0002050B900BF502080F31188BFF367
:105350004F8FBFF36F8F00BF00BFFEE700F0C6F9AD
:1053600008B9059808B9012000E0002050B900BF35
:10537000502080F31188BFF34F8FBFF36F8F00BFB2
:1053800000BFFEE700BFFFF7A7FAA76BF7B13146F2
:105390002046FEF769FD781EA063206908B9012048
:1053A00000E0002060B904F1100000F0A9FA38B163
:1053B0004FF080502F490860BFF34F8FBFF36F8FBE
:1053C000FFF7B4FA012006B0BDE8F081059818B9DE
:1053D000FFF7ACFA0020F6E7B8F1000F04D101A8FE
:1053E000FFF7C6FB4FF00108FFF7A0FAFFF76CFCD0
:1053F000FFF772FA94F94400401C10B9002084F8B9
:10540000440094F94500401C10B9002084F8450080
:10541000FFF78CFA05A901A800F094F8F0B920462E
:10542000FEF708FFA0B104F124000599FFF7B2FBD5
:105430002046FFF7C8F800F0AFFA0028A3D14FF0DC
:1054400080500C490860BFF34F8FBFF36F8F9AE70E
:105450002046FFF7B8F800F09FFA94E72046FFF7E0
:10546000B2F800F099FA2046FEF7E4FE00288AD050
:105470000020A8E704ED00E02DE9F05F064689462C
:105480001746344654B900BF502080F31188BFF34B
:105490004F8FBFF36F8F00BF00BFFEE7B9F1000F62
:1054A00001D1206C08B9012000E0002050B900BFF4
:1054B000502080F31188BFF34F8FBFF36F8F00BF71
:1054C00000BFFEE7FFF7AEFA00BF5021EFF31180F7
:1054D00081F31188BFF34F8FBFF36F8F00BF054675
:1054E000D4F838A0BAF1000F22D094F944B049465C
:1054F0002046FEF7B9FCAAF10100A0630BF1010000
:1055000070B9206908B9012000E0002068B904F1F1
:10551000100000F0F5F940B13FB10120386004E01F
:105520000BF1010040B284F844004FF0010801E0A3
:105530004FF0000800BF85F3118800BF4046BDE86A
:10554000F09F000070B505460C4655B900BF5020CD
:1055500080F31188BFF34F8FBFF36F8F00BF00BF81
:10556000FEE754B900BF502080F31188BFF34F8F7E
:10557000BFF36F8F00BF00BFFEE7FFF7ADF9124822
:1055800002686868131A2068401C08B9002617E0F2
:105590000E4928680968884204D06868904201D89A
:1055A00001260DE02068984207D92068C01A2060C3
:1055B0002846FFF7DDFA002602E0002020600126E1
:1055C000FFF7B4F9304670BD2C01002040010020E7
:1055D0002DE9FF4F85B0804689461746DDE912ABBD
:1055E000B800FFF72FF8064656B16020FFF72AF8FB
:1055F00004460CB1266304E03046FFF7B5F900E03D
:1056000000248CB1002084F85D00CDE900ABCDE929
:1056100002403A4649464046089BFEF71CFD20469C
:10562000FEF768FB012501E04FF0FF35284609B081
:10563000BDE8F08F2DE9F04F85B0074688469146CA
:105640009A46DDE90EB6109C0EB1012000E0002064
:1056500050B900BF502080F31188BFF34F8FBFF3C4
:105660006F8F00BF00BFFEE70CB1012000E00020FB
:1056700050B900BF502080F31188BFF34F8FBFF3A4
:105680006F8F00BF00BFFEE7602003900398602883
:1056900001D1012000E0002050B900BF502080F36C
:1056A0001188BFF34F8FBFF36F8F00BF00BFFEE7BE
:1056B000B4B1AEB125462C462E63022085F85D00BC
:1056C000002004A953464A46CDE900B1CDE9025075
:1056D00041463846FEF7BFFC2846FEF70BFB01E0CB
:1056E00000200490049805B0BDE8F08F05490968D2
:1056F00009B9012005E00449096809B9022000E060
:105700000020704734010020500100200149086842
:10571000704700002C0100202DE9F0414FF00008F7
:1057200043480068002876D142480068451C41483B
:10573000056015BB40480068006808B9012000E01A
:10574000002050B900BF502080F31188BFF34F8F65
:10575000BFF36F8F00BF00BFFEE7374807683748C9
:105760000068354908603548076035480068401CC6
:1057700033490860FEF77AFE00BF32480068854270
:105780003BD300BF2C480068006808B9012000E046
:10579000002020B14FF0FF302A4908602CE0264855
:1057A0000068C068C4686668B54202D225480660D1
:1057B00022E0201DFFF72DF8A06A18B104F11800AF
:1057C000FFF727F82049E06A0968884202D91E4994
:1057D000E06A0860E16A01EB81011C4A02EB81008A
:1057E000211DFFF76DF81A49E06A0968C96A884205
:1057F000C8D34FF00108C5E700BF15480068C06A6C
:1058000000EB8000114951F82000012801D94FF028
:10581000010805E0FFE70F480068401C0D490860DB
:105820000D48006808B14FF001084046BDE8F0811E
:10583000500100202C0100201C010020200100202C
:10584000400100204801002030010020340D0020DC
:1058500018010020380100203C01002070B50546E9
:105860002C460026002D43D022480068844201D1F6
:10587000012000E0002050B900BF502080F31188C3
:10588000BFF34F8FBFF36F8F00BF00BFFEE7206DE8
:1058900050B900BF502080F31188BFF34F8FBFF382
:1058A0006F8F00BF00BFFEE7206D401E2065E16CDA
:1058B000E06A88421CD0206DD0B9201DFEF7A9FFF8
:1058C000E06CE062E06AC0F13800A0610A49E06A79
:1058D0000968884202D90849E06A0860E16A01EB78
:1058E0008101064A02EB8100211DFEF7E9FF012636
:1058F000304670BD1801002030010020340D00201A
:1059000070B50646F068C46854B900BF502080F3F3
:105910001188BFF34F8FBFF36F8F00BF00BFFEE74B
:1059200004F11800FEF775FF15480068A0B9201DA6
:10593000FEF76FFF1349E06A0968884202D91149EE
:10594000E06A0860E16A01EB81010F4A02EB810025
:10595000211DFEF7B5FF04E004F118010B48FEF726
:10596000AFFF0B49E06A0968C96A884204D901257A
:1059700001200849086000E00025284670BD0000AD
:105980005001002030010020340D0020BC11002007
:10599000180100203C01002070B500240026364884
:1059A000006850B900BF502080F31188BFF34F8FBB
:1059B000BFF36F8F00BF00BFFEE7FEF78DFF2E48DD
:1059C0000068401E2C4908600846006800284ED137
:1059D0002A48006800284AD023E02948C068C468E3
:1059E00004F11800FEF715FF201DFEF712FF2549F0
:1059F000E06A0968884202D92249E06A0860E16ADF
:105A000001EB8101204A02EB8100211DFEF758FFC6
:105A10001E49E06A0968C96A884202D301201C490C
:105A200008601748006808B9012000E0002000283D
:105A3000D3D00CB1FEF71AFD1648056865B100BF5A
:105A4000FFF76AFE10B10120114908606D1E002D9C
:105A5000F6D100200F4908600D48006838B10126D2
:105A600030070D490860BFF34F8FBFF36F8FFEF70C
:105A70005DFF304670BD000050010020280100206D
:105A8000BC11002030010020340D0020180100203E
:105A90003C0100203801002004ED00E010B586B084
:105AA0000024FEF783F916480068D0B10020059065
:105AB000049003AA04A905A8FEF7CCFE0222DDE9A2
:105AC00004100023CDE9002102900EA10F48039A93
:105AD000FFF7B0FD0E4908600846006800B10124D8
