:020000040800F2
:10000000081200204901000899230008831F0008F6
:1000100095230008DB050008C12D00080000000042
:10002000000000000000000000000000FD270008A4
:10003000CD060008000000007F270008E528000822
:100040006301000863010008630100086301000800
:1000500063010008630100086301000863010008F0
:10006000630100084B0A0008550A000863010008F4
:1000700063010008630100086301000863010008D0
:1000800063010008630100086301000863010008C0
:1000900063010008630100086301000863010008B0
:1000A00063010008630100086301000863010008A0
:1000B0006301000863010008630100086301000890
:1000C0006301000863010008630100086301000880
:1000D000630100086301000863010008312D000876
:1000E0006301000863010008630100086301000860
:1000F0006301000863010008630100086301000850
:10010000630100086301000863010008630100083F
:10011000630100086301000863010008630100082F
:10012000630100086301000863010008630100081F
:10013000DFF810D000F0A0F800480047F9310008BF
:10014000AFF30080081200200648804706480047A9
:10015000FEE7FEE7FEE7FEE7FEE7FEE7FEE7FEE777
:10016000FEE7FEE7532900083101000840EA0103D9
:100170009B0703D009E008C9121F08C0042AFAD25D
:1001800003E011F8013B00F8013B521EF9D2704721
:10019000D2B201E000F8012B491EFBD270470022C9
:1001A000F6E710B513460A4604461946FFF7F0FF76
:1001B000204610BD30B505462A460B4612F8010B05
:1001C00013F8014B08B1A042F8D01CB1002802D0AE
:1001D0006D1CF1E7284630BD10B5044604E00B78ED
:1001E00000F8013B03B1491C521EF8D2204610BD55
:1001F000421C10F8011B0029FBD1801A704710B572
:10020000002200E0521C835C8C5CA34201D1002BD5
:10021000F8D1D8B2E1B2401A10BD034611F8012B53
:1002200000F8012B002AF9D11846704730B5054671
:100230000020034600E05B1C934205D2EC5CC85CE6
:10024000201A01D1002CF6D130BD30B50B46014645
:1002500000202022012409E021FA02F59D4205D365
:1002600003FA02F5491B04FA02F52844151EA2F10F
:100270000102F1DC30BD0000064C074D06E0E068ED
:1002800040F0010394E8070098471034AC42F6D3DD
:10029000FFF752FFB44C0008D44C00082DE9F0439E
:1002A0008DB007460E4600242B48006881682A4816
:1002B000006888473846FFF79BFF8146264800685C
:1002C0004A463946C368244800689847224800686F
:1002D000022222A1C368204800689847394620A01E
:1002E00002F0E8FD01F012FF804631E00DEB040161
:1002F00019480068026918480068904708BB1DF853
:1003000004101CA002F0D6FDD4B1601E1DF8000040
:100310000D2815D11DF804000A2811D1611C68466A
:1003200002F04EFF18B100200DB0BDE8F083611C53
:10033000684602F029FF10B14FF0FF30F4E70024C7
:10034000641C01F0E3FE0546454501DD761EA84626
:10035000002ECBD1B01EE7E7000100200D0A0000FF
:1003600053656E6420636F6D6D616E643A25730D25
:100370000A000000256300002DE9F05F80468946F1
:1003800017464D4600242A480068816828480068BE
:1003900088474046FFF72CFF8346254800685A46A9
:1003A0004146C368224800689847214800680222F5
:1003B00020A1C3681E480068984741461EA002F06D
:1003C00079FD01F0A3FE82462EE029191848006845
:1003D0000269174800689047F8B9295D1BA002F030
:1003E00069FDCCB1601E285C0D2815D1285D0A2856
:1003F00012D1611C284602F0E3FE28B10021601CE6
:1004000029540020BDE8F09F611C284602F0BCFE84
:1004100010B14FF0FF30F5E7641C01F077FE06469F
:10042000564501DD7F1EB246002FCED1B81EE9E74A
:10043000000100200D0A000053656E6420636F6D9B
:100440006D616E643A25730D0A000000256300009B
:100450002DE9F04F8FB082460E4617464FF0000B45
:100460000024A046A14601F051FE019054E002A8EC
:1004700001192B4800680269294800689047002844
:1004800042D1BBF1000F06D0BBF1010F12D0BBF17E
:10049000020F38D128E0002102AA601C115421A1CA
:1004A00002A8FFF787FE18B14FF0010B002400E00F
:1004B000641C28E002A8005D3A2813D14FF000091F
:1004C0000AE002A810F8090008EB880100EB4100DF
:1004D000A0F1300809F10109A145F2DB4FF0020B50
:1004E000002400E0641C0EE002A8005D0AF804008D
:1004F000641C444506D10EB1C6F8008000200FB040
:10050000BDE8F08F00BF00BF01F000FE0546019975
:100510008D4201DD7F1E0195002FA8D1B81EEEE7A8
:10052000000100202B4950442C00000010B506A00B
:1005300000F0B2FA064908600846006841680448BD
:100540000068884710BD00007561727433000000B8
:100550000001002010B5024800F0BAF810BD0000FC
:100560008400002010B5FFF7F5FF10BD10B500F0B6
:1005700003F800F009F810BD10B5024801F0AEFD17
:1005800010BD00002000002010B5024801F0A6FDBB
:1005900010BD00004400002010B5024801F0FEFE2E
:1005A00010BD0000C000002010B5FFF7F5FF10BD22
:1005B000A8B001F0E8FC02F005FC00F091F80BE0B7
:1005C00001A800F075FA38B90FA901A800F034F8B5
:1005D00010B90FA802F01AF9F2E700BFFEE710B554
:1005E0000446204600F0ACFB10BD10B501F0B4FD90
:1005F00010BD10B500F0B8FD10BD70B504460D4635
:100600002946204600F0FCFD70BD014600207047E1
:1006100010B5044601F0D2FF10BD10B5044601F03C
:1006200059FF002010BD70B504460D4629462046EE
:1006300002F0B0FB002070BD70B504460D46207975
:10064000022806D104F118012846FFF7E6FD002034
:1006500070BD2079B8B9606910B14FF0FF30F7E78D
:100660002069012804D109A12846FFF7D6FD0AE038
:100670002069022804D10DA12846FFF7CEFD02E033
:100680004FF0FF30E4E70020E2E700007B226465E2
:1006900076223A226C616D7031222C22737461745F
:1006A0007573223A2232227D000000007B226465AD
:1006B00076223A226C616D7032222C22737461743E
:1006C0007573223A2232227D00000000704700003C
:1006D00002490968016201490860704780000020F2
:1006E00030B58DB040F2D24516A000F01FFA044696
:1006F00008A92046E26A904728B92A4608A913A00B
:1007000002F0D8FB04E018A002F0D4FB0DB030BD1D
:1007100008AA19A1684602F0DDFB0C236A461946B7
:10072000022001F0EFFF2A4615A1684602F0D2FB35
:100730000C236A461821022001F0E4FF01F03EFF7D
:1007400000BFE3E74553503832363600426F6172DE
:1007500064204950203D2025732C20706F72742036
:100760003D2025640D0A0000476574496E666F20C0
:100770006572726F720D0A0049503A2573000000CD
:10078000506F72743A25640070B508A5FFF7EAFE51
:10079000284600F087F904462046A1698847616928
:1007A0006068FFF7FCFC01F009FF70BD4F4C454449
:1007B0000000000010B50446024903A0FFF76EFDDB
:1007C00010BD0000A086010041542B434950434C0A
:1007D0004F53450070B59AB006460C4615462B4659
:1007E000224605A101A802F075FB084901A8FFF700
:1007F00055FD1AB070BD000041542B43574A41507B
:100800003D222573222C222573220000A0860100A0
:1008100070B59AB005460E461446224604A101A8BA
:1008200002F058FB0D4901A8FFF738FD1AB070BD62
:1008300041542B43495053544152543D2255445046
:10084000222C223139322E3136382E312E323434A8
:10085000222C383038312C25642C3200A08601003F
:10086000F0B58FB00746314C3148056867550068D0
:10087000401C2F4908602F48007820B1012817D06C
:10088000022850D12DE020782B2802D000202849C2
:100890000860042D0BD1052227A12046FFF7C6FCD6
:1008A00010B90120234908700020214908603AE06E
:1008B000605D3A2814D100260AE0A05D204909684D
:1008C00001EB810100EB410030381D490860761CC6
:1008D000AE42F2DB0220174908700020144908607C
:1008E00021E0134800681649096888421AD101F0CE
:1008F0000DFC019002208DF8080011482146026885
:1009000007A8FFF769FC002107A80D4A1268815467
:1009100001A801F035FF002006490870044908606D
:100920000749086000BF00BF0FB0F0BD50080020AD
:100930003C000020380000202B4950442C000000CF
:10094000400000202DE9F041B2B006460F46154A9E
:10095000694615A0FFF710FD8046B8F1000F1ED1C3
:1009600014A16846FFF726FC0446217815A002F082
:10097000A1FAA4B10E34002503E0615D301D41559C
:100980006D1C605D2228F8D10021301D4155311DBC
:100990003846FFF742FC002032B0BDE8F0814FF04E
:1009A000FF30F9E7A086010041542B4349465352DA
:1009B000000000002B43494653523A5354414950DA
:1009C0002C220000676574207468652049502073EC
:1009D000746172743A25630D0A00000010B5044674
:1009E000FFF7A4FD044905A0FFF758FC024906A043
:1009F000FFF754FC002010BDA086010041542B439A
:100A0000574D4F44453D330041542B4349504D55BC
:100A1000583D300010B5024801F0F2FE002010BD34
:100A2000610800082DE9F04107460C4615461E46B0
:100A3000324629462046FFF70BFDBDE8F08170B530
:100A40000646DDE90445002070BD10B5082000F021
:100A5000CFF910BD10B5102000F0CAF910BD00008C
:100A600010B501220021272000F03AFC272000F0D9
:100A700027FC04480068C06840F02000014909686C
:100A8000C86010BD5001002072B600BFFEE710B56F
:100A900001F038FB002010BD0146014870470000FE
:100AA000A800002010B50446204602F027FA10BD29
:100AB00010B5044614B94FF0FF3010BD1248D0F8FD
:100AC00034021149D1F83012884202D14FF0FF3080
:100AD000F3E70D48D0F83402C0EBC0000A4A02EB3D
:100AE000C00138222046FFF741FB0748D0F8340206
:100AF000401C0A21B0FBF1F201FB12000249C1F8CF
:100B000034020020D9E70000180600200146012920
:100B100008DB022906DC481E00EB8000024A02EBDB
:100B2000800070470020FCE75800002010B5044604
:100B3000204602F0F7F910BD00487047700C002005
:100B40000146002291F82100022808D00420886381
:100B500000BF002081F8200000BF01207047086816
:100B6000006820F00E000B6818600868006820F02C
:100B700001000B68186091F8403001209840CB6B61
:100B80005860012081F8210000BF002081F820007A
:100B900000BF1046E2E7000070B50446002594F857
:100BA0002100022803D00420A0630125C1E02068B1
:100BB000006820F00E00216808602068006820F0BE
:100BC0000100216808605C492068884252D95A496E
:100BD00078392068884201D1012047E056496439BC
:100BE0002068884201D1102040E0534950392068E4
:100BF000884201D1801539E04F493C39206888424C
:100C000001D1801432E04C4928392068884202D151
:100C10004FF480302AE0484914392068884202D1D4
:100C20004FF4801022E044492068884201D14004FA
:100C30001CE042492068884201D1012016E03F496A
:100C400014312068884201D110200FE03B4928313F
:100C50002068884201D1801508E038493C3120687D
:100C6000884201D1801401E04FF480303349091FDC
:100C7000086051E0304978392068884201D101206C
:100C800047E02D4964392068884201D1102040E0B6
:100C9000294950392068884201D1801539E0264918
:100CA0003C392068884201D1801432E02249283939
:100CB0002068884202D14FF480302AE01E4914395E
:100CC0002068884202D14FF4801022E01A4920683F
:100CD000884201D140041CE018492068884201D1B3
:100CE000012016E0154914312068884201D11020F6
:100CF0000FE0124928312068884201D1801508E0B0
:100D00000E493C312068884201D1801401E04FF443
:100D10008030094980394860012084F8210000BFF3
:100D2000002084F8200000BF606B10B12046616B8A
:100D30008847284670BD0000800002400804024039
:100D400070B5044600F010FA06462546681C10B13E
:100D500004480078054400BF00F006FA801BA84252
:100D6000FAD370BD0800002010B58EB00446082CE0
:100D70001AD101F0CBF9009000208DF80400012079
:100D800004900821174800F0E1F908B9012000E0BB
:100D900000200590684601F0F3FC0821114800F09E
:100DA000D5F9114908701BE0102C19D101F0AEF9EA
:100DB000009000208DF804000220049010210948C2
:100DC00000F0C4F908B9012000E000200590684651
:100DD00001F0D6FC1021034800F0B8F9034908706F
:100DE0000EB010BD001801401C0000201D000020A6
:100DF00010B5044604480068204020B10248046051
:100E00002046FFF7B1FF10BD140401402DE9F8475B
:100E1000024600239C467BE14FF0010808FA03F4E8
:100E2000D1F8008008EA0400A0427DD1DFF8F4A2E6
:100E3000D1F80480A8EB0A09D0453AD014DCB8F107
:100E4000030F50D009DCB8F1000F31D0B8F1010F19
:100E50001CD0B8F1020F49D120E0B8F1110F18D021
:100E6000B8F1120F42D11EE0B9F5881F25D006DC7B
:100E7000B9F5803F20D0B9F5801F37D11AE0B9F518
:100E8000001F18D0B9F5041F30D117E0D1F80CC0FD
:100E90002DE0D1F80C8008F1040C28E0D1F80C808A
:100EA00008F1080C23E0D1F80C8008F10C0C1EE0CE
:100EB00000BF00BF00BF00BF00BF00BFD1F8088067
:100EC000B8F1000F02D14FF0040C0BE0D1F808800C
:100ED000B8F1010F03D14FF0080C146102E04FF09C
:100EE000080C546103E04FF0000C00E000BF00BFAD
:100EF000FF2801D8904601E002F104084646FF2889
:100F000002D84FEA830803E0A3F108084FEA8808F3
:100F10004746D6F800804FF00F0909FA07F928EA8A
:100F200009080CFA07F900E07AE048EA0908C6F86F
:100F30000080D1F8048008F08058B8F1805F6FD14C
:100F400000BFDFF8E481D8F8188048F00108DFF826
:100F5000D891C9F81880C846D8F8188008F0010858
:100F6000CDF8008000BF00BF4FEAB9384FEA9309BF
:100F700058F829504FEA83784FEA18794FF00F0854
:100F800008FA09F825EA0805DFF8A081424502D1F0
:100F90004FF0000824E0DFF89881424502D14FF07D
:100FA00001081DE0DFF88C81424502D14FF00208B4
:100FB00016E0DFF88481424502D14FF003080FE0CC
:100FC000DFF87881424502D14FF0040808E0DFF8ED
:100FD0007081424502D14FF0050801E04FF006084C
:100FE0004FEA83794FEA197908FA09F848EA0505C2
:100FF000DFF850814FEA930948F82950D1F804806E
:1010000008F48018B8F5801F0BD1DFF83C81D8F8C0
:10101000008048EA0008DFF83091C9F800800AE053
:1010200075E0DFF82481D8F8008028EA0008DFF8AE
:101030001891C9F80080D1F8048008F40018B8F5B8
:10104000001F0ED1DFF8008108F10408D8F80080F5
:1010500048EA0008DFF8F09009F10409C9F80080B7
:101060000DE0DFF8E48008F10408D8F8008028EAF1
:101070000008DFF8D49009F10409C9F80080D1F81C
:10108000048008F40038B8F5003F0ED1DFF8B880CE
:10109000A8F10408D8F8008048EA0008DFF8A89012
:1010A000A9F10409C9F800800DE0DFF89C80A8F1DF
:1010B0000408D8F8008028EA0008DFF88C90A9F12D
:1010C0000409C9F80080D1F8048008F48038B8F524
:1010D000803F0ED1DFF87080A8F10808D8F80080B2
:1010E00048EA0008DFF86090A9F10809C9F8008013
:1010F0000DE0DFF85480A8F10808D8F8008028EA4D
:101100000008DFF84490A9F10809C9F800805B1CC9
:10111000D1F8008028FA03F8B8F1000F7FF47CAE14
:10112000BDE8F887000011100010024000080140DF
:10113000000C014000100140001401400018014063
:10114000001C014008000140080401400246936869
:101150000B400BB1012000E0002070470AB1016193
:1011600001E00B040361704701480068704700000C
:101170000000002003480068034909780844014939
:1011800008607047000000200800002010B50848E3
:10119000006840F0100006490860032000F0DEF807
:1011A0000F2000F007F800F061F8002010BD0000EB
:1011B0000020024070B504460E4800784FF47A7162
:1011C000B1FBF0F00C490968B1FBF0F5284600F0DE
:1011D0002FFC08B1012070BD102C07D2002221463F
:1011E000501E00F07DF80548046001E00120F2E7A0
:1011F0000020F0E7080000200C0000200400002080
:1012000070B505460C4615B94FF0FF3070BD022C85
:1012100008D11448007808B9012000E000201149E5
:10122000087005E00CB9012000E000200D490870AD
:101230002868012802D002280ED106E00948027869
:1012400040210948FFF78AFF09E00648027880211B
:101250000548FFF783FF02E04FF0FF30D6E700BFFD
:101260000020D3E71E0000200020014008B500BF89
:101270001148806940F001000F4988610846806983
:1012800000F00100009000BF00BF00BF0846C06929
:1012900040F08050C8610846C06900F0805000905E
:1012A00000BF00BF00BF0549486820F0E06040F083
:1012B0000070486000BF08BD0010024000000140FF
:1012C00001460846002809DB00F01F0301229A406E
:1012D00043099B0003F1E023C3F8002100BF7047DE
:1012E0002DE9F05F80460D461646002701F02EFEE0
:1012F000074639462A46334601F00700C0F1070A7F
:10130000BAF1040F02D94FF0040A01E0C0F1070A54
:10131000D14600F1040ABAF1070F02D24FF0000AD9
:1013200001E0A0F1030AD4464FF0010A0AFA09FAD3
:10133000AAF1010A0AEA020A0AFA0CFA4FF0010BB2
:101340000BFA0CFBABF1010B0BEA030B4AEA0B04A3
:101350002146404601F002FEBDE8F09F00BF00F0CC
:101360000702064B19684FF6FF031940044B0B4365
:1013700043EA0221014B196000BF70470CED00E009
:101380000000FA0570B504460D460CB9012070BD89
:101390005A48006800F00700A8420ED2574800687B
:1013A00020F007002843554908600846006800F00F
:1013B0000700A84201D00120E9E7207800F00200F0
:1013C00002281DD1207800F00400042805D14C48E3
:1013D000406840F4E0604A494860207800F0080026
:1013E000082805D14648406840F4605044494860A8
:1013F0004348406820F0F000A16808434049486035
:10140000207800F0010078B36068012806D13C48DC
:10141000006800F4003090B90120B8E76068022845
:1014200006D13748006800F0007040B90120AEE7EF
:101430003348006800F0020008B90120A7E73048EF
:10144000406820F00300616808432D494860FFF7B9
:101450008BFE064609E0FFF787FE801B41F28831CC
:10146000884202D9032092E707E02548406800F04F
:101470000C006168B0EB810FEDD12048006800F0EE
:101480000700A8420ED91D48006820F00700284335
:101490001A4908600846006800F00700A84201D019
:1014A000012074E7207800F00400042807D11448D4
:1014B000406820F4E060E168084311494860207802
:1014C00000F00800082808D10D48406820F460505A
:1014D000216940EAC1000A49486000F03FF8084924
:1014E0004968C1F30311074A515CC84006490860C6
:1014F00006480068FFF75EFE002048E70020024033
:1015000000100240983200080C0000200400002067
:1015100001480068704700000C00002000B5FFF78C
:10152000F7FF04494968C1F30221034A515CC840EE
:1015300000BD000000100240A832000800B5FFF70F
:10154000E7FF04494968C1F3C221034A515CC8401E
:1015500000BD000000100240A832000870B5002154
:101560000022002400230020134D696801F00C05BF
:10157000F5B1042D02D0082D19D101E00F4819E072
:101580000F4DC1F38346AB5D01F4803555B10A4D73
:101590006D68C5F340450B4E725D084D5D43B5FB6C
:1015A000F2F402E0084D03FB05F4204602E000BF20
:1015B000024800BF00BF70BD0010024000127A0058
:1015C000863200089632000800093D00F8B504464E
:1015D0000CB90120F8BD207800F00100002878D077
:1015E000F848406800F00C0004280CD0F54840682A
:1015F00000F00C00082811D1F248406800F4803057
:10160000B0F5803F0AD1EF48006800F400300028B0
:101610005FD0606800285CD10120DBE700BF606814
:10162000B0F5803F06D1E748006840F48030E549D6
:10163000086028E0606858B9E248006820F480300B
:10164000E04908600846006820F4802008601AE03D
:101650006068B0F5A02F0BD1DA48006840F4802014
:10166000D84908600846006840F4803008600AE005
:10167000D448006820F48030D249086008460068E9
:1016800020F48020086000BF606888B1FFF76CFD1F
:10169000054606E0FFF768FD401B642801D90320DA
:1016A00098E7C848006800F400300028F2D010E045
:1016B000FFF75AFD054606E0FFF756FD401B64287C
:1016C00001D9032086E7BF48006800F400300028F5
:1016D000F2D1207800F00200022857D1B9484068C2
:1016E00000F00C0050B1B748406800F00C0008282A
:1016F00018D1B448406800F4803098B9B148006807
:1017000000F0020020B12069012801D0012061E72A
:10171000AC48006820F0F800616940EAC100A949BE
:10172000086033E02069E8B10120A7490860FFF7AD
:101730001BFD054606E0FFF717FD401B022801D9F7
:10174000032047E79F48006800F002000028F2D01D
:101750009C48006820F0F800616940EAC10099499E
:10176000086013E0002098490860FFF7FDFC05467B
:1017700006E0FFF7F9FC401B022801D9032029E706
:101780009048006800F002000028F2D1207800F0B4
:10179000080008282DD1A069B8B101208B49086044
:1017A000FFF7E2FC054606E0FFF7DEFC401B0228DF
:1017B00001D903200EE78348406A00F002000028A8
:1017C000F2D0012001F006F813E000207F49086004
:1017D000FFF7CAFC054606E0FFF7C6FC401B0228DF
:1017E00001D90320F6E67748406A00F0020000289D
:1017F000F2D1207800F00400042873D1002771484A
:10180000C06900F0805070B900BF6E48C06940F0F8
:1018100080506C49C8610846C06900F08050009053
:1018200000BF00BF01276A48006800F48070B0B9AB
:101830006748006840F4807065490860FFF794FCD1
:10184000054606E0FFF790FC401B642801D9032001
:10185000C0E65F48006800F480700028F2D000BF46
:10186000E068012806D15748006A40F00100554958
:10187000086227E0E06858B95248006A20F0010089
:10188000504908620846006A20F00400086219E026
:10189000E06805280BD14B48006A40F00400494934
:1018A00008620846006A40F0010008620AE0454804
:1018B000006A20F00100434908620846006A20F0EF
:1018C0000400086200BFE068A0B1FFF74DFC0546C8
:1018D00009E0FFF749FC401B41F28831884202D9F8
:1018E000032077E622E03748006A00F00200002873
:1018F000EFD012E0FFF738FC054608E0FFF734FCB4
:10190000401B41F28831884201D9032062E62D480C
:10191000006A00F002000028F0D1012F05D129480B
:10192000C06920F080502749C86100BFE069C8B392
:101930002448406800F00C00082860D0E0690228C4
:1019400048D1002020490866FFF70EFC054606E056
:10195000FFF70AFC401B022801D903203AE6194888
:10196000006800F000700028F2D1206AB0F5803FD6
:1019700007D11448406820F40030A1680843114999
:101980004860D4E9080108430E49496821F47411FC
:1019900008430C49486001200B490866FFF7E4FB47
:1019A000054607E03DE0FFF7DFFB401B022801D9B9
:1019B00003200FE60348006800F000700028F2D012
:1019C0002FE000000010024000004242800442422A
:1019D00000700040002014490866FFF7C5FB05466B
:1019E00006E0FFF7C1FB401B022801D90320F1E507
:1019F0000E48006800F000700028F2D111E0E069A4
:101A0000012800D1E6E50948466806F48031206ADD
:101A1000814204D106F47011606A814201D0012034
:101A2000D8E50020D6E50000000042420010024048
:101A300070B504462546681EB0F1807F01D30120B1
:101A40000FE0681E4FF0E02148610F214FF0FF309A
:101A500001F084FA00204FF0E0218861072008613E
:101A6000002070BD704770472DE9F84F044620688C
:101A700005682068C668206847694FF00009CA46B3
:101A800005F00F09B9F1000F0AD105F0200038B1B7
:101A900006F0200020B1204600F0D3FFBDE8F88F0B
:101AA000B9F1000F7BD007F0010018B906F490706F
:101AB000002874D005F0010030B106F4807018B130
:101AC000606C40F00100606405F0040030B107F084
:101AD000010018B1606C40F00200606405F0020083
:101AE00030B107F0010018B1606C40F00400606490
:101AF00005F0080048B106F0200010B907F0010019
:101B000018B1606C40F008006064606C002845D03B
:101B100005F0200028B106F0200010B1204600F0AA
:101B200090FF20684069C0F3801A606C00F00800E4
:101B300010B9BAF1000F2CD0204600F03CFF20680D
:101B4000406900F0400000B300BF00BF21681431BD
:101B500051E8001F21F040002168143141E80002E3
:101B6000002AF3D100BFE06B50B17748E16B4863C6
:101B7000E06BFFF711F888B1E06B416B88470DE02F
:101B80002046FFF770FF09E009E02046FFF76BFFF2
:101B900004E02046FFF767FF002060647EE7206BCB
:101BA000012877D105F01000002873D006F010004E
:101BB0000028FAD000BF0020009020680068009044
:101BC00020684068009000BF00BF2068406900F0B6
:101BD000400000285FD0E06B006840681FFA80F882
:101BE000B8F1000F55D0A08D404552DDA4F82E80ED
:101BF000E06B8069202843D000BF00BF21680C3112
:101C000051E8001F21F4807021680C3141E8000286
:101C1000002AF3D100BF00BF00BF2168143151E892
:101C2000001F21F001002168143141E80002002A60
:101C3000F3D100BF00BF00BF2168143151E8001F7D
:101C400021F040002168143141E80002002AF3D15C
:101C500000BF202084F842000020206300BF00BFA6
:101C600021680C3151E8001F21F0100021680C316F
:101C700041E80002002AF3D100BFE06BFEF760FFED
:101C800002206063A08DE28D801A81B22046FFF7AA
:101C9000E9FE03E742E0A08DE18D401A1FFA80F8CB
:101CA000E08DD0B3B8F1000F37D000BF00BF21687E
:101CB0000C3151E8001F21F4907021680C3141E88B
:101CC0000002002AF3D100BF00BF00BF2168143119
:101CD00051E8001F21F001002168143141E80002A1
:101CE000002AF3D100BF202084F8420000202063A6
:101CF00000BF00BF21680C3151E8001F21F0100027
:101D000021680C3141E80002002AF3D100BF022013
:101D1000606341462046FFF7A5FEBFE605F0800060
:101D200030B106F0800018B1204600F087FFB5E61C
:101D300005F0400030B106F0400018B1204600F038
:101D400070FEABE600BFA9E6A329000810B5044663
:101D50000CB9012010BDA06900B100E000BF94F8EB
:101D6000410028B9002084F84000204600F02AF8FD
:101D7000242084F841002068C06820F400502168C5
:101D8000C860204600F0DCFE2068006920F4904026
:101D9000216808612068406920F02A0021684861B4
:101DA0002068C06840F400502168C860002060646A
:101DB000202084F8410084F842000020606300BFC6
:101DC000C8E7000010B586B00446002002900390DA
:101DD0000490059038492068884230D100BF3748C8
:101DE000806940F48040354988610846806900F484
:101DF0008040019000BF00BF00BF0846806940F0EE
:101E0000040088610846806900F00400019000BF6A
:101E100000BF48150290022003900320059002A9FC
:101E20002748FEF7F3FF4FF48060029000200390F4
:101E30000120049002A92248FEF7E8FF3AE0214978
:101E40002068884236D100BF1C48C06940F4802019
:101E50001A49C8610846C06900F48020019000BF9B
:101E600000BF00BF0846806940F00800886108464E
:101E7000806900F00800019000BF00BF08150290C3
:101E8000022003900320059002A90F48FEF7BEFF31
:101E90004FF40060029000200390049002A90A48C9
:101EA000FEF7B4FF002211462720FFF719FA27207A
:101EB000FFF706FA06B010BD0038014000100240DE
:101EC0000008014000480040000C014070472DE927
:101ED000F84F04460E46174699464FF0000A94F80C
:101EE000410020284AD106B117B90120BDE8F88F7A
:101EF00000206064212084F84100FFF735F9824614
:101F0000A784E784A068B0F5805F04D1206910B988
:101F10000025B04602E035464FF000081BE053466E
:101F2000002280212046CDF8009000F0B7FE08B1D5
:101F30000320DBE745B9B8F80000C0F308002168CA
:101F4000486008F1020803E02878216848606D1CA9
:101F5000E08C401EE084E08C0028E0D15346002253
:101F600040212046CDF8009000F098FE08B10320F3
:101F7000BCE7202084F841000020B7E70220B5E745
:101F8000704700BFFEE710B500F03EF9FEF7FCFB1E
:101F900000F0ACF800F00AFA10BD000010B5002403
:101FA000012240211448FFF7D9F8002220211248CD
:101FB000FFF7D4F8C82000F079F8012220210E485C
:101FC000FFF7CCF80BE0641CB4F57A7F07D1002250
:101FD00020210948FFF7C2F84FF0FF3010BD402123
:101FE0000548FFF7B3F80028EDD100222021024870
:101FF000FFF7B4F80020F1E7000C014010B5012212
:1020000040210948FFF7AAF8012220210648FFF7DE
:10201000A5F8002240210448FFF7A0F80022202163
:102020000148FFF79BF810BD000C014010B50122DC
:1020300020210748FFF792F8002240210448FFF7CB
:102040008DF8012240210248FFF788F810BD0000FA
:10205000000C014070B50446002500BF20E00022BE
:1020600020211148FFF77AF804F0800028B10122FE
:1020700040210D48FFF772F804E0002240210A4891
:10208000FFF76CF86006040E012220210648FFF7D6
:1020900065F8002220210448FFF760F8681CC5B2EB
:1020A000082DDCDB70BD0000000C014008B500907D
:1020B00000BF9DF800104A1ED2B200920029F8D14C
:1020C00008BD000010B50448046802E0A06880471D
:1020D0002469002CFAD110BD34000020024909689F
:1020E00001610149086070473400002010B5FEF717
:1020F0003DFAFFF7E7FF10BD10B504462046FEF796
:102100006EFA10BD10B5FEF770FA10BD10B5FEF7EF
:1021100070FA10BD70B504460D4629462046FEF7FC
:102120006CFA70BD10B504462046FEF76EFA10BD7D
:1021300010B504462046FEF76BFA10BD10B50446F4
:102140002046FEF76AFA10BD70B504460D462946D2
:102150002046FEF768FA70BD00B585B000200190FA
:1021600002900390049000BF1D48806940F0400039
:102170001B4988610846806900F04000009000BF5C
:1021800000BF00BF0846806940F0400088610846F3
:10219000806900F04000009000BF00BF114802902D
:1021A000012003900820019001A90F48FEF72EFEA0
:1021B0001020019001A90C48FEF728FE00221146CC
:1021C0000920FFF78DF8002211460A20FFF788F852
:1021D0000920FFF775F80A20FFF772F805B000BD77
:1021E00000100240000031100018014070B5044694
:1021F0000D4629462046FFF78DFF70BD10B50446F9
:102200002046FFF78FFF10BD70B50120FEF77EFC62
:1022100004460220FEF77AFC05462046616888479E
:1022200028466968884770BD00B585B000200190D8
:1022300002900390049000BF3648806940F040004F
:10224000344988610846806900F04000009000BF72
:1022500000BF00BF0846806940F010008861084652
:10226000806900F01000009000BF00BF00BF08466A
:10227000806940F0080088610846806900F0080025
:10228000009000BF00BF00BF0846806940F4807026
:1022900088610846806900F48070009000BF00BF2C
:1022A00000BF0846806940F00400886108468069E4
:1022B00000F00400009000BF00BF0122C0211648BA
:1022C000FEF74CFF012260211448FEF747FF18205B
:1022D0000190002002900120039001A91048FEF710
:1022E00095FDC020019001200290039003200490EE
:1022F00001A90948FEF78AFD602001901120029093
:10230000002003900320049001A90448FEF77EFDFD
:1023100005B000BD0010024000200140000C01404B
:102320000018014010B50B480B4908604FF4E1302C
:102330004860002108488160C16001610C21416151
:1023400000218161C161FFF701FD08B1FEF79CFB2F
:1023500010BD0000003801400801002010B50B48F6
:102360000B4908604FF4E130486000210848816063
:10237000C16001610C21416100218161C161FFF7F0
:10238000E5FC08B1FEF780FB10BD000000480040EE
:102390005001002000BFFEE700BFFEE702490968C8
:1023A0000162014908607047BC00002010B54FF47D
:1023B000FA60FFF7A1FEFEF7F7F806A0FEF7B6FBFE
:1023C00004462046616A884710B904A000F072FDF7
:1023D00010BD00004553503832363600696E6974BE
:1023E000207375636365737366756C0D0A00000076
:1023F00010B504462046FFF79BFE10BD10B50446FD
:102400002046FFF79BFE10BD70B500240CE00025B0
:1024100006E00020074901EBC5010855681CC5B25C
:10242000802DF6DB601CC4B2082CF0DB00F0C6F88F
:1024300070BD00009801002070B50B46CE1701EB6F
:102440005676C6F3C702CE1701EB5676F610A1EB0F
:10245000C606F4B20123A340DDB20E4B03EBC0036A
:102460009B5CDB430B4E06EBC006B354094B03EBFE
:10247000C0039B5C2B43074E06EBC006B354054BD1
:1024800003EBC0039B5CDB43024E06EBC006B35478
:1024900070BD00009801002070B50A46CE1701EB10
:1024A0005676C6F3C703CE1701EB5676F610A1EBAE
:1024B000C606F4B20122A240D5B2054A02EBC00220
:1024C000D25C2A43024E06EBC006F25470BD0000F7
:1024D0009801002010B50021AE2000F034F9002151
:1024E000084600F030F90021102000F02CF90021FE
:1024F000402000F028F90021812000F024F900217B
:10250000CF2000F020F90021A12000F01CF90021CB
:10251000C82000F018F90021A62000F014F90021CD
:10252000A82000F010F900213F2000F00CF9002154
:10253000D32000F008F90021084600F004F900213A
:10254000D52000F000F90021802000F0FCF80021E7
:10255000D92000F0F8F80021F12000F0F4F8002173
:10256000DA2000F0F0F80021122000F0ECF8002151
:10257000DB2000F0E8F80021402000F0E4F8002122
:10258000202000F0E0F80021022000F0DCF800211B
:102590008D2000F0D8F80021142000F0D4F800219C
:1025A000A42000F0D0F80021A62000F0CCF80021F3
:1025B000AF2000F0C8F8FFF727FF10BD70B500246A
:1025C0001CE004F1B001C8B2002100F0BCF8002109
:1025D000084600F0B8F80021102000F0B4F80025FB
:1025E00008E0084901EBC501085D012100F0ABF8E6
:1025F000681CC5B2802DF4DB601CC4B2082CE0DB83
:1026000070BD0000980100202DE9FF4F81B0804689
:102610000E461C4600962046E31704EB5373DB106E
:1026200021464FEAE47C04EB5C7C4FEAEC0CA4EB23
:10263000CC0CBCF1000F02D04FF0010C01E04FF0C8
:10264000000C6344224604EBD27C4FEA6C0C03FB83
:102650000CF303F0FF0B03982038C7B2002547E0C6
:102660000C2C07D107EB4700234901EB800010F841
:1026700005A014E0102C05D1204800EB071010F83D
:1026800005A00CE0182C07D107EBC7001C4901EB93
:10269000800010F805A002E005B0BDE8F08F4FF013
:1026A00000091FE00AF0800020B131464046FFF7E4
:1026B000F3FE03E031464046FFF7BEFE4FEA4A60B4
:1026C0004FEA106A701CC6B20098301AA04205D1B9
:1026D000009E08F1010000F0FF0806E009F101008A
:1026E00000F0FF09B9F1080FDCDB00BF681CC5B2C0
:1026F0005D45B5DB00BFCFE7B032000824370008E6
:10270000143D0008F0B506460F4614461D4613E07A
:1027100022782B4639463046FFF776FF284605EBF0
:10272000D07106EB6101CEB2C5F18000B04202DA91
:102730000026B81CC7B2641C2078202802DB207851
:102740007E28E5DDF0BD70B505460C46FFF756FC6A
:102750007820FFF77FFCFFF721FC1CB14020FFF73A
:1027600079FC02E00020FFF775FCFFF717FC284614
:10277000FFF770FCFFF712FCFFF758FC70BD7047C5
:1027800070B504461248D0F83002401C0A21B0FB54
:10279000F1F201FB120514B94FF0FF3070BD0C4887
:1027A000D0F83402A84210D00949D1F83012C1EB58
:1027B000C101074A02EBC10038222146FDF7D6FCD1
:1027C0000348C0F830520020E8E74FF0FF30E5E75B
:1027D0001806002008B508490968C9084FF47A723C
:1027E000B1FBF2F14143009100BF00BF00994A1EC6
:1027F00000920029F9D108BD0C00002070470000AC
:102800000149086070470000100000202DE9FE43D8
:102810008046002522A14046FDF7CCFC04460CB9B9
:10282000BDE8FE83E41D002503E0605D0DF80500B2
:102830006D1C605D2228F8D100200DF80500694666
:1028400019A000F037FB1BA14046FDF7B3FC04467E
:1028500004B9E5E70A3420782D2803D160783038B0
:10286000404201E0207830388146494614A000F00B
:1028700021FB042215A16846FDF7D8FC70B915A00C
:1028800000F018FB9DF80400A0F130073846FEF771
:102890003DF9064649463046B268904700BFBFE75B
:1028A00022646576223A22006465763A25730D0A21
:1028B0000000000022737461747573223A220000D4
:1028C0007374617475733A25640D0A006C616D70E0
:1028D00000000000676F7420746865206C616D7083
:1028E0000000000010B5FEF745FC10BD00B58FB02C
:1028F000282105A8FDF753FC14216846FDF74FFC7D
:102900000120059000040690002007900120099006
:1029100002200C90C1030D914FF4E0110E9105A817
:10292000FEF754FE08B1FEF7AFF80F20009002202A
:102930000190002002904FF48060039000200490EA
:1029400002216846FEF71EFD08B1FEF79DF80FB0A4
:1029500000BD704710B50446024800F05DFC002041
:1029600010BD0000700C00200021034AC2F8901135
:10297000C2F8941170470000700C002070B5054635
:102980000C460249204600F04DFC70BD700C002042
:1029900070B506460C46154629462046FFF7D4FB7F
:1029A00070BD70B505466C6A0020E085E084204665
:1029B000FFF759F870BD00BF00BF02680C3252E843
:1029C000002F22F4907102680C3242E80013002BB1
:1029D000F3D100BF00BF00BF0268143252E8002FDD
:1029E00022F001010268143242E80013002BF3D1F7
:1029F00000BF016B01290ED100BF00BF02680C327D
:102A000052E8002F22F0100102680C3242E8001355
:102A1000002BF3D100BF202180F842100021016378
:102A2000704710B504462068C06820F04000216857
:102A3000C860202084F841002046FFF7A1FA00205A
:102A400010BDF8B5044694F84200222875D1A0685C
:102A5000B0F5805F0CD1206950B90025A66A2068C6
:102A60004068C0F308003080A06A801CA06215E0B6
:102A7000A56A0026A068B0F5805F03D0A06828B9D9
:102A8000206918B920684068287004E02068406810
:102A900000F07F002870A06A401CA062E08D401EFC
:102AA00080B2E085002846D12068C06820F0200070
:102AB0002168C8602068C06820F480702168C86000
:102AC0002068406920F0010021684861202084F8D6
:102AD000420000206063206B012826D10020206383
:102AE00000BF00BF21680C3151E8001F21F0100029
:102AF00021680C3141E80002002AF3D100BF2068B0
:102B0000006800F0100010280AD100BF00200090DB
:102B100020680068009020684068009000BF00BFF7
:102B2000A18D2046FEF79EFF02E02046FFF7CEF97A
:102B30000020F8BD01E00020FBE70220F9E70000DB
:102B400070B504462168096921F44051E2681143D7
:102B5000226811612269A1681143626941EA020594
:102B60002168C96841F20C62914329432268D1600F
:102B70002168496921F44071A269114322685161B9
:102B80002D4A2168914202D1FEF7D8FC01E0FEF700
:102B9000C5FC00EBC00101EB001162689200B1FBC3
:102BA000F2F100EBC00202EB001263689B00B2FB83
:102BB000F3F26423B2FBF3F202EBC20303EB021263
:102BC000A1EB8201322202EB01116422B1FBF2F18E
:102BD00001F0F00100EBC00202EB001263689B0001
:102BE000B2FBF3F26423B2FBF3F201EB021200EB4F
:102BF000C00101EB001163689B00B1FBF3F100EB36
:102C0000C00303EB00136668B600B3FBF6F364265B
:102C1000B3FBF6F303EBC30606EB0313A1EB83014F
:102C2000322303EB01116423B1FBF3F101F00F0137
:102C300011442268916070BD00380140014691F84E
:102C40004100212828D18868B0F5805F0BD1086940
:102C500048B90A6A1088C0F308000B685860086A0F
:102C6000801C086205E00B6A581C086218780B6823
:102C70005860C88C401E80B2C88458B90868C068C3
:102C800020F080000B68D8600868C06840F0400001
:102C90000B68D860002070470220FCE72DE9F04166
:102CA00004460D4617469846069E34E0701C88B3CD
:102CB0002EB1FEF759FAA0EB0800B0422BD900BFA5
:102CC00000BF21680C3151E8001F21F4D070216849
:102CD0000C3141E80002002AF3D100BF00BF00BF61
:102CE0002168143151E8001F21F0010021681431DE
:102CF00041E80002002AF3D100BF202084F84100FF
:102D000084F8420000BF002084F8400000BF032088
:102D1000BDE8F081FFE7206800682840A84201D1A3
:102D2000012000E00020B842C0D00020F0E7000001
:102D300010B51348006840B9FDF7FEFE1149086060
:102D40000F480068401C0E49086000240E480068C7
:102D500000F0200078B10C48001D0068C4B209489A
:102D60000168204600F07AFA0848006818B1204649
:102D70000649096888470648FEF776FE10BD000040
:102D8000180000201400002000480040100000201F
:102D90005001002010B5024600200BE000BF074B99
:102DA0001B6803F08003002BF9D0135C034C241D37
:102DB0002360401C8842F1DB10BD00000048004049
:102DC00000BFFEE770B540F2D24517A0FDF7AEFE9A
:102DD000044617A000F06EF810E019A21BA12046CF
:102DE000A36A984718B91BA000F064F807E01FA079
:102DF00000F060F84FF47A70FFF77EF9EDE700BF5E
:102E00002046616B88472A461EA12046236B9847BF
:102E100020B91DA000F04EF8002070BD1FA000F0EA
:102E200049F84FF0FF30F8E7455350383236360056
:102E3000436F6E6E656374696E670D0A0000000073
:102E40003135383736383634393231006875616A91
:102E500000000000436F6E6E656374205749464959
:102E600020737563636573730D0A0000436F6E6EA4
:102E70006563742057494649206572726F720D0A66
:102E80000000000055445000437265617454726143
:102E90006E73666572204F4B0D0A000043726561C8
:102EA000745472616E73666572206572726F720D12
:102EB0000A0000000FB4054B10B503A9044A02989C
:102EC00000F070F810BC5DF814FB000069310008D8
:102ED000040100200FB4084B10B504A902AA0398FE
:102EE00000F060F8044602A9002000F037F92046FF
:102EF00010BC5DF814FB00005D31000870B505469C
:102F00000748046807E029462068FDF778F908B902
:102F1000204670BD246A002CF5D10020F9E700009E
:102F20008000002070B5054607480068044606E0AA
:102F300029462068FDF763F908B9204670BD002CCA
:102F4000F6D100BFFAE70000BC000020024800688C
:102F5000C0F30220704700000CED00E010B500281F
:102F600004DB0A07130E054A135406E00A07140E81
:102F7000034A00F00F031B1FD45410BD00E400E00F
:102F800018ED00E002E008C8121F08C1002AFAD1BB
:102F900070477047002001E001C1121F002AFBD1D9
:102FA000704700002DE9FF4F8BB09A460F4605464B
:102FB000002606E025280BD052460D9990476D1C3F
:102FC000761C28780028F5D10FB03046BDE8F08F88
:102FD0000024A0460122604900E0044315F8013FA7
:102FE000203B02FA03F00842F7D128782E2817D1A7
:102FF00015F8010F44F004042A280ED06FF02F02B8
:103000002878A0F1300109290AD808EB880102EBE1
:10301000410100EB01086D1CF2E757F8048B6D1CB1
:10302000287869283ED006DC0028CDD063280BD054
:10303000642804D136E0732810D075284BD052464E
:103040000D999047761C85E017F8040B8DF8000069
:1030500000208DF80100E946012003E057F8049BA9
:103060004FF0FF3061074FF0000401D40AE0641C08
:1030700044450DDA8442FADB19F804100029F6D130
:1030800006E0641C8442FCDB19F804100029F8D126
:10309000264404E019F8010B52460D999047641E2E
:1030A000F8D257E001CF4FF00A0B002802DA404275
:1030B0002D2102E0210504D52B218DF824100121BA
:1030C00003E0E10705D02021F7E70DF12009089181
:1030D0000CE00021F9E701CF4FF00A0BF9E7594660
:1030E000FDF7B3F801F1300209F8012D0028F6D1FF
:1030F000ADEB090000F1200B600701D44FF001088F
:10310000D84502DDA8EB0B0000E00020804600243B
:1031100006E009A85246005D0D999047641C761C94
:1031200008988442F5DB04E0302052460D99904720
:10313000761CB8F10001A8F10108F5DC05E019F8EA
:10314000010B52460D999047761CBBF10001ABF183
:10315000010BF4DC6D1C34E7092801000A68531CDC
:103160000B6010707047000013B50C4600BF40F6AE
:10317000B833012269460348FEF7A9FE0028F6D1BC
:103180001CBD00000801002070B504460D460CB1BE
:10319000002D01DC002070BD0020605506A12046F6
:1031A000FDF708F806462EB1301BC01DA84201DC11
:1031B0000120F0E70020EEE74552524F520D0A0081
:1031C00070B504460D460CB1002D01DC002070BD29
:1031D0000020605506A12046FCF7ECFF06462EB104
:1031E000301B001DA84201DC0120F0E70020EEE7C3
:1031F0004F4B0D0A00000000FDF7C8FFFFF776FBFC
:10320000FFF712F8FFF78EF8FFF7A8F8FDF728FC94
:1032100001E0FDF7CDF9FCE70021C0F89011C0F8FE
:103220009411704710B50246D1F89401D1F890314D
:10323000984202D14FF0FF3010BDD1F8940111F83F
:1032400020001070D1F89401401C6423B0FBF3F40B
:1032500003FB1400C1F894010020EDE730B50246ED
:10326000D1F89001401C6424B0FBF4F504FB150375
:10327000D1F89401984205D0D1F8900141F820206E
:10328000C1F8903130BD02030405060708090A0B96
:103290000C0D0E0F101001020000000000000000D5
:1032A00001020304060708090000000001020304EC
:1032B000000000000000000000000000000000000E
:1032C0003F400000000000000000300040003000DF
:1032D0004000000009000BC03D000BC03D0009008C
:1032E00018C024407FE0224031800000180024C034
:1032F0001B000D803240018003801C4027401C8051
:1033000007400040100060000000000000000000C6
:103310000000000000001F802040402000004020EE
:1033200020401F8000000000090006001F800600EA
:1033300009000000040004003F80040004000000B5
:103340000010006000000000000000000400040005
:103350000400040004000000000000400000000021
:1033600000000000002001C00600380040000000FE
:103370001F802040204020401F800000000010409F
:103380003FC000400000000018C0214022402440FF
:103390001840000010802040244024401B80000082
:1033A00002000D0011003FC0014000003C8024409D
:1033B00024402440238000001F80244024403440C7
:1033C000038000003000200027C0380020000000EB
:1033D0001B802440244024401B8000001C0022C08D
:1033E000224022401F800000000000000840000032
:1033F0000000000000000000046000000000000069
:10340000000004000A00110020804040090009006B
:103410000900090009000000000040402080110060
:103420000A000400180020002340240018000000B7
:103430001F802040274029401F400000004007C057
:1034400039000F0001C0004020403FC0244024400C
:103450001B8000001F802040204020403080000062
:1034600020403FC0204020401F80000020403FC03F
:1034700024402E4030C0000020403FC024402E0099
:10348000300000000F0010802040224033800200F6
:1034900020403FC0040004003FC0204020402040A6
:1034A0003FC02040204000000060202020203FC07E
:1034B0002000200020403FC024400B0030C02040AE
:1034C00020403FC020400040004000C03FC03C00C2
:1034D00003C03C003FC0000020403FC00C40230020
:1034E0003FC020001F802040204020401F8000005F
:1034F00020403FC024402400180000001F802140CD
:10350000214020E01FA0000020403FC024402600B2
:1035100019C0004018C024402440224031800000DF
:10352000300020403FC020403000000020003F809D
:10353000004000403F80200020003E0001C0070006
:1035400038002000380007C03C0007C038000000E9
:10355000204039C0060039C020400000200038401B
:1035600007C0384020000000304021C026403840CD
:1035700020C00000000000007FE04020402000004C
:10358000000070000C00038000400000000040209C
:1035900040207FE0000000000000200040002000EC
:1035A00000000000001000100010001000100010BB
:1035B0000000000040000000000000000000028049
:1035C0000540054003C0004020003FC004400440C7
:1035D0000380000000000380044004400640000017
:1035E00000000380044024403FC0004000000380EE
:1035F0000540054003400000000004401FC0244077
:1036000024402000000002E0055005500650042030
:1036100020403FC00440040003C0004000000440BC
:1036200027C000400000000000100010041027E038
:103630000000000020403FC00140070004C00440DB
:10364000204020403FC000400040000007C0040070
:1036500007C0040003C00000044007C00440040089
:1036600003C00040000003800440044003800000C9
:10367000041007F0045004400380000000000380A1
:103680000440045007F00010044007C0024004004A
:1036900004000000000006400540054004C0000092
:1036A000000004001F800440004000000400078068
:1036B0000040044007C000400400070004C001802F
:1036C00006000400060001C0070001C0060000005B
:1036D000044006C0010006C00440000004100710AA
:1036E00004E00180060004000000044005C006401C
:1036F000044000000000000004007BE040200000C7
:10370000000000000000FFF000000000000040206A
:103710007BE004000000000040008000400020002A
:103720002000400000000000000000000000000039
:10373000000000000000000000001FCC000C000092
:1037400000000000000008003000600008003000A9
:1037500060000000022003FC1E20022003FC1E204B
:103760000220000000000E1811043FFF10840C78A6
:10377000000000000F0010840F3800C00778188484
:103780000078000000780F8410C411240E9800E423
:1037900000840008080068007000000000000000BD
:1037A0000000000000000000000007E018182004DE
:1037B00040020000000040022004181807E000004A
:1037C000000000000240024001800FF00180024032
:1037D000024000000080008000800FF80080008020
:1037E000008000000001000D000E0000000000003D
:1037F0000000000000000080008000800080008049
:10380000008000800000000C000C000000000000A0
:1038100000000000000000060018006001800600A3
:1038200018002000000007F0080810041004080821
:1038300007F000000000080408041FFC0004000456
:103840000000000000000E0C10141024104411841D
:103850000E0C000000000C18100411041104128852
:103860000C700000000000E00320042408241FFC6A
:103870000024000000001F98108411041104108817
:1038800010700000000007F0088811041104188867
:103890000070000000001C00100010FC13001C0051
:1038A0001000000000000E381144108410841144F0
:1038B0000E38000000000700088C104410440888EF
:1038C00007F00000000000000000030C030C0000E3
:1038D00000000000000000000001010600000000E0
:1038E00000000000000000800140022004100808D1
:1038F00010040000022002200220022002200220E8
:1039000002200000000010040808041002200140FA
:103910000080000000000E001200100C106C1080DF
:103920000F00000003E00C1813E4142417C4082847
:1039300007D000000004003C03C41C40074000E422
:10394000001C000410041FFC1104110411040E8853
:103950000070000003E00C1810041004100410089C
:103960001C10000010041FFC1004100410040808B0
:1039700007F0000010041FFC1104110417C4100408
:103980000818000010041FFC1104110017C01000DB
:103990000800000003E00C181004100410441C7808
:1039A0000040000010041FFC108400800080108480
:1039B0001FFC10040000100410041FFC100410046D
:1039C0000000000000030001100110011FFE1000A4
:1039D0001000000010041FFC110403801464181C64
:1039E0001004000010041FFC100400040004000474
:1039F000000C000010041FFC1F0000FC1F001FFC37
:103A00001004000010041FFC0C04030000E0101858
:103A10001FFC100007F00808100410041004080828
:103A200007F0000010041FFC10841080108010802C
:103A30000F00000007F0081810241024101C080ABA
:103A400007F2000010041FFC1104110011C0113016
:103A50000E0C000400000E1C11041084108410448D
:103A60001C3800001800100010041FFC1004100087
:103A70001800000010001FF81004000400041004D7
:103A80001FF8100010001E0011E0001C00701380D1
:103A90001C0010001FC0103C00E01F0000E0103CA4
:103AA0001FC000001004180C163401C001C01634E9
:103AB000180C100410001C00130400FC13041C005C
:103AC000100000000804101C1064108413041C046F
:103AD000101800000000000000007FFE40024002BD
:103AE00040020000000030000C0003800060001C59
:103AF0000003000000004002400240027FFE000080
:103B000000000000000000002000400040004000D5
:103B1000200000000001000100010001000100017F
:103B200000010001000040004000200000000000F3
:103B300000000000000000980124014401440144F9
:103B400000FC000410001FFC008801040104008830
:103B500000700000000000700088010401040104EE
:103B600000880000000000700088010401041108B2
:103B70001FFC0004000000F801440144014401441A
:103B800000C800000000010401040FFC110411042E
:103B900011001800000000D601290129012901C9DE
:103BA0000106000010041FFC008401000100010454
:103BB00000FC000400000104190419FC00040004C6
:103BC000000000000000000300010101190119FEBE
:103BD0000000000010041FFC0024004001B4010C90
:103BE000010400000000100410041FFC0004000485
:103BF00000000000010401FC0104010001FC0104BB
:103C0000010000FC010401FC00840100010001042A
:103C100000FC0004000000F8010401040104010498
:103C200000F80000010101FF008501040104008883
:103C3000007000000000007000880104010401050C
:103C400001FF00010104010401FC008401040100E2
:103C500001800000000000CC012401240124012483
:103C60000198000000000100010007F801040104B0
:103C700000000000010001F8000400040004010835
:103C800001FC0004010001800170000C00100160C3
:103C90000180010001F0010C003001C00030010C76
:103CA00001F0010000000104018C00740170018C1E
:103CB00001040000010101810171000E0018016082
:103CC0000180010000000184010C013401440184E1
:103CD000010C0000000000000000000001003EFC9C
:103CE000400240020000000000000000FFFF000052
:103CF000000000000000400240023EFC0100000005
:103D000000000000000060008000800040004000D3
:103D10002000200000000000000000000000000063
:103D20000000000000000000000000000000000093
:103D30000000000000000000000000000000000083
:103D4000000000000000000F80380FFE380F8038A0
:103D50000000000000000000000000000000000063
:103D600000000100000600000C00003800003100D7
:103D7000000600000C0000380000300000000000C9
:103D80000000000061800067F807F9800061800092
:103D900061800061800061800067F807F980006140
:103DA0008000000000000000000001C0E003E0F01F
:103DB0000630080418081FFFFE040E080787F003EA
:103DC00081E000000000000001F000060C00040487
:103DD00008060C7001F9C0000E00003BE000EC1872
:103DE000070808040C180003E00000000001E000D0
:103DF00007F003F818041C0804170807E1D003C0F3
:103E0000E00023B0003C0800200800001000000083
:103E10000000000100003100003200001C00000022
:103E20000000000000000000000000000000000092
:103E30000000000000000000000000000000000082
:103E4000000000007F0001FFC00780F00C00181088
:103E5000000420000200000000000020000210000A
:103E6000040C00180780F001FFC0007F0000000074
:103E70000000000000000000000000000000000042
:103E80004200006600006600003C0000180003FFCE
:103E9000C0001800003C0000660000660000420000
:103EA00000000000080000080000080000080000F2
:103EB000080001FFC000080000080000080000081A
:103EC0000000080000000000000100003100003286
:103ED00000001C00000000000000000000000000C6
:103EE00000000000000000000000000008000008C2
:103EF000000008000008000008000008000008009A
:103F00000008000008000008000000000000000099
:103F100000000000380000380000380000000000F9
:103F20000000000000000000000000000000000091
:103F300000000000000600001C000070000180006E
:103F40000E0000380000C0000700001C0000300018
:103F500000000000000000007F8001FFE00380708F
:103F60000600180400080400080600180380700109
:103F7000FFE0007F80000000000000000000010062
:103F80000801000801000803FFF807FFF800000817
:103F90000000080000080000000000000000000110
:103FA000C03802C058040098040118040218040420
:103FB00018061C1803F81801E0F8000000000000C3
:103FC00000000001C0E003C0F00400080408080479
:103FD000080806180803F41801E7F00001E00000E3
:103FE00000000000000000000300000D00001100B0
:103FF00000610000810803010807FFF80FFFF800C7
:1040000001080001080000000000000000E007FCBB
:10401000D00608080610080610080610080618380A
:10402000060FF00607C000000000000000000000BE
:104030003F8001FFE00384300208180410080410D8
:1040400008041008071810030FF00007C000000054
:1040500000000000000003C000070000060000068A
:1040600000F80607F806180006E000070000060042
:104070000000000000000001E1E003F7F00634104A
:10408000041808041808040C08040C080616180381
:10409000F3F001C1E000000000000000F80003FCA4
:1040A000300306380402080402080402080404105D
:1040B0000308F001FFC0007F0000000000000000C6
:1040C00000000000000000000000000070380070D8
:1040D0003800703800000000000000000000000000
:1040E00000000000000000000000000000000000D0
:1040F000301A00301C00000000000000000000002A
:104100000000000000000000000000080000140093
:1041100000220000410000808001004002002004D5
:10412000001008000800000000000000210000212D
:1041300000002100002100002100002100002100DA
:10414000002100002100002100000000000000000C
:104150000000080008040010020020010040008058
:104160008000410000220000140000080000000050
:1041700000000003C00004C000040000080038086C
:104180000F380808380810000C300007E00003C0A2
:1041900000000000000000003F8000FFE00380708E
:1041A000020F1006708804C088048308047F880208
:1041B000C09003012000FE4000000800001800012C
:1041C000F8003E0801C20007020007E20000FE00FE
:1041D000001FC80001F800003800000804000807AC
:1041E000FFF807FFF8040808040808040808040892
:1041F0000806180803F41801E7F00001E0000000C9
:10420000000000003F8001FFE003807002001804FE
:1042100000080400080400080400100600200780BD
:10422000C000000004000807FFF807FFF8040008BA
:104230000400080400080400180200100380700144
:10424000FFE0007F8000000004000807FFF807FF80
:10425000F8040808040808040808040808043E08CC
:1042600004000806001801006000000004000807B0
:10427000FFF807FFF8040808040800040800040811
:1042800000043E000600000600000180000000005F
:10429000000000003F8001FFE0038070060018046A
:1042A00000080402080402080203F00783F0000279
:1042B0000000020004000807FFF807FFF8040808E0
:1042C00000080000080000080000080004080807B3
:1042D000FFF807FFF80400080000000000000400D9
:1042E0000804000804000807FFF807FFF8040008A6
:1042F00004000804000800000000000000000000A6
:104300000006000007000001040001040001040091
:104310000307FFFE07FFFC04000004000004000088
:1043200004000807FFF807FFF8040C080018000055
:104330003E0004C7800503C80600F80400380400E6
:104340001800000804000807FFF807FFF804000839
:104350000000080000080000080000080000080035
:10436000001800006000000004000807FFF8078044
:104370000807FC00007FC00003F80007C0007800B9
:1043800007800807FFF807FFF80400080400080783
:10439000FFF807000803C00000E000003800001E1E
:1043A000000007000001C00400F007FFF80400004F
:1043B000000000007F8001FFE00380700600180409
:1043C000000804000806001803003001FFE0007F29
:1043D0008000000004000807FFF807FFF804040845
:1043E000040400040400040400040400060C000398
:1043F000F80001F000000000000000007F8001FFD5
:10440000E00380700600880400880400C806003CB1
:1044100003003E01FFE6007F84000000040008075F
:10442000FFF807FFF8040808040800040C00040F54
:1044300000040BC00610F003F03801E0080000088B
:1044400000000001E0F803F0300630100418080402
:104450001808040C08040C080206180207F007816B
:10446000E0000000018000060000040000040000DD
:1044700004000807FFF807FFF80400080400000420
:10448000000006000001800004000007FFE007FFB5
:10449000F0040018000008000008000008000008F0
:1044A00000000804001007FFE004000004000006FC
:1044B000000007E00007FE00041FE00001F8000014
:1044C000380001E0043E0007C000060000040000C0
:1044D00004000007E00007FFC0041FF80007C00742
:1044E000F80007FF80043FF80007C004F800070049
:1044F0000004000000000004000806001807C0784F
:1045000005F1C8003E00001F800463E80780F8063C
:1045100000180400080000000400000600000780E6
:104520000007E008047C08001FF80007F8001808DE
:1045300004E008070000060000040000000000017D
:1045400000080600380400F80403E8040F08047C9F
:104550000805F00807C00807001804006000000004
:104560000000000000000000000000000000003F0C
:10457000FFFE200002200002200002200002200096
:10458000020000000000000000000800000700001A
:1045900000C0000038000006000001C0000030002C
:1045A000000E0000010000000000000000002000DC
:1045B000022000022000022000022000023FFFFE35
:1045C00000000000000000000000000000000000EB
:1045D0000000000000080000100000300000200073
:1045E0000030000010000008000000000000000083
:1045F00000000100000100000100000100000100B6
:1046000000010000010000010000010000010000A5
:104610000100000100000000000000000020000078
:10462000200000100000100000000000000000004A
:1046300000000000000000000000000000F0001971
:10464000F8001B1800220800260800240800241087
:10465000003FF8001FF800000800001800000004E8
:10466000000007FFF80FFFF00018180010080020E6
:1046700008002008003018001FF0000FC0000000E4
:104680000000000007C0001FF000183000200800E4
:104690002008002008003C08001C100000600000FA
:1046A000000000000000000007C0001FF0003818E4
:1046B00000200800200800200804101007FFF80F51
:1046C000FFF00000100000000000000000000007E4
:1046D000C0001FF00012300022180022080022083B
:1046E000003208001E10000E200000000000000034
:1046F000200000200800200801FFF803FFF8062032
:10470000080420080420080720000300000000001F
:1047100000000000000E000E6E001FF30031B1001B
:1047200020B10020B1003191001F13002E1E002087
:104730000E00300000000004000807FFF80FFFF82B
:10474000001008002000002000002008003FF800B2
:104750001FF800000800000000000000000000201A
:1047600008002008002008063FF8063FF80000086F
:104770000000080000080000000000000000000029
:1047800000000000030000030020010020010020C1
:1047900003063FFE063FFC00000000000000000092
:1047A00000000004000807FFF80FFFF80001880070
:1047B0000300002FC00038F8002038002008000057
:1047C00008000000000000000000040008040008C9
:1047D00004000807FFF80FFFF800000800000800B9
:1047E0000008000000000000002008003FF8003F23
:1047F000F8001008002000003FF8003FF800100803
:10480000002000003FF8003FF80000080000000012
:104810002008003FF8003FF80010080010000020BA
:1048200000002008003FF8001FF80000080000000A
:104830000000000007C0000FF00018300030080032
:104840002008002008003008001830000FF0000792
:10485000C0000000000000002001003FFF003FFFFB
:104860000010110020090020080020080030380046
:104870001FF0000FC00000000000000007C0001F74
:10488000F00038180020080020080020090010114E
:10489000001FFF003FFF0000010000000020080093
:1048A0002008002008003FF8003FF800080800102A
:1048B0000800200800200000300000300000000048
:1048C000000000000000000C78001E1800330800F3
:1048D00023080021080021880021980030F00038CA
:1048E0006000000000000000200000200000200008
:1048F00000FFF003FFF80020080020080020080057
:104900000030000000000000000000002000003F18
:10491000F0007FF8000018000008000008002010D8
:10492000003FF8007FF000001000000000000000D1
:104930002000003000003C00003F800023F0000019
:1049400078000070002380003C0000300000200050
:10495000002000003C00003FE00023F80000E000E1
:104960002700003E00003FE00021F80001E0003E8B
:104970000000200000000000200800200800383857
:10498000003E680027800003C8002CF8003838007B
:104990002018002008000000000000002000003067
:1049A00003003C01003F830023EC000070002380E3
:1049B000003C00002000002000000000000000007B
:1049C00000000038080020380020F80023E8002FFD
:1049D00088003E0800380800201800007000000021
:1049E00000000000000000000000000000000000C7
:1049F00008000014001FF7FC300006200002000031
:104A000000000000000000000000000000000000A6
:104A1000000000000000FFFFFF0000000000000099
:104A20000000000000000000000000000000200066
:104A3000023000061FF7FC00140000080000000010
:104A4000000000000000000000000000000000184E
:104A50000000600000400000400000200000100046
:104A6000000800000400000400000C00001000001A
:104A700000202021222C2020202824232020000078
:104A80004040424242424242424242424240400050
:104A900000E000FF0020C000FE0020C000FF00007A
:104AA0008140300F000000003F00000000FF0000C8
:104AB000048484FC848400FE9292FE9292FE0000A4
:104AC0002060201F1010404444447F444444400070
:104AD00000040404040404FC0404040404040000AA
:104AE000202020202020203F2020202020202000C7
:104AF00020202020202020FF2020202020202000F7
:104B000080804020100C0300030C102040808000A7
:104B100040301196909091969090981413503000D8
:104B2000040404040444847E06050404040404000C
:104B30000000F888888888FF88888888F800000046
:104B400000001F080808087F888888889F80F00078
:104B500020104C4754545454545454D4040400006A
:104B600000000000000000000000000F3040F000D6
:104B700000000808080808080808080808000000DD
:104B80001010101010101010101010101010100035
:104B90008484FC848400F800FF008484FC84840006
:104BA00010301F0888422118070020203F202000D5
:104BB000101010FF101090040404FC040404000002
:104BC0000444827F0101404040407F40404040001B
:104BD000101010FF109000FE8282FE8282FE000004
:104BE0000444827F0100003F40404040404170004B
:104BF00080828282828282E2A2928A868280800081
:104C0000000000000040807F000000000000000065
:104C100000003E2222BE6222223E22223E000000EE
:104C200080848442454931211109050300000000B8
:104C3000008282BAAAAAAAABAAAAAABA82828000D1
:104C40000201A0AAAA5656AAF2122A224042010044
:104C5000060909E6F80C040202020202041E000022
:104C6000000000071F30204040404040201000005E
:104C700000007C82827C008040201008040200003A
:104C800000201008040201003E41413E00000000E7
:104C90004750494F5F4B657900000000455350383D
:104CA000323636004F4C4544000000007561727486
:104CB00033000000D44C0008000000200801000070
:104CC000842F0008DC4D00080801002000110000BE
:104CD000942F0008000000001000000001000000F8
:104CE0000024F400000000000000000000000000AC
:104CF00001010000904C0008000000008F0A00082D
:104D000000000000000000000000000000000000A3
:104D100000000000000000009C4C000800000000A3
:104D2000150A00080000000000000000010000005B
:104D3000FD210008ED210008000000000000000037
:104D400002000000FD210008ED2100080000000025
:104D50000000000000000000A44C00086E080020C5
:104D6000800000004000000001000000000400007E
:104D7000FD230008F123000800000000AC4C0008EF
:104D80005529000869290008912900087D29000893
:104D9000000000009C4C0008302E302E302E3000D9
:104DA000000000000000000000000000302E302E47
:104DB0003000000000000000DD090008D5070008F1
:104DC0004509000811080008B50700083F0A000857
:0C4DD000250A00080000000000000000A0
:0400000508000131BD
:00000001FF
