:020000040800F2
:10000000B808002049010008ED1F0008071D00087E
:10001000E91F0008990500084127000800000000BA
:100020000000000000000000000000005522000851
:10003000CB05000800000000D1210008652200085F
:100040006301000863010008630100086301000800
:1000500063010008630100086301000863010008F0
:1000600063010008630800086D08000863010008C8
:1000700063010008630100086301000863010008D0
:1000800063010008630100086301000863010008C0
:1000900063010008630100086301000863010008B0
:1000A00063010008630100086301000863010008A0
:1000B0006301000863010008630100086301000890
:1000C0006301000863010008630100086301000880
:1000D000630100086301000863010008B1260008FD
:1000E0006301000863010008630100086301000860
:1000F0006301000863010008630100086301000850
:10010000630100086301000863010008630100083F
:10011000630100086301000863010008630100082F
:10012000630100086301000863010008630100081F
:10013000DFF810D000F0A0F800480047612A00085E
:10014000AFF30080B8080020064880470648004703
:10015000FEE7FEE7FEE7FEE7FEE7FEE7FEE7FEE777
:10016000FEE7FEE7D32200083101000840EA010360
:100170009B0703D009E008C9121F08C0042AFAD25D
:1001800003E011F8013B00F8013B521EF9D2704721
:10019000D2B201E000F8012B491EFBD270470022C9
:1001A000F6E710B513460A4604461946FFF7F0FF76
:1001B000204610BD30B505462A460B4612F8010B05
:1001C00013F8014B08B1A042F8D01CB1002802D0AE
:1001D0006D1CF1E7284630BD10B5044604E00B78ED
:1001E00000F8013B03B1491C521EF8D2204610BD55
:1001F000421C10F8011B0029FBD1801A704710B572
:10020000002200E0521C835C8C5CA34201D1002BD5
:10021000F8D1D8B2E1B2401A10BD034611F8012B53
:1002200000F8012B002AF9D11846704730B5054671
:100230000020034600E05B1C934205D2EC5CC85CE6
:10024000201A01D1002CF6D130BD30B50B46014645
:1002500000202022012409E021FA02F59D4205D365
:1002600003FA02F5491B04FA02F52844151EA2F10F
:100270000102F1DC30BD0000064C074D06E0E068ED
:1002800040F0010394E8070098471034AC42F6D3DD
:10029000FFF752FF382B0008582B00082DE9F043D8
:1002A0008DB007460E4600242B48006881682A4816
:1002B000006888473846FFF79BFF8146264800685C
:1002C0004A463946C368244800689847224800686F
:1002D000022222A1C368204800689847394620A01E
:1002E00002F030FA01F074FD804631E00DEB0401BC
:1002F00019480068026918480068904708BB1DF853
:1003000004101CA002F01EFAD4B1601E1DF80000FB
:100310000D2815D11DF804000A2811D1611C68466A
:1003200002F082FB18B100200DB0BDE8F083611C23
:10033000684602F05DFB10B14FF0FF30F4E7002497
:10034000641C01F045FD0546454501DD761EA846C5
:10035000002ECBD1B01EE7E7B00000200D0A000050
:1003600053656E6420636F6D6D616E643A25730D25
:100370000A000000256300002DE9F05F80468946F1
:1003800017464D4600242A480068816828480068BE
:1003900088474046FFF72CFF8346254800685A46A9
:1003A0004146C368224800689847214800680222F5
:1003B00020A1C3681E480068984741461EA002F06D
:1003C000C1F901F005FD82462EE0291918480068A0
:1003D0000269174800689047F8B9295D1BA002F030
:1003E000B1F9CCB1601E285C0D2815D1285D0A2812
:1003F00012D1611C284602F017FB28B10021601CB5
:1004000029540020BDE8F09F611C284602F0F0FA54
:1004100010B14FF0FF30F5E7641C01F0D9FC06463F
:10042000564501DD7F1EB246002FCED1B81EE9E74A
:10043000B00000200D0A000053656E6420636F6DEC
:100440006D616E643A25730D0A000000256300009B
:100450002DE9F04F8FB082460E4617464FF0000B45
:100460000024A046A14601F0B3FC019054E002A88C
:1004700001192B4800680269294800689047002844
:1004800042D1BBF1000F06D0BBF1010F12D0BBF17E
:10049000020F38D128E0002102AA601C115421A1CA
:1004A00002A8FFF787FE18B14FF0010B002400E00F
:1004B000641C28E002A8005D3A2813D14FF000091F
:1004C0000AE002A810F8090008EB880100EB4100DF
:1004D000A0F1300809F10109A145F2DB4FF0020B50
:1004E000002400E0641C0EE002A8005D0AF804008D
:1004F000641C444506D10EB1C6F8008000200FB040
:10050000BDE8F08F00BF00BF01F062FC0546019915
:100510008D4201DD7F1E0195002FA8D1B81EEEE7A8
:10052000B00000202B4950442C00000010B506A05C
:1005300000F0BEF9064908600846006841680448B2
:100540000068884710BD00007561727433000000B8
:10055000B000002010B500F003F800F009F810BD5D
:1005600010B5024801F0DEFB10BD000020000020A5
:1005700010B5024801F0D6FB10BD00004400002079
:1005800010B5024801F034FD10BD000070000020DD
:1005900010B5FFF7F5FF10BD00BFFEE710B504462C
:1005A000204600F0C5FA10BD10B501F01DFC10BDCD
:1005B00010B500F0D1FC10BD70B504460D462946BB
:1005C000204602F0A7F8002070BD704710B5044621
:1005D000024903A0FFF762FE10BD0000A0860100E3
:1005E00041542B434950434C4F53450070B59AB08A
:1005F00006460C4615462B46224605A101A802F0E8
:10060000B1F8084901A8FFF749FE1AB070BD000013
:1006100041542B43574A41503D222573222C222519
:1006200073220000A086010070B59AB005460E4600
:100630001446224604A101A802F094F80D4901A82D
:10064000FFF72CFE1AB070BD41542B434950535450
:100650004152543D22554450222C223139322E3100
:1006600036382E312E323434222C383038312C2585
:10067000642C3200A0860100F0B58BB00746314CE7
:100680003148056867550068401C2F4908602F48AD
:10069000007820B1012817D0022850D12DE0207811
:1006A0002B2802D0002028490860042D0BD10522F8
:1006B00027A12046FFF7BAFD10B901202349087091
:1006C0000020214908603AE0605D3A2814D10026F4
:1006D0000AE0A05D2049096801EB810100EB4100BF
:1006E00030381D490860761CAE42F2DB0220174903
:1006F000087000201449086021E01348006816497A
:10070000096888421AD101F063FB009002208DF83D
:10071000040011482146026806A8FFF75DFD00218C
:1007200006A80D4A12688154684601F053FD002066
:1007300006490870044908600749086000BF00BF07
:100740000BB0F0BD080300203C0000203800002062
:100750002B4950442C000000400000202DE9F041BE
:10076000B2B006460F46154A694615A0FFF704FECB
:100770008046B8F1000F1ED114A16846FFF71AFD9C
:100780000446217815A001F0DDFFA4B10E34002548
:1007900003E0615D301D41556D1C605D2228F8D17C
:1007A0000021301D4155311D3846FFF736FD002030
:1007B00032B0BDE8F0814FF0FF30F9E7A0860100CC
:1007C00041542B4349465352000000002B434946F5
:1007D00053523A53544149502C220000676574200B
:1007E0007468652049502073746172743A25630DF2
:1007F0000A00000010B50446FFF798FE044905A062
:10080000FFF74CFD024906A0FFF748FD002010BD90
:10081000A086010041542B43574D4F44453D3300C2
:1008200041542B4349504D55583D300010B50248B6
:1008300001F012FD002010BD790600082DE9F041FD
:1008400007460C4615461E46324629462046FFF707
:10085000FFFDBDE8F08170B50646DDE904450020E6
:1008600070BD10B5082000F0BBF910BD10B5102008
:1008700000F0B6F910BD000010B5012200212720BC
:1008800000F0F0FB272000F0DDFB04480068C068A2
:1008900040F0200001490968C86010BD0001002037
:1008A00072B600BFFEE710B501F08EFA002010BD51
:1008B00001460148704700005800002010B504466A
:1008C00014B94FF0FF3010BD1348D0F8BC011249E5
:1008D000D1F8B811884202D14FF0FF30F3E70E484B
:1008E000D0F8BC0100EB400202EBC0000A4A02EB68
:1008F00080012C222046FFF739FC0748D0F8BC01C4
:10090000401C0A21B0FBF1F201FB12000249C1F8C0
:10091000BC010020D7E700004801002010B50446C4
:10092000204601F033FF10BD004870471C03002033
:100930000146002291F82100022808D00420886393
:1009400000BF002081F8200000BF01207047086828
:10095000006820F00E000B6818600868006820F03E
:1009600001000B68186091F8403001209840CB6B73
:100970005860012081F8210000BF002081F820008C
:1009800000BF1046E2E7000070B50446002594F869
:100990002100022803D00420A0630125C1E02068C3
:1009A000006820F00E00216808602068006820F0D0
:1009B0000100216808605C492068884252D95A4980
:1009C00078392068884201D1012047E056496439CE
:1009D0002068884201D1102040E0534950392068F6
:1009E000884201D1801539E04F493C39206888425E
:1009F00001D1801432E04C4928392068884202D164
:100A00004FF480302AE0484914392068884202D1E6
:100A10004FF4801022E044492068884201D140040C
:100A20001CE042492068884201D1012016E03F497C
:100A300014312068884201D110200FE03B49283151
:100A40002068884201D1801508E038493C3120688F
:100A5000884201D1801401E04FF480303349091FEE
:100A6000086051E0304978392068884201D101207E
:100A700047E02D4964392068884201D1102040E0C8
:100A8000294950392068884201D1801539E026492A
:100A90003C392068884201D1801432E0224928394B
:100AA0002068884202D14FF480302AE01E49143970
:100AB0002068884202D14FF4801022E01A49206851
:100AC000884201D140041CE018492068884201D1C5
:100AD000012016E0154914312068884201D1102008
:100AE0000FE0124928312068884201D1801508E0C2
:100AF0000E493C312068884201D1801401E04FF456
:100B00008030094980394860012084F8210000BF05
:100B1000002084F8200000BF606B10B12046616B9C
:100B20008847284670BD000080000240080402404B
:100B300070B5044600F010FA06462546681C10B150
:100B400004480078054400BF00F006FA801BA84264
:100B5000FAD370BD0800002010B58CB00446082CF4
:100B60001AD101F035F9019000208DF8080001201C
:100B700005900821174800F0E1F908B9012000E0CC
:100B80000020069001A801F025FB0821114800F083
:100B9000D5F9114908701BE0102C19D101F018F992
:100BA000019000208DF808000220059010210948CE
:100BB00000F0C4F908B9012000E00020069001A867
:100BC00001F008FB1021034800F0B8F90349087050
:100BD0000CB010BD001801401C0000201D000020BA
:100BE00010B5044604480068204020B10248046063
:100BF0002046FFF7B1FF10BD140401402DE9F8476E
:100C0000024600239C467BE14FF0010808FA03F4FA
:100C1000D1F8008008EA0400A0427DD1DFF8F4A2F8
:100C2000D1F80480A8EB0A09D0453AD014DCB8F119
:100C3000030F50D009DCB8F1000F31D0B8F1010F2B
:100C40001CD0B8F1020F49D120E0B8F1110F18D033
:100C5000B8F1120F42D11EE0B9F5881F25D006DC8D
:100C6000B9F5803F20D0B9F5801F37D11AE0B9F52A
:100C7000001F18D0B9F5041F30D117E0D1F80CC00F
:100C80002DE0D1F80C8008F1040C28E0D1F80C809C
:100C900008F1080C23E0D1F80C8008F10C0C1EE0E0
:100CA00000BF00BF00BF00BF00BF00BFD1F8088079
:100CB000B8F1000F02D14FF0040C0BE0D1F808801E
:100CC000B8F1010F03D14FF0080C146102E04FF0AE
:100CD000080C546103E04FF0000C00E000BF00BFBF
:100CE000FF2801D8904601E002F104084646FF289B
:100CF00002D84FEA830803E0A3F108084FEA880806
:100D00004746D6F800804FF00F0909FA07F928EA9C
:100D100009080CFA07F900E07AE048EA0908C6F881
:100D20000080D1F8048008F08058B8F1805F6FD15E
:100D300000BFDFF8E481D8F8188048F00108DFF838
:100D4000D891C9F81880C846D8F8188008F001086A
:100D5000CDF8008000BF00BF4FEAB9384FEA9309D1
:100D600058F829504FEA83784FEA18794FF00F0866
:100D700008FA09F825EA0805DFF8A081424502D102
:100D80004FF0000824E0DFF89881424502D14FF08F
:100D900001081DE0DFF88C81424502D14FF00208C6
:100DA00016E0DFF88481424502D14FF003080FE0DE
:100DB000DFF87881424502D14FF0040808E0DFF8FF
:100DC0007081424502D14FF0050801E04FF006085E
:100DD0004FEA83794FEA197908FA09F848EA0505D4
:100DE000DFF850814FEA930948F82950D1F8048080
:100DF00008F48018B8F5801F0BD1DFF83C81D8F8D3
:100E0000008048EA0008DFF83091C9F800800AE065
:100E100075E0DFF82481D8F8008028EA0008DFF8C0
:100E20001891C9F80080D1F8048008F40018B8F5CA
:100E3000001F0ED1DFF8008108F10408D8F8008007
:100E400048EA0008DFF8F09009F10409C9F80080C9
:100E50000DE0DFF8E48008F10408D8F8008028EA03
:100E60000008DFF8D49009F10409C9F80080D1F82E
:100E7000048008F40038B8F5003F0ED1DFF8B880E0
:100E8000A8F10408D8F8008048EA0008DFF8A89024
:100E9000A9F10409C9F800800DE0DFF89C80A8F1F1
:100EA0000408D8F8008028EA0008DFF88C90A9F13F
:100EB0000409C9F80080D1F8048008F48038B8F536
:100EC000803F0ED1DFF87080A8F10808D8F80080C4
:100ED00048EA0008DFF86090A9F10809C9F8008025
:100EE0000DE0DFF85480A8F10808D8F8008028EA5F
:100EF0000008DFF84490A9F10809C9F800805B1CDC
:100F0000D1F8008028FA03F8B8F1000F7FF47CAE26
:100F1000BDE8F887000011100010024000080140F1
:100F2000000C014000100140001401400018014075
:100F3000001C01400800014008040140024693687B
:100F40000B400BB1012000E0002070470AB10161A5
:100F500001E00B040361704701480068704700001E
:100F6000000000200348006803490978084401494B
:100F700008607047000000200800002010B50848F5
:100F8000006840F0100006490860032000F0A8F84F
:100F90000F2000F007F800F02BF8002010BD000033
:100FA0000020024070B504460E4800784FF47A7174
:100FB000B1FBF0F00C490968B1FBF0F5284600F0F0
:100FC000F9FB08B1012070BD102C07D20022214688
:100FD000501E00F047F80548046001E00120F2E7E8
:100FE0000020F0E7080000200C0000200400002092
:100FF00008B500BF1148806940F001000F498861C1
:101000000846806900F00100009000BF00BF00BFEB
:101010000846C06940F08050C8610846C06900F0C9
:101020008050009000BF00BF00BF0549486820F015
:10103000E06040F00070486000BF08BD0010024052
:101040000000014001460846002809DB00F01F03AC
:1010500001229A4043099B0003F1E023C3F80021D9
:1010600000BF70472DE9F05F80460D461646002709
:1010700001F0A0FB074639462A46334601F0070037
:10108000C0F1070ABAF1040F02D94FF0040A01E0D7
:10109000C0F1070AD14600F1040ABAF1070F02D2E3
:1010A0004FF0000A01E0A0F1030AD4464FF0010A14
:1010B0000AFA09FAAAF1010A0AEA020A0AFA0CFA79
:1010C0004FF0010B0BFA0CFBABF1010B0BEA030B1E
:1010D0004AEA0B042146404601F074FBBDE8F09F4C
:1010E00000BF00F00702064B19684FF6FF031940D6
:1010F000044B0B4343EA0221014B196000BF7047C8
:101100000CED00E00000FA0570B504460D460CB980
:10111000012070BD5A48006800F00700A8420ED2B6
:101120005748006820F007002843554908600846E2
:10113000006800F00700A84201D00120E9E720780C
:1011400000F0020002281DD1207800F004000428DD
:1011500005D14C48406840F4E0604A494860207836
:1011600000F00800082805D14648406840F4605067
:10117000444948604348406820F0F000A1680843B3
:1011800040494860207800F0010078B36068012889
:1011900006D13C48006800F4003090B90120B8E75F
:1011A0006068022806D13748006800F0007040B936
:1011B0000120AEE73348006800F0020008B90120C2
:1011C000A7E73048406820F00300616808432D49D4
:1011D0004860FFF7C1FE064609E0FFF7BDFE801B31
:1011E00041F28831884202D9032092E707E025487E
:1011F000406800F00C006168B0EB810FEDD1204831
:10120000006800F00700A8420ED91D48006820F0D1
:10121000070028431A4908600846006800F00700E4
:10122000A84201D0012074E7207800F004000428CF
:1012300007D11448406820F4E060E1680843114990
:101240004860207800F00800082808D10D48406860
:1012500020F46050216940EAC1000A49486000F06A
:101260003FF808494968C1F30311074A515CC84077
:101270000649086006480068FFF794FE002048E72A
:101280000020024000100240042B00080C00002047
:101290000400002001480068704700000C00002096
:1012A00000B5FFF7F7FF04494968C1F30221034A7B
:1012B000515CC84000BD000000100240142B000823
:1012C00000B5FFF7E7FF04494968C1F3C221034AAB
:1012D000515CC84000BD000000100240142B000803
:1012E00070B500210022002400230020134D6968FE
:1012F00001F00C05F5B1042D02D0082D19D101E043
:101300000F4819E00F4DC1F38346AB5D01F4803502
:1013100055B10A4D6D68C5F340450B4E725D084DE1
:101320005D43B5FBF2F402E0084D03FB05F42046F3
:1013300002E000BF024800BF00BF70BD00100240C5
:1013400000127A00F22A0008022B000800093D0072
:10135000F8B504460CB90120F8BD207800F0010072
:10136000002878D0F848406800F00C0004280CD021
:10137000F548406800F00C00082811D1F248406898
:1013800000F48030B0F5803F0AD1EF48006800F4E7
:10139000003000285FD0606800285CD10120DBE7C6
:1013A00000BF6068B0F5803F06D1E748006840F4B0
:1013B0008030E549086028E0606858B9E248006874
:1013C00020F48030E04908600846006820F480205E
:1013D00008601AE06068B0F5A02F0BD1DA48006809
:1013E00040F48020D84908600846006840F4803006
:1013F00008600AE0D448006820F48030D2490860D0
:101400000846006820F48020086000BF606888B14A
:10141000FFF7A2FD054606E0FFF79EFD401B64288E
:1014200001D9032098E7C848006800F4003000287C
:10143000F2D010E0FFF790FD054606E0FFF78CFDC7
:10144000401B642801D9032086E7BF48006800F4E8
:1014500000300028F2D1207800F00200022857D195
:10146000B948406800F00C0050B1B748406800F03F
:101470000C00082818D1B448406800F4803098B9AE
:10148000B148006800F0020020B12069012801D0B5
:10149000012061E7AC48006820F0F800616940EA8B
:1014A000C100A949086033E02069E8B10120A749DB
:1014B0000860FFF751FD054606E0FFF74DFD401BB4
:1014C000022801D9032047E79F48006800F0020086
:1014D0000028F2D09C48006820F0F800616940EADA
:1014E000C1009949086013E0002098490860FFF79F
:1014F00033FD054606E0FFF72FFD401B022801D90A
:10150000032029E79048006800F002000028F2D18B
:10151000207800F0080008282DD1A069B8B101207A
:101520008B490860FFF718FD054606E0FFF714FD3C
:10153000401B022801D903200EE78348406A00F0CF
:1015400002000028F2D0012000F070FE13E000201D
:101550007F490860FFF700FD054606E0FFF7FCFC49
:10156000401B022801D90320F6E67748406A00F0C4
:1015700002000028F2D1207800F00400042873D182
:1015800000277148C06900F0805070B900BF6E48F4
:10159000C06940F080506C49C8610846C06900F0DD
:1015A0008050009000BF00BF01276A48006800F427
:1015B0008070B0B96748006840F480706549086081
:1015C000FFF7CAFC054606E0FFF7C6FC401B64288F
:1015D00001D90320C0E65F48006800F4807000284D
:1015E000F2D000BFE068012806D15748006A40F0F9
:1015F00001005549086227E0E06858B95248006A7E
:1016000020F00100504908620846006A20F00400FA
:10161000086219E0E06805280BD14B48006A40F0E9
:101620000400494908620846006A40F00100086267
:101630000AE04548006A20F0010043490862084674
:10164000006A20F00400086200BFE068A0B1FFF764
:1016500083FC054609E0FFF77FFC401B41F288311F
:10166000884202D9032077E622E03748006A00F07A
:1016700002000028EFD012E0FFF76EFC054608E0FC
:10168000FFF76AFC401B41F28831884201D90320F0
:1016900062E62D48006A00F002000028F0D1012F18
:1016A00005D12948C06920F080502749C86100BF92
:1016B000E069C8B32448406800F00C00082860D0F6
:1016C000E069022848D1002020490866FFF744FC61
:1016D000054606E0FFF740FC401B022801D9032025
:1016E0003AE61948006800F000700028F2D1206A3C
:1016F000B0F5803F07D11448406820F40030A1685D
:10170000084311494860D4E9080108430E49496873
:1017100021F4741108430C49486001200B49086604
:10172000FFF71AFC054607E03DE0FFF715FC401BFC
:10173000022801D903200FE60348006800F000707A
:101740000028F2D02FE000000010024000004242CA
:101750008004424200700040002014490866FFF7F0
:10176000FBFB054606E0FFF7F7FB401B022801D90B
:101770000320F1E50E48006800F000700028F2D167
:1017800011E0E069012800D1E6E50948466806F461
:101790008031206A814204D106F47011606A81426E
:1017A00001D00120D8E50020D6E50000000042422B
:1017B0000010024070B504462546681EB0F1807FD7
:1017C00001D301200FE0681E4FF0E02148610F2196
:1017D0004FF0FF3000F0F6FF00204FF0E02188616D
:1017E00007200861002070BD704770472DE9F84F51
:1017F0000446206805682068C668206847694FF07D
:101800000009CA4605F00F09B9F1000F0AD105F029
:10181000200038B106F0200020B1204600F0D1FDB4
:10182000BDE8F88FB9F1000F7BD007F0010018B9BF
:1018300006F49070002874D005F0010030B106F471
:10184000807018B1606C40F00100606405F0040025
:1018500030B107F0010018B1606C40F00200606424
:1018600005F0020030B107F0010018B1606C40F0E3
:101870000400606405F0080048B106F0200010B9CB
:1018800007F0010018B1606C40F008006064606C03
:10189000002845D005F0200028B106F0200010B146
:1018A000204600F08EFD20684069C0F3801A606C0D
:1018B00000F0080010B9BAF1000F2CD0204600F05B
:1018C0003AFD2068406900F0400000B300BF00BF4F
:1018D0002168143151E8001F21F0400021681431C3
:1018E00041E80002002AF3D100BFE06B50B1774815
:1018F000E16B4863E06BFFF747F888B1E06B416B41
:1019000088470DE02046FFF770FF09E009E0204618
:10191000FFF76BFF04E02046FFF767FF00206064DD
:101920007EE7206B012877D105F01000002873D0E6
:1019300006F010000028FAD000BF002000902068B8
:101940000068009020684068009000BF00BF2068D9
:10195000406900F0400000285FD0E06B00684068FC
:101960001FFA80F8B8F1000F55D0A08D404552DD28
:10197000A4F82E80E06B8069202843D000BF00BF10
:1019800021680C3151E8001F21F4807021680C316E
:1019900041E80002002AF3D100BF00BF00BF216868
:1019A000143151E8001F21F001002168143141E891
:1019B0000002002AF3D100BF00BF00BF216814312C
:1019C00051E8001F21F040002168143141E8000275
:1019D000002AF3D100BF202084F8420000202063B9
:1019E00000BF00BF21680C3151E8001F21F010003A
:1019F00021680C3141E80002002AF3D100BFE06BFE
:101A0000FEF796FF02206063A08DE28D801A81B2FE
:101A10002046FFF7E9FE03E742E0A08DE18D401A82
:101A20001FFA80F8E08DD0B3B8F1000F37D000BFB7
:101A300000BF21680C3151E8001F21F4907021682B
:101A40000C3141E80002002AF3D100BF00BF00BF03
:101A50002168143151E8001F21F001002168143180
:101A600041E80002002AF3D100BF202084F84200A0
:101A70000020206300BF00BF21680C3151E8001F27
:101A800021F0100021680C3141E80002002AF3D156
:101A900000BF0220606341462046FFF7A5FEBFE677
:101AA00005F0800030B106F0800018B1204600F04B
:101AB00085FDB5E605F0400030B106F0400018B1F4
:101AC000204600F06EFCABE600BFA9E62323000829
:101AD00010B504460CB9012010BDA06900B100E0AA
:101AE00000BF94F8410028B9002084F84000204647
:101AF00000F02AF8242084F841002068C06820F40F
:101B000000502168C860204600F0DAFC20680069B7
:101B100020F49040216808612068406920F02A0084
:101B2000216848612068C06840F400502168C8609E
:101B300000206064202084F8410084F842000020E6
:101B4000606300BFC8E7000010B586B004460020FF
:101B5000029003900490059038492068884230D163
:101B600000BF3748806940F48040354988610846A5
:101B7000806900F48040019000BF00BF00BF0846AC
:101B8000806940F0040088610846806900F0040024
:101B9000019000BF00BF481502900220039003206F
:101BA000059002A92748FFF729F84FF480600290BA
:101BB000002003900120049002A92248FFF71EF89C
:101BC0003AE021492068884236D100BF1C48C069EC
:101BD00040F480201A49C8610846C06900F480209A
:101BE000019000BF00BF00BF0846806940F00800B8
:101BF00088610846806900F00800019000BF00BFBE
:101C000008150290022003900320059002A90F48B6
:101C1000FEF7F4FF4FF40060029000200390049060
:101C200002A90A48FEF7EAFF002211462720FFF723
:101C300019FA2720FFF706FA06B010BD0038014058
:101C4000001002400008014000480040000C014024
:101C500070472DE9F84F04460E46174699464FF057
:101C6000000A94F8410020284AD106B117B9012092
:101C7000BDE8F88F00206064212084F84100FFF760
:101C80006BF98246A784E784A068B0F5805F04D131
:101C9000206910B90025B04602E035464FF0000833
:101CA0001BE05346002280212046CDF8009000F032
:101CB000B5FC08B10320DBE745B9B8F80000C0F374
:101CC00008002168486008F1020803E028782168CC
:101CD00048606D1CE08C401EE084E08C0028E0D160
:101CE0005346002240212046CDF8009000F096FC9B
:101CF00008B10320BCE7202084F841000020B7E7AA
:101D00000220B5E7704700BFFEE7000010B50448A9
:101D1000046802E0A06880472469002CFAD110BD55
:101D200034000020024909680161014908607047D8
:101D3000340000208CB0FEF70DFCFFF7E7FF17E042
:101D400001A8FEF7BBFD98B90AA000F0FBFC9DF8C6
:101D500008100DA000F0F6FC0EA0019900F0F2FCB6
:101D60000FA0059900F0EEFC10A0069900F0EAFC27
:101D7000E6E7000067657420696E7075742065760B
:101D8000656E743A0D0A0000747970653A25640D29
:101D90000A00000074696D653A25640D0A000000B0
:101DA0004B65793A25640D0A000000007072657376
:101DB000737572653A25640D0A00000010B504467B
:101DC0002046FEF7EBFB10BD10B5FEF7EDFB10BD96
:101DD00010B5FEF7EDFB10BD70B504460D46294663
:101DE0002046FEF7E9FB70BD00B585B000200190EC
:101DF00002900390049000BF1D48806940F04000AD
:101E00001B4988610846806900F04000009000BFCF
:101E100000BF00BF0846806940F040008861084666
:101E2000806900F04000009000BF00BF11480290A0
:101E3000012003900820019001A90F48FEF7DEFE63
:101E40001020019001A90C48FEF7D8FE002211468F
:101E50000920FFF707F9002211460A20FFF702F9CF
:101E60000920FFF7EFF80A20FFF7ECF805B000BDF6
:101E700000100240000031100018014000B585B08C
:101E80000020019002900390049000BF36488069C2
:101E900040F04000344988610846806900F0400005
:101EA000009000BF00BF00BF0846806940F01000EE
:101EB00088610846806900F01000009000BF00BFF4
:101EC00000BF0846806940F00800886108468069C4
:101ED00000F00800009000BF00BF00BF0846806906
:101EE00040F4807088610846806900F4807000903A
:101EF00000BF00BF00BF0846806940F00400886151
:101F00000846806900F00400009000BF00BF012275
:101F1000C0211648FFF71AF8012260211448FFF784
:101F200015F818200190002002900120039001A9CB
:101F30001048FEF763FEC02001900120029003903C
:101F40000320049001A90948FEF758FE6020019083
:101F500011200290002003900320049001A904485E
:101F6000FEF74CFE05B000BD00100240002001400D
:101F7000000C01400018014010B50B480B490860E7
:101F80004FF4E1304860002108488160C160016180
:101F90000C21416100218161C161FFF799FD08B108
:101FA000FEF77EFC10BD000000380140B8000020A4
:101FB00010B50B480B4908604FF4E1304860002130
:101FC00008488160C16001610C214161002181618B
:101FD000C161FFF77DFD08B1FEF762FC10BD000096
:101FE000004800400001002000BFFEE700BFFEE700
:101FF0000249096801620149086070476C000020CD
:1020000030B591B040F2D2454FF4FA60FFF7D6FEFA
:102010002FA000F097FBFEF7BBFA31A0FEF77EFC85
:1020200004462046616A884710B92FA000F08AFB59
:1020300010E032A234A12046A36A984718B934A010
:1020400000F080FB07E038A000F07CFB4FF47A70D2
:10205000FFF7B4FEEDE700BF0CA92046E26A904707
:1020600028B92A460CA936A000F06CFB04E03BA07E
:1020700000F068FB11B030BD2046616B88472A46EE
:102080003AA12046236B984718B939A000F05AFBB3
:1020900003E03CA000F056FBECE7FEF75BFAFFF72D
:1020A00035FE13E001A8FEF709FC78B93BA000F06B
:1020B00049FB9DF808103EA000F044FB3FA00199A9
:1020C00000F040FB07A940A000F03CFBEAE700005D
:1020D000436F6E6E656374696E670D0A00000000E1
:1020E0004553503832363600696E69742073756313
:1020F0006365737366756C0D0A00000031353837FF
:1021000036383634393231006875616A00000000B3
:10211000436F6E6E6563742057494649207375633B
:10212000636573730D0A0000436F6E6E6563742000
:1021300057494649206572726F720D0A000000000F
:10214000426F617264204950203D2025732C20701D
:102150006F7274203D2025640D0A000047657449A4
:102160006E666F206572726F720D0A0055445000E2
:1021700043726561745472616E73666572204F4B71
:102180000D0A000043726561745472616E73666576
:1021900072206572726F720D0A000000676574200C
:1021A000696E707574206576656E743A0D0A00006C
:1021B000747970653A25640D0A00000074696D65D4
:1021C0003A25640D0A0000007374723A257300000A
:1021D0007047000070B504461348D0F8B801401CA1
:1021E0000A21B0FBF1F201FB120514B94FF0FF30E8
:1021F00070BD0D48D0F8BC01A84212D00A49D1F8F0
:10220000B81101EB410202EBC101074A02EB810068
:102210002C222146FDF7AAFF0348C0F8B851002040
:10222000E6E74FF0FF30E3E74801002008B5084932
:102230000968C9084FF47A72B1FBF2F14143009189
:1022400000BF00BF00994A1E00920029F9D108BDC5
:102250000C00002070470000014908607047000032
:102260001000002010B5FEF77DFE10BD00B58FB048
:10227000282105A8FDF793FF14216846FDF78FFF7D
:10228000012005900004069000200790012009908D
:1022900002200C90C1030D914FF4E0110E9105A89E
:1022A000FFF756F808B1FEF7FBFA0F200090022066
:1022B0000190002002904FF4806003900020049071
:1022C00002216846FEF720FF08B1FEF7E9FA0FB0D9
:1022D00000BD704710B50446024800F0D3FB002053
:1022E00010BD00001C0300200021034AC2F8901119
:1022F000C2F89411704700001C03002070B5054619
:102300000C460249204600F0C3FB70BD1C030020B0
:1023100070B506460C46154629462046FFF75CFD7B
:1023200070BD70B505466C6A0020E085E0842046EB
:10233000FFF75BFA70BD00BF00BF02680C3252E8C5
:10234000002F22F4907102680C3242E80013002B37
:10235000F3D100BF00BF00BF0268143252E8002F63
:1023600022F001010268143242E80013002BF3D17D
:1023700000BF016B01290ED100BF00BF02680C3203
:1023800052E8002F22F0100102680C3242E80013DC
:10239000002BF3D100BF202180F8421000210163FF
:1023A000704710B504462068C06820F040002168DE
:1023B000C860202084F841002046FFF7A3FC0020DD
:1023C00010BDF8B5044694F84200222875D1A068E3
:1023D000B0F5805F0CD1206950B90025A66A20684D
:1023E0004068C0F308003080A06A801CA06215E03D
:1023F000A56A0026A068B0F5805F03D0A06828B960
:10240000206918B920684068287004E02068406896
:1024100000F07F002870A06A401CA062E08D401E82
:1024200080B2E085002846D12068C06820F02000F6
:102430002168C8602068C06820F480702168C86086
:102440002068406920F0010021684861202084F85C
:10245000420000206063206B012826D10020206309
:1024600000BF00BF21680C3151E8001F21F01000AF
:1024700021680C3141E80002002AF3D100BF206836
:10248000006800F0100010280AD100BF0020009062
:1024900020680068009020684068009000BF00BF7E
:1024A000A18D2046FFF7A0F902E02046FFF7D0FB00
:1024B0000020F8BD01E00020FBE70220F9E7000062
:1024C00070B504462168096921F44051E26811435E
:1024D000226811612269A1681143626941EA02051B
:1024E0002168C96841F20C62914329432268D16096
:1024F0002168496921F44071A26911432268516140
:102500002D4A2168914202D1FEF7DAFE01E0FEF782
:10251000C7FE00EBC00101EB001162689200B1FB45
:10252000F2F100EBC00202EB001263689B00B2FB09
:10253000F3F26423B2FBF3F202EBC20303EB0212E9
:10254000A1EB8201322202EB01116422B1FBF2F114
:1025500001F0F00100EBC00202EB001263689B0087
:10256000B2FBF3F26423B2FBF3F201EB021200EBD5
:10257000C00101EB001163689B00B1FBF3F100EBBC
:10258000C00303EB00136668B600B3FBF6F36426E2
:10259000B3FBF6F303EBC30606EB0313A1EB8301D6
:1025A000322303EB01116423B1FBF3F101F00F01BE
:1025B00011442268916070BD00380140014691F8D5
:1025C0004100212828D18868B0F5805F0BD10869C7
:1025D00048B90A6A1088C0F308000B685860086A96
:1025E000801C086205E00B6A581C086218780B68AA
:1025F0005860C88C401E80B2C88458B90868C0684A
:1026000020F080000B68D8600868C06840F0400087
:102610000B68D860002070470220FCE72DE9F041EC
:1026200004460D4617469846069E34E0701C88B353
:102630002EB1FEF791FCA0EB0800B0422BD900BFF1
:1026400000BF21680C3151E8001F21F4D0702168CF
:102650000C3141E80002002AF3D100BF00BF00BFE7
:102660002168143151E8001F21F001002168143164
:1026700041E80002002AF3D100BF202084F8410085
:1026800084F8420000BF002084F8400000BF03200F
:10269000BDE8F081FFE7206800682840A84201D12A
:1026A000012000E00020B842C0D00020F0E7000088
:1026B00010B51348006840B9FEF736F911490860B3
:1026C0000F480068401C0E49086000240E4800684E
:1026D00000F0200078B10C48001D0068C4B2094821
:1026E0000168204600F0F0F90848006818B120465B
:1026F0000649096888470648FFF778F810BD0000CA
:1027000018000020140000200048004010000020A5
:102710000001002010B5024600200BE000BF074B6F
:102720001B6803F08003002BF9D0135C034C241DBD
:102730002360401C8842F1DB10BD000000480040CF
:1027400000BFFEE70FB4054B10B503A9044A029879
:1027500000F05CF810BC5DF814FB0000D129000803
:10276000B40000200FB4084B10B504A902AA0398C6
:1027700000F04CF8044602A9002000F023F920469E
:1027800010BC5DF814FB0000C529000870B50546B3
:1027900007480068044606E029462068FDF72FFD3B
:1027A00008B9204670BD002CF6D100BFFAE7000042
:1027B0006C00002002480068C0F30220704700004F
:1027C0000CED00E010B5002804DB0A07130E054AE3
:1027D000135406E00A07140E034A00F00F031B1FF0
:1027E000D45410BD00E400E018ED00E002E008C899
:1027F000121F08C1002AFAD170477047002001E07B
:1028000001C1121F002AFBD1704700002DE9FF4FC4
:102810008BB09A460F460546002606E025280BD0C9
:1028200052460D9990476D1C761C28780028F5D1EA
:102830000FB03046BDE8F08F0024A0460122604969
:1028400000E0044315F8013F203B02FA03F0084280
:10285000F7D128782E2817D115F8010F44F0040479
:102860002A280ED06FF02F022878A0F13001092914
:102870000AD808EB880102EB410100EB01086D1C4E
:10288000F2E757F8048B6D1C287869283ED006DCE7
:102890000028CDD063280BD0642804D136E07328FB
:1028A00010D075284BD052460D999047761C85E084
:1028B00017F8040B8DF8000000208DF80100E946A0
:1028C000012003E057F8049B4FF0FF3061074FF001
:1028D000000401D40AE0641C44450DDA8442FADBAA
:1028E00019F804100029F6D106E0641C8442FCDBD0
:1028F00019F804100029F8D1264404E019F8010B56
:1029000052460D999047641EF8D257E001CF4FF020
:102910000A0B002802DA40422D2102E0210504D5ED
:102920002B218DF82410012103E0E10705D020219F
:10293000F7E70DF1200908910CE00021F9E701CF3C
:102940004FF00A0BF9E75946FDF77FFC01F1300221
:1029500009F8012D0028F6D1ADEB090000F1200B9C
:10296000600701D44FF00108D84502DDA8EB0B0049
:1029700000E000208046002406E009A85246005DE1
:102980000D999047641C761C08988442F5DB04E09E
:10299000302052460D999047761CB8F10001A8F1FD
:1029A0000108F5DC05E019F8010B52460D99904736
:1029B000761CBBF10001ABF1010BF4DC6D1C34E7BC
:1029C000092801000A68531C0B6010707047000052
:1029D00013B50C4600BF40F6B833012269460348E0
:1029E000FFF737F90028F6D11CBD0000B800002021
:1029F00070B504460D460CB1002D01DC002070BD01
:102A00000020605506A12046FDF7D4FB06462EB1F6
:102A1000301BC01DA84201DC0120F0E70020EEE7DA
:102A20004552524F520D0A0070B504460D460CB186
:102A3000002D01DC002070BD0020605506A120465D
:102A4000FDF7B8FB06462EB1301B001DA84201DC85
:102A50000120F0E70020EEE74F4B0D0A00000000D8
:102A6000FEF78CFAFFF702FCFFF708FAFFF784FA8B
:102A7000FFF79EFAFDF700FFFFF7C2FA01E0FFF74C
:102A800059F9FCE70021C0F89011C0F89411704783
:102A900010B50246D1F89401D1F89031984202D194
:102AA0004FF0FF3010BDD1F8940111F820001070E4
:102AB000D1F89401401C6423B0FBF3F403FB140031
:102AC000C1F894010020EDE730B50246D1F890013D
:102AD000401C6424B0FBF4F504FB1503D1F8940109
:102AE000984205D0D1F8900141F82020C1F89031EA
:102AF00030BD02030405060708090A0B0C0D0E0F72
:102B00001010010200000000000000000102030498
:102B10000607080900000000010203044750494F5E
:102B20005F4B65790000000045535038323636005F
:102B30007561727433000000582B000800000020FB
:102B4000B8000000EC270008102C0008B800002096
:102B500000080000FC270008000000001000000032
:102B6000010000000024F40000000000000000004C
:102B700000000000010100001C2B00080000000004
:102B8000A70800080000000000000000000000008E
:102B9000000000000000000000000000282B0008DA
:102BA000000000002D0800080000000000000000E8
:102BB000302B0008D5220008E92200081123000864
:102BC000FD22000800000000282B0008302E302EC7
:102BD000302E300000000000000000000000000067
:102BE000302E302E3000000000000000F5070008F5
:102BF000ED0500085D07000829060008CD0500085E
:102C0000570800083D080008000000000000000010
:0400000508000131BD
:00000001FF
