:020000040800F2
:1000000058060020490100088518000897160008C6
:100010008118000805020008191D000800000000F2
:1000200000000000000000000000000009190008A6
:100030002702000800000000891800080B190008BA
:100040006301000863010008630100086301000800
:1000500063010008630100086301000863010008F0
:100060006301000829020008330200086301000848
:1000700063010008630100086301000863010008D0
:1000800063010008630100086301000863010008C0
:1000900063010008630100086301000863010008B0
:1000A00063010008630100086301000863010008A0
:1000B0006301000863010008630100086301000890
:1000C0006301000863010008630100086301000880
:1000D000630100086301000863010008091D0008AE
:1000E0006301000863010008630100086301000860
:1000F0006301000863010008630100086301000850
:10010000630100086301000863010008630100083F
:10011000630100086301000863010008630100082F
:10012000630100086301000863010008630100081F
:10013000DFF810D000F054F800480047091F00080D
:10014000AFF3008058060020064880470648004765
:10015000FEE7FEE7FEE7FEE7FEE7FEE7FEE7FEE777
:10016000FEE7FEE7791900083101000840EA0103C3
:100170009B0703D009E008C9121F08C0042AFAD25D
:1001800003E011F8013B00F8013B521EF9D2704721
:10019000D2B201E000F8012B491EFBD270470022C9
:1001A000F6E710B513460A4604461946FFF7F0FF76
:1001B000204610BD30B50B46014600202022012408
:1001C00009E021FA02F59D4205D303FA02F5491B25
:1001D00004FA02F52844151EA2F10102F1DC30BD3B
:1001E000064C074D06E0E06840F0010394E8070084
:1001F00098471034AC42F6D3FFF79EFF641F000807
:10020000841F000800BFFEE710B500F03FFB10BDE3
:1002100070B504460D462946204600F083FB70BDAC
:10022000014600207047704710B5082000F072F9B1
:1002300010BD10B5102000F06DF910BD72B600BFF2
:10024000FEE700000146002907DB022905DC01EB7F
:100250008100034A02EB800070470020FCE70000A9
:10026000140000200146002291F82100022808D045
:100270000420886300BF002081F8200000BF012017
:1002800070470868006820F00E000B681860086866
:10029000006820F001000B68186091F840300120E0
:1002A0009840CB6B5860012081F8210000BF0020EE
:1002B00081F8200000BF1046E2E7000070B5044658
:1002C000002594F82100022803D00420A063012512
:1002D000C1E02068006820F00E00216808602068F6
:1002E000006820F00100216808605C4920688842AD
:1002F00052D95A4978392068884201D1012047E013
:10030000564964392068884201D1102040E05349A1
:1003100050392068884201D1801539E04F493C3975
:100320002068884201D1801432E04C492839206885
:10033000884202D14FF480302AE0484914392068BD
:10034000884202D14FF4801022E04449206888425C
:1003500001D140041CE042492068884201D10120BB
:1003600016E03F4914312068884201D110200FE087
:100370003B4928312068884201D1801508E038497E
:100380003C312068884201D1801401E04FF4803074
:100390003349091F086051E03049783920688842A4
:1003A00001D1012047E02D4964392068884201D1FC
:1003B000102040E0294950392068884201D1801539
:1003C00039E026493C392068884201D1801432E066
:1003D000224928392068884202D14FF480302AE02F
:1003E0001E4914392068884202D14FF4801022E05F
:1003F0001A492068884201D140041CE0184920684D
:10040000884201D1012016E0154914312068884244
:1004100001D110200FE0124928312068884201D113
:10042000801508E00E493C312068884201D18014D3
:1004300001E04FF48030094980394860012084F898
:10044000210000BF002084F8200000BF606B10B1C5
:100450002046616B8847284670BD0000800002403E
:100460000804024070B5044600F010FA064625461E
:10047000681C10B104480078054400BF00F006FA7B
:10048000801BA842FAD370BD0800002010B58AB0C6
:100490000446082C1AD101F000F9019000208DF8D3
:1004A0000800012005900821174800F0E1F908B97B
:1004B000012000E00020069001A801F0E7F90821E2
:1004C000114800F0D5F9114908701BE0102C19D122
:1004D00001F0E3F8019000208DF80800022005905B
:1004E0001021094800F0C4F908B9012000E00020FB
:1004F000069001A801F0CAF91021034800F0B8F9EC
:10050000034908700AB010BD001801401000002017
:100510001100002010B5044604480068204020B1B6
:10052000024804602046FFF7B1FF10BD14040140EB
:100530002DE9F847024600239C467BE14FF0010875
:1005400008FA03F4D1F8008008EA0400A0427DD143
:10055000DFF8F4A2D1F80480A8EB0A09D0453AD01C
:1005600014DCB8F1030F50D009DCB8F1000F31D022
:10057000B8F1010F1CD0B8F1020F49D120E0B8F159
:10058000110F18D0B8F1120F42D11EE0B9F5881F33
:1005900025D006DCB9F5803F20D0B9F5801F37D1D2
:1005A0001AE0B9F5001F18D0B9F5041F30D117E0D3
:1005B000D1F80CC02DE0D1F80C8008F1040C28E033
:1005C000D1F80C8008F1080C23E0D1F80C8008F178
:1005D0000C0C1EE000BF00BF00BF00BF00BF00BF8B
:1005E000D1F80880B8F1000F02D14FF0040C0BE0F5
:1005F000D1F80880B8F1010F03D14FF0080C146155
:1006000002E04FF0080C546103E04FF0000C00E0F2
:1006100000BF00BFFF2801D8904601E002F10408A6
:100620004646FF2802D84FEA830803E0A3F10808F2
:100630004FEA88084746D6F800804FF00F0909FABC
:1006400007F928EA09080CFA07F900E07AE048EA15
:100650000908C6F80080D1F8048008F08058B8F185
:10066000805F6FD100BFDFF8E481D8F8188048F0D0
:100670000108DFF8D891C9F81880C846D8F8188062
:1006800008F00108CDF8008000BF00BF4FEAB9387C
:100690004FEA930958F829504FEA83784FEA1879BE
:1006A0004FF00F0808FA09F825EA0805DFF8A081DD
:1006B000424502D14FF0000824E0DFF8988142451E
:1006C00002D14FF001081DE0DFF88C81424502D1D4
:1006D0004FF0020816E0DFF88481424502D14FF066
:1006E00003080FE0DFF87881424502D14FF004089B
:1006F00008E0DFF87081424502D14FF0050801E0C3
:100700004FF006084FEA83794FEA197908FA09F899
:1007100048EA0505DFF850814FEA930948F8295067
:10072000D1F8048008F48018B8F5801F0BD1DFF8E9
:100730003C81D8F8008048EA0008DFF83091C9F819
:1007400000800AE075E0DFF82481D8F8008028EA0C
:100750000008DFF81891C9F80080D1F8048008F487
:100760000018B8F5001F0ED1DFF8008108F1040869
:10077000D8F8008048EA0008DFF8F09009F1040991
:10078000C9F800800DE0DFF8E48008F10408D8F82B
:10079000008028EA0008DFF8D49009F10409C9F8BC
:1007A0000080D1F8048008F40038B8F5003F0ED17D
:1007B000DFF8B880A8F10408D8F8008048EA0008FB
:1007C000DFF8A890A9F10409C9F800800DE0DFF86E
:1007D0009C80A8F10408D8F8008028EA0008DFF817
:1007E0008C90A9F10409C9F80080D1F8048008F4BC
:1007F0008038B8F5803F0ED1DFF87080A8F1080886
:10080000D8F8008048EA0008DFF86090A9F10809EC
:10081000C9F800800DE0DFF85480A8F10808D8F886
:10082000008028EA0008DFF84490A9F10809C9F817
:1008300000805B1CD1F8008028FA03F8B8F1000FA3
:100840007FF47CAEBDE8F887000011100010024074
:1008500000080140000C014000100140001401405C
:1008600000180140001C014008000140080401403C
:10087000024693680B400BB1012000E00020704756
:100880000AB1016101E00B0403617047014800688F
:100890007047000000000020034800680349097801
:1008A000084401490860704700000020080000204B
:1008B00010B50848006840F01000064908600320A1
:1008C00000F0D6F80F2000F007F800F059F80020EB
:1008D00010BD00000020024070B504460E480078AC
:1008E0004FF47A71B1FBF0F00C490968B1FBF0F5F7
:1008F000284600F027FC08B1012070BD102C07D25B
:1009000000222146501E00F075F80548046001E001
:100910000120F2E70020F0E7080000200C00002092
:100920000400002070B504460D4614B94FF0FF30A6
:1009300070BD0DB9012000E000200646206820B1FE
:10094000012808D0022813D10BE0324640210B4881
:10095000FFF796FF0FE0324680210848FFF790FF2F
:1009600009E032464FF480710448FFF789FF02E046
:100970004FF0FF30DCE700BF0020D9E70020014046
:1009800008B500BF1148806940F001000F49886137
:100990000846806900F00100009000BF00BF00BF62
:1009A0000846C06940F08050C8610846C06900F040
:1009B0008050009000BF00BF00BF0549486820F08C
:1009C000E06040F00070486000BF08BD00100240C9
:1009D0000000014001460846002809DB00F01F0323
:1009E00001229A4043099B0003F1E023C3F8002150
:1009F00000BF70472DE9F05F80460D461646002780
:100A000001F09CF9074639462A46334601F00700B3
:100A1000C0F1070ABAF1040F02D94FF0040A01E04D
:100A2000C0F1070AD14600F1040ABAF1070F02D259
:100A30004FF0000A01E0A0F1030AD4464FF0010A8A
:100A40000AFA09FAAAF1010A0AEA020A0AFA0CFAEF
:100A50004FF0010B0BFA0CFBABF1010B0BEA030B94
:100A60004AEA0B042146404601F070F9BDE8F09FC8
:100A700000BF00F00702064B19684FF6FF0319404C
:100A8000044B0B4343EA0221014B196000BF70473E
:100A90000CED00E00000FA0570B504460D460CB9F7
:100AA000012070BD5A48006800F00700A8420ED22D
:100AB0005748006820F00700284355490860084659
:100AC000006800F00700A84201D00120E9E7207883
:100AD00000F0020002281DD1207800F00400042854
:100AE00005D14C48406840F4E0604A4948602078AD
:100AF00000F00800082805D14648406840F46050DE
:100B0000444948604348406820F0F000A168084329
:100B100040494860207800F0010078B360680128FF
:100B200006D13C48006800F4003090B90120B8E7D5
:100B30006068022806D13748006800F0007040B9AC
:100B40000120AEE73348006800F0020008B9012038
:100B5000A7E73048406820F00300616808432D494A
:100B60004860FFF793FE064609E0FFF78FFE801B03
:100B700041F28831884202D9032092E707E02548F4
:100B8000406800F00C006168B0EB810FEDD12048A7
:100B9000006800F00700A8420ED91D48006820F048
:100BA000070028431A4908600846006800F007005B
:100BB000A84201D0012074E7207800F00400042846
:100BC00007D11448406820F4E060E1680843114907
:100BD0004860207800F00800082808D10D484068D7
:100BE00020F46050216940EAC1000A49486000F0E1
:100BF0003FF808494968C1F30311074A515CC840EE
:100C00000649086006480068FFF766FE002048E7CE
:100C100000200240001002404A1F00080C00002083
:100C20000400002001480068704700000C0000200C
:100C300000B5FFF7F7FF04494968C1F30221034AF1
:100C4000515CC84000BD0000001002405A1F00085F
:100C500000B5FFF7E7FF04494968C1F3C221034A21
:100C6000515CC84000BD0000001002405A1F00083F
:100C700070B500210022002400230020134D696874
:100C800001F00C05F5B1042D02D0082D19D101E0B9
:100C90000F4819E00F4DC1F38346AB5D01F4803579
:100CA00055B10A4D6D68C5F340450B4E725D084D58
:100CB0005D43B5FBF2F402E0084D03FB05F420466A
:100CC00002E000BF024800BF00BF70BD001002403C
:100CD00000127A00381F0008481F000800093D0074
:100CE000F8B504460CB90120F8BD207800F00100E9
:100CF000002878D0F848406800F00C0004280CD098
:100D0000F548406800F00C00082811D1F24840680E
:100D100000F48030B0F5803F0AD1EF48006800F45D
:100D2000003000285FD0606800285CD10120DBE73C
:100D300000BF6068B0F5803F06D1E748006840F426
:100D40008030E549086028E0606858B9E2480068EA
:100D500020F48030E04908600846006820F48020D4
:100D600008601AE06068B0F5A02F0BD1DA4800687F
:100D700040F48020D84908600846006840F480307C
:100D800008600AE0D448006820F48030D249086046
:100D90000846006820F48020086000BF606888B1C1
:100DA000FFF774FD054606E0FFF770FD401B642861
:100DB00001D9032098E7C848006800F400300028F3
:100DC000F2D010E0FFF762FD054606E0FFF75EFD9A
:100DD000401B642801D9032086E7BF48006800F45F
:100DE00000300028F2D1207800F00200022857D10C
:100DF000B948406800F00C0050B1B748406800F0B6
:100E00000C00082818D1B448406800F4803098B924
:100E1000B148006800F0020020B12069012801D02B
:100E2000012061E7AC48006820F0F800616940EA01
:100E3000C100A949086033E02069E8B10120A74951
:100E40000860FFF723FD054606E0FFF71FFD401B86
:100E5000022801D9032047E79F48006800F00200FC
:100E60000028F2D09C48006820F0F800616940EA50
:100E7000C1009949086013E0002098490860FFF715
:100E800005FD054606E0FFF701FD401B022801D9DC
:100E9000032029E79048006800F002000028F2D102
:100EA000207800F0080008282DD1A069B8B10120F1
:100EB0008B490860FFF7EAFC054606E0FFF7E6FC11
:100EC000401B022801D903200EE78348406A00F046
:100ED00002000028F2D0012000F002FD13E0002003
:100EE0007F490860FFF7D2FC054606E0FFF7CEFC1D
:100EF000401B022801D90320F6E67748406A00F03B
:100F000002000028F2D1207800F00400042873D1F8
:100F100000277148C06900F0805070B900BF6E486A
:100F2000C06940F080506C49C8610846C06900F053
:100F30008050009000BF00BF01276A48006800F49D
:100F40008070B0B96748006840F4807065490860F7
:100F5000FFF79CFC054606E0FFF798FC401B642861
:100F600001D90320C0E65F48006800F480700028C3
:100F7000F2D000BFE068012806D15748006A40F06F
:100F800001005549086227E0E06858B95248006AF4
:100F900020F00100504908620846006A20F0040071
:100FA000086219E0E06805280BD14B48006A40F060
:100FB0000400494908620846006A40F001000862DE
:100FC0000AE04548006A20F00100434908620846EB
:100FD000006A20F00400086200BFE068A0B1FFF7DB
:100FE00055FC054609E0FFF751FC401B41F28831F2
:100FF000884202D9032077E622E03748006A00F0F1
:1010000002000028EFD012E0FFF740FC054608E0A0
:10101000FFF73CFC401B41F28831884201D9032094
:1010200062E62D48006A00F002000028F0D1012F8E
:1010300005D12948C06920F080502749C86100BF08
:10104000E069C8B32448406800F00C00082860D06C
:10105000E069022848D1002020490866FFF716FC05
:10106000054606E0FFF712FC401B022801D90320C9
:101070003AE61948006800F000700028F2D1206AB2
:10108000B0F5803F07D11448406820F40030A168D3
:10109000084311494860D4E9080108430E494968EA
:1010A00021F4741108430C49486001200B4908667B
:1010B000FFF7ECFB054607E03DE0FFF7E7FB401BD1
:1010C000022801D903200FE60348006800F00070F1
:1010D0000028F2D02FE00000001002400000424241
:1010E0008004424200700040002014490866FFF767
:1010F000CDFB054606E0FFF7C9FB401B022801D9DE
:101100000320F1E50E48006800F000700028F2D1DD
:1011100011E0E069012800D1E6E50948466806F4D7
:101120008031206A814204D106F47011606A8142E4
:1011300001D00120D8E50020D6E5000000004242A1
:101140000010024070B504462546681EB0F1807F4D
:1011500001D301200FE0681E4FF0E02148610F210C
:101160004FF0FF3000F0F2FD00204FF0E0218861E9
:1011700007200861002070BD704770472DE9F84FC7
:101180000446206805682068C668206847694FF0F3
:101190000009CA4605F00F09B9F1000F0AD105F0A0
:1011A000200038B106F0200020B1204600F035FCC8
:1011B000BDE8F88FB9F1000F7BD007F0010018B936
:1011C00006F49070002874D005F0010030B106F4E8
:1011D000807018B1606C40F00100606405F004009C
:1011E00030B107F0010018B1606C40F0020060649B
:1011F00005F0020030B107F0010018B1606C40F05A
:101200000400606405F0080048B106F0200010B941
:1012100007F0010018B1606C40F008006064606C79
:10122000002845D005F0200028B106F0200010B1BC
:10123000204600F0F2FB20684069C0F3801A606C21
:1012400000F0080010B9BAF1000F2CD0204600F0D1
:101250009EFB2068406900F0400000B300BF00BF63
:101260002168143151E8001F21F040002168143139
:1012700041E80002002AF3D100BFE06B50B177488B
:10128000E16B4863E06BFFF719F888B1E06B416BE5
:1012900088470DE02046FFF770FF09E009E020468F
:1012A000FFF76BFF04E02046FFF767FF0020606454
:1012B0007EE7206B012877D105F01000002873D05D
:1012C00006F010000028FAD000BF0020009020682F
:1012D0000068009020684068009000BF00BF206850
:1012E000406900F0400000285FD0E06B0068406873
:1012F0001FFA80F8B8F1000F55D0A08D404552DD9F
:10130000A4F82E80E06B8069202843D000BF00BF86
:1013100021680C3151E8001F21F4807021680C31E4
:1013200041E80002002AF3D100BF00BF00BF2168DE
:10133000143151E8001F21F001002168143141E807
:101340000002002AF3D100BF00BF00BF21681431A2
:1013500051E8001F21F040002168143141E80002EB
:10136000002AF3D100BF202084F84200002020632F
:1013700000BF00BF21680C3151E8001F21F01000B0
:1013800021680C3141E80002002AF3D100BFE06B74
:10139000FEF768FF02206063A08DE28D801A81B2A3
:1013A0002046FFF7E9FE03E742E0A08DE18D401AF9
:1013B0001FFA80F8E08DD0B3B8F1000F37D000BF2E
:1013C00000BF21680C3151E8001F21F490702168A2
:1013D0000C3141E80002002AF3D100BF00BF00BF7A
:1013E0002168143151E8001F21F0010021681431F7
:1013F00041E80002002AF3D100BF202084F8420017
:101400000020206300BF00BF21680C3151E8001F9D
:1014100021F0100021680C3141E80002002AF3D1CC
:1014200000BF0220606341462046FFF7A5FEBFE6ED
:1014300005F0800030B106F0800018B1204600F0C1
:10144000E9FBB5E605F0400030B106F0400018B108
:10145000204600F0D2FAABE600BFA9E67B190008EF
:1014600010B504460CB9012010BDA06900B100E020
:1014700000BF94F8410028B9002084F840002046BD
:1014800000F02AF8242084F841002068C06820F485
:1014900000502168C860204600F03EFB20680069CB
:1014A00020F49040216808612068406920F02A00FB
:1014B000216848612068C06840F400502168C86015
:1014C00000206064202084F8410084F8420000205D
:1014D000606300BFC8E7000010B586B00446002076
:1014E000029003900490059038492068884230D1DA
:1014F00000BF3748806940F480403549886108461C
:10150000806900F48040019000BF00BF00BF084622
:10151000806940F0040088610846806900F004009A
:10152000019000BF00BF48150290022003900320E5
:10153000059002A92748FEF7FBFF4FF48060029058
:10154000002003900120049002A92248FEF7F0FF3A
:101550003AE021492068884236D100BF1C48C06962
:1015600040F480201A49C8610846C06900F4802010
:10157000019000BF00BF00BF0846806940F008002E
:1015800088610846806900F00800019000BF00BF34
:1015900008150290022003900320059002A90F482D
:1015A000FEF7C6FF4FF40060029000200390049005
:1015B00002A90A48FEF7BCFF002211462720FFF7C8
:1015C00019FA2720FFF706FA06B010BD00380140CF
:1015D000001002400008014000480040000C01409B
:1015E00070472DE9F84F04460E46174699464FF0CE
:1015F000000A94F8410020284AD106B117B9012009
:10160000BDE8F88F00206064212084F84100FFF7D6
:101610003DF98246A784E784A068B0F5805F04D1D5
:10162000206910B90025B04602E035464FF00008A9
:101630001BE05346002280212046CDF8009000F0A8
:1016400019FB08B10320DBE745B9B8F80000C0F387
:1016500008002168486008F1020803E02878216842
:1016600048606D1CE08C401EE084E08C0028E0D1D6
:101670005346002240212046CDF8009000F0FAFAAF
:1016800008B10320BCE7202084F841000020B7E720
:101690000220B5E7704700BFFEE710B5FEF7B4FDC6
:1016A00010BD70B504460D4629462046FEF7B0FD34
:1016B00070BD10B504462046FEF7B2FD10BD70B5F2
:1016C00004460D4629462046FFF7EBFF70BD10B5D6
:1016D00004462046FFF7EDFF10BD0020FEF7B2FDE7
:1016E00004460120FEF7AEFD05460220FEF7AAFDE6
:1016F000064620466168884728466968884730461C
:101700007168884717E001212046A26890470121AF
:101710002846AA6890474FF4FA70FEF7A3FE00210E
:101720002046A268904700212846AA6890474FF4B7
:10173000FA70FEF797FEE6E700B585B0002001904D
:1017400002900390049000BF2E48806940F0400052
:101750002C4988610846806900F04000009000BF75
:1017600000BF00BF0846806940F01000886108464D
:10177000806900F01000009000BF00BF00BF084665
:10178000806940F0080088610846806900F0080020
:10179000009000BF00BF00BF0846806940F4807021
:1017A00088610846806900F48070009000BF00BF27
:1017B00000BF0846806940F00400886108468069DF
:1017C00000F00400009000BF00BF0122C0210E48BD
:1017D000FFF756F818200190002002900120039096
:1017E00001A90A48FEF7A4FEC02001900120029042
:1017F00003900320049001A90348FEF799FE05B069
:1018000000BD00000010024000200140001801400F
:1018100010B50B480B4908604FF4E13048600021D7
:1018200008488160C16001610C2141610021816132
:10183000C161FFF715FE08B1FEF700FD10BD000005
:10184000003801405400002010B50B480B490860D7
:101850004FF4E1304860002108488160C1600161B7
:101860000C21416100218161C161FFF7F9FD08B1DF
:10187000FEF7E4FC10BD0000004800409C00002082
:1018800000BFFEE700BFFEE77047000070B50446EA
:101890001248D0F86801401C0A21B0FBF1F201FBAC
:1018A000120514B94FF0FF3070BD0C48D0F86C0130
:1018B000A84210D00949D1F8681101EBC101074ACB
:1018C00002EB810024222146FEF750FC0348C0F8B9
:1018D00068510020E8E74FF0FF30E5E7E400002022
:1018E00008B508490968C9084FF47A72B1FBF2F1EA
:1018F0004143009100BF00BF00994A1E0092002999
:10190000F9D108BD0C000020704710B5FEF7C4FFE8
:1019100010BD00B58FB0282105A8FEF740FC1421AA
:101920006846FEF73CFC012005900004069000206C
:1019300007900120099002200C90C1030D914FF4F3
:10194000E0110E9105A8FFF7CBF908B1FEF776FC80
:101950000F20009002200190002002904FF4806040
:1019600003900020049002216846FFF795F808B123
:10197000FEF764FC0FB000BD704770B505466C6A99
:101980000020E085E0842046FFF7F7FB70BD00BF34
:1019900000BF02680C3252E8002F22F490710268F6
:1019A0000C3242E80013002BF3D100BF00BF00BF90
:1019B0000268143252E8002F22F00101026814324A
:1019C00042E80013002BF3D100BF016B01290ED1B7
:1019D00000BF00BF02680C3252E8002F22F0100155
:1019E00002680C3242E80013002BF3D100BF202123
:1019F00080F8421000210163704710B5044620684A
:101A0000C06820F040002168C860202084F84100B0
:101A10002046FFF73FFE002010BDF8B5044694F8BD
:101A20004200222875D1A068B0F5805F0CD12069F2
:101A300050B90025A66A20684068C0F308003080CD
:101A4000A06A801CA06215E0A56A0026A068B0F517
:101A5000805F03D0A06828B9206918B92068406861
:101A6000287004E02068406800F07F002870A06AB9
:101A7000401CA062E08D401E80B2E085002846D167
:101A80002068C06820F020002168C8602068C06815
:101A900020F480702168C8602068406920F001004F
:101AA00021684861202084F8420000206063206B98
:101AB000012826D10020206300BF00BF21680C311F
:101AC00051E8001F21F0100021680C3141E80002AC
:101AD000002AF3D100BF2068006800F01000102831
:101AE0000AD100BF002000902068006800902068A4
:101AF0004068009000BF00BFA18D2046FFF73CFB6F
:101B000002E02046FFF76CFD0020F8BD01E0002058
:101B1000FBE70220F9E7000070B504462168096977
:101B200021F44051E2681143226811612269A168E1
:101B30001143626941EA02052168C96841F20C62F9
:101B4000914329432268D1602168496921F4407199
:101B5000A2691143226851612D4A2168914202D144
:101B6000FFF776F801E0FFF763F800EBC00101EB47
:101B7000001162689200B1FBF2F100EBC00202EBCF
:101B8000001263689B00B2FBF3F26423B2FBF3F232
:101B900002EBC20303EB0212A1EB8201322202EB41
:101BA00001116422B1FBF2F101F0F00100EBC0027F
:101BB00002EB001263689B00B2FBF3F26423B2FBFA
:101BC000F3F201EB021200EBC00101EB00116368BC
:101BD0009B00B1FBF3F100EBC00303EB001366685D
:101BE000B600B3FBF6F36426B3FBF6F303EBC306D0
:101BF00006EB0313A1EB8301322303EB01116423F2
:101C0000B1FBF3F101F00F0111442268916070BD46
:101C100000380140014691F84100212828D1886808
:101C2000B0F5805F0BD1086948B90A6A1088C0F323
:101C300008000B685860086A801C086205E00B6A9F
:101C4000581C086218780B685860C88C401E80B217
:101C5000C88458B90868C06820F080000B68D86054
:101C60000868C06840F040000B68D86000207047EA
:101C70000220FCE72DE9F04104460D461746984640
:101C8000069E34E0701C88B32EB1FEF7FFFDA0EB7A
:101C90000800B0422BD900BF00BF21680C3151E8C9
:101CA000001F21F4D07021680C3141E80002002AA5
:101CB000F3D100BF00BF00BF2168143151E8001FFD
:101CC00021F001002168143141E80002002AF3D11B
:101CD00000BF202084F8410084F8420000BF0020AB
:101CE00084F8400000BF0320BDE8F081FFE72068D2
:101CF00000682840A84201D1012000E00020B8423D
:101D0000C0D00020F0E7000010B50248FFF736FA17
:101D100010BD00009C00002000BFFEE70FB4054B83
:101D200010B503A9044A029800F034F810BC5DF81D
:101D300014FB0000E91E0008500000200248006863
:101D4000C0F30220704700000CED00E010B5002841
:101D500004DB0A07130E054A135406E00A07140EA3
:101D6000034A00F00F031B1FD45410BD00E400E031
:101D700018ED00E002E008C8121F08C1002AFAD1DD
:101D800070477047002001E001C1121F002AFBD1FB
:101D9000704700002DE9FF4F89B09B46044600259F
:101DA00006E025280BD05A460B999047641C6D1C01
:101DB00020780028F5D10DB02846BDE8F08F002727
:101DC000B8460122474900E0074314F8013F203B91
:101DD00002FA03F00842F7D120782E2819D114F81E
:101DE000010F47F004072A280ED06FF02F02207849
:101DF000A0F1300109290CD808EB880102EB410160
:101E000000EB0108641CF2E70A98641C50F8048B8C
:101E10000A9020780028CED0642808D0692806D0FF
:101E200075281ED05A460B9990476D1C58E00A99A8
:101E30004FF00A0901C90A91002802DA40422D2117
:101E400002E0390504D52B218DF82010012103E093
:101E5000F90704D02021F7E78A4608AE0DE00021FB
:101E6000FAE70A994FF00A0901C90A91F7E74946CA
:101E7000FEF7A0F9303106F8011D0028F7D1ADEBCF
:101E8000060000F12009780701D44FF00108C84589
:101E900002DDA8EB090000E000208046002706E0F4
:101EA00008A85A46C05D0B9990476D1C7F1C57458A
:101EB000F6DB04E030205A460B9990476D1CB8F1D0
:101EC0000001A8F10108F5DC05E016F8010B5A46FF
:101ED0000B9990476D1CB9F10001A9F10109F4DCDF
:101EE000641C65E70928010013B50C4600BF40F6E5
:101EF000B833012269460348FFF773FB0028F6D187
:101F00001CBD000054000020FEF7D2FCFFF701FDCD
:101F1000FFF712FCFFF77CFCFFF796FC03A0FFF72E
:101F2000FDFE01E0FFF7D9FBFCE7000048656C6CA3
:101F30006F2C776F726C64000203040506070809B2
:101F40000A0B0C0D0E0F1010010200000000000023
:101F50000000010203040607080900000000010256
:101F600003040000841F000800000020540000004B
:101F7000741D0008D81F000854000020040600004B
:101F8000841D000800000000100000000100000097
:101F90000024F4000101000000000000CF1600083A
:101FA000BF16000800000000000000000100000053
:101FB000CF160008BF160008000000000000000057
:101FC00002000000CF160008BF1600080000000045
:081FD000000000000000000009
:0400000508000131BD
:00000001FF
